{
  "abi": [
    {
      "inputs": [
        {
          "internalType": "address",
          "name": "_tokenAddress",
          "type": "address"
        },
        {
          "internalType": "address",
          "name": "_chainlinkfeed",
          "type": "address"
        },
        {
          "internalType": "uint256",
          "name": "_targetconcentration",
          "type": "uint256"
        },
        {
          "internalType": "uint256",
          "name": "_decimal",
          "type": "uint256"
        }
      ],
      "stateMutability": "nonpayable",
      "type": "constructor"
    },
    {
      "inputs": [],
      "name": "chainlinkfeed",
      "outputs": [
        {
          "internalType": "address",
          "name": "",
          "type": "address"
        }
      ],
      "stateMutability": "view",
      "type": "function"
    },
    {
      "inputs": [],
      "name": "decimal",
      "outputs": [
        {
          "internalType": "uint256",
          "name": "",
          "type": "uint256"
        }
      ],
      "stateMutability": "view",
      "type": "function"
    },
    {
      "inputs": [
        {
          "internalType": "uint256",
          "name": "_amount",
          "type": "uint256"
        }
      ],
      "name": "getDepositValue",
      "outputs": [
        {
          "internalType": "uint256",
          "name": "",
          "type": "uint256"
        }
      ],
      "stateMutability": "view",
      "type": "function"
    },
    {
      "inputs": [],
      "name": "getPoolValue",
      "outputs": [
        {
          "internalType": "uint256",
          "name": "",
          "type": "uint256"
        }
      ],
      "stateMutability": "view",
      "type": "function"
    },
    {
      "inputs": [],
      "name": "getPrice",
      "outputs": [
        {
          "internalType": "uint256",
          "name": "",
          "type": "uint256"
        }
      ],
      "stateMutability": "view",
      "type": "function"
    },
    {
      "inputs": [],
      "name": "oracle",
      "outputs": [
        {
          "internalType": "contract AggregatorV3Interface",
          "name": "",
          "type": "address"
        }
      ],
      "stateMutability": "view",
      "type": "function"
    },
    {
      "inputs": [],
      "name": "targetconcentration",
      "outputs": [
        {
          "internalType": "uint256",
          "name": "",
          "type": "uint256"
        }
      ],
      "stateMutability": "view",
      "type": "function"
    },
    {
      "inputs": [],
      "name": "token",
      "outputs": [
        {
          "internalType": "contract IERC20",
          "name": "",
          "type": "address"
        }
      ],
      "stateMutability": "view",
      "type": "function"
    },
    {
      "inputs": [
        {
          "internalType": "address",
          "name": "receiver",
          "type": "address"
        },
        {
          "internalType": "uint256",
          "name": "amount",
          "type": "uint256"
        }
      ],
      "name": "withdrawToken",
      "outputs": [],
      "stateMutability": "nonpayable",
      "type": "function"
    }
  ],
  "bytecode": "60a060405234801561001057600080fd5b506040516107c93803806107c983398101604081905261002f9161008a565b6001600160a01b0393841660805260008054939094166001600160a01b03199384168117909455600280549093169093179091556001556003556100cd565b80516001600160a01b038116811461008557600080fd5b919050565b600080600080608085870312156100a057600080fd5b6100a98561006e565b93506100b76020860161006e565b6040860151606090960151949790965092505050565b6080516106d36100f6600039600081816101380152818161018d015261039f01526106d36000f3fe608060405234801561001057600080fd5b50600436106100935760003560e01c806376809ce31161006657806376809ce3146100fa5780637dc0d1d01461010357806398d5fdca146101165780639e281a981461011e578063fc0c546a1461013357600080fd5b80631ba2f531146100985780631bc16b87146100b3578063202c0131146100bc5780636e8218aa146100e7575b600080fd5b6100a061015a565b6040519081526020015b60405180910390f35b6100a060015481565b6000546100cf906001600160a01b031681565b6040516001600160a01b0390911681526020016100aa565b6100a06100f536600461041f565b61021a565b6100a060035481565b6002546100cf906001600160a01b031681565b6100a0610251565b61013161012c366004610438565b610376565b005b6100cf7f000000000000000000000000000000000000000000000000000000000000000081565b600080610165610251565b9050600354600a610176919061056c565b6040516370a0823160e01b815230600482015282907f00000000000000000000000000000000000000000000000000000000000000006001600160a01b0316906370a0823190602401602060405180830381865afa1580156101dc573d6000803e3d6000fd5b505050506040513d601f19601f820116820180604052508101906102009190610578565b61020a9190610591565b61021491906105b0565b91505090565b600080610225610251565b9050600354600a610236919061056c565b6102408285610591565b61024a91906105b0565b9392505050565b600080600260009054906101000a90046001600160a01b03166001600160a01b031663feaf968c6040518163ffffffff1660e01b815260040160a060405180830381865afa1580156102a7573d6000803e3d6000fd5b505050506040513d601f19601f820116820180604052508101906102cb91906105f1565b5050509150506000600260009054906101000a90046001600160a01b03166001600160a01b031663313ce5676040518163ffffffff1660e01b8152600401602060405180830381865afa158015610326573d6000803e3d6000fd5b505050506040513d601f19601f8201168201806040525081019061034a9190610641565b60ff16905061035a816012610664565b61036590600a61056c565b61036f9083610591565b9250505090565b60405163a9059cbb60e01b81526001600160a01b038381166004830152602482018390526000917f00000000000000000000000000000000000000000000000000000000000000009091169063a9059cbb906044016020604051808303816000875af11580156103ea573d6000803e3d6000fd5b505050506040513d601f19601f8201168201806040525081019061040e919061067b565b90508061041a57600080fd5b505050565b60006020828403121561043157600080fd5b5035919050565b6000806040838503121561044b57600080fd5b82356001600160a01b038116811461046257600080fd5b946020939093013593505050565b634e487b7160e01b600052601160045260246000fd5b600181815b808511156104c15781600019048211156104a7576104a7610470565b808516156104b457918102915b93841c939080029061048b565b509250929050565b6000826104d857506001610566565b816104e557506000610566565b81600181146104fb576002811461050557610521565b6001915050610566565b60ff84111561051657610516610470565b50506001821b610566565b5060208310610133831016604e8410600b8410161715610544575081810a610566565b61054e8383610486565b806000190482111561056257610562610470565b0290505b92915050565b600061024a83836104c9565b60006020828403121561058a57600080fd5b5051919050565b60008160001904831182151516156105ab576105ab610470565b500290565b6000826105cd57634e487b7160e01b600052601260045260246000fd5b500490565b805169ffffffffffffffffffff811681146105ec57600080fd5b919050565b600080600080600060a0868803121561060957600080fd5b610612866105d2565b9450602086015193506040860151925060608601519150610635608087016105d2565b90509295509295909350565b60006020828403121561065357600080fd5b815160ff8116811461024a57600080fd5b60008282101561067657610676610470565b500390565b60006020828403121561068d57600080fd5b8151801515811461024a57600080fdfea264697066735822122069f82d285a25163927760ec6a0f310d7f4a5b236e8c9c479c8f8056d93c594da64736f6c634300080c0033",
  "bytecodeSha1": "db11aa11d91ae9382181b1cabf366a209b6d5cb9",
  "compiler": {
    "evm_version": "istanbul",
    "optimizer": {
      "enabled": true,
      "runs": 200
    },
    "version": "0.8.12+commit.f00d7308"
  },
  "contractName": "TokenPool",
  "language": "Solidity",
  "natspec": {
    "kind": "dev",
    "methods": {
      "getDepositValue(uint256)": {
        "details": "function to get the usd value of the number of tokens someone wants to deposit",
        "params": {
          "_amount": "(number of tokens to be deposited)"
        }
      },
      "getPoolValue()": {
        "details": "function to get the current pool value in USD Multiplies the price of the token by number of tokens in the pool and divides by amount of token decimals "
      },
      "getPrice()": {
        "details": "function to get current price of the token from the oracle  returns the price of the token in USD with 18 decimals  (token has 18 decimals, oracle has 8 decimals, so we multiply by 10^10 to make oracle price same decimals as token) )"
      },
      "withdrawToken(address,uint256)": {
        "details": "function to send user tokens upon withdrawal",
        "params": {
          "amount": "- how much to send ",
          "receiver": "- who to send the tokens to"
        }
      }
    },
    "version": 1
  },
  "opcodes": "PUSH1 0x80 PUSH1 0x40 MSTORE CALLVALUE DUP1 ISZERO PUSH2 0x10 JUMPI PUSH1 0x0 DUP1 REVERT JUMPDEST POP PUSH1 0x4 CALLDATASIZE LT PUSH2 0x93 JUMPI PUSH1 0x0 CALLDATALOAD PUSH1 0xE0 SHR DUP1 PUSH4 0x76809CE3 GT PUSH2 0x66 JUMPI DUP1 PUSH4 0x76809CE3 EQ PUSH2 0xFA JUMPI DUP1 PUSH4 0x7DC0D1D0 EQ PUSH2 0x103 JUMPI DUP1 PUSH4 0x98D5FDCA EQ PUSH2 0x116 JUMPI DUP1 PUSH4 0x9E281A98 EQ PUSH2 0x11E JUMPI DUP1 PUSH4 0xFC0C546A EQ PUSH2 0x133 JUMPI PUSH1 0x0 DUP1 REVERT JUMPDEST DUP1 PUSH4 0x1BA2F531 EQ PUSH2 0x98 JUMPI DUP1 PUSH4 0x1BC16B87 EQ PUSH2 0xB3 JUMPI DUP1 PUSH4 0x202C0131 EQ PUSH2 0xBC JUMPI DUP1 PUSH4 0x6E8218AA EQ PUSH2 0xE7 JUMPI JUMPDEST PUSH1 0x0 DUP1 REVERT JUMPDEST PUSH2 0xA0 PUSH2 0x15A JUMP JUMPDEST PUSH1 0x40 MLOAD SWAP1 DUP2 MSTORE PUSH1 0x20 ADD JUMPDEST PUSH1 0x40 MLOAD DUP1 SWAP2 SUB SWAP1 RETURN JUMPDEST PUSH2 0xA0 PUSH1 0x1 SLOAD DUP2 JUMP JUMPDEST PUSH1 0x0 SLOAD PUSH2 0xCF SWAP1 PUSH1 0x1 PUSH1 0x1 PUSH1 0xA0 SHL SUB AND DUP2 JUMP JUMPDEST PUSH1 0x40 MLOAD PUSH1 0x1 PUSH1 0x1 PUSH1 0xA0 SHL SUB SWAP1 SWAP2 AND DUP2 MSTORE PUSH1 0x20 ADD PUSH2 0xAA JUMP JUMPDEST PUSH2 0xA0 PUSH2 0xF5 CALLDATASIZE PUSH1 0x4 PUSH2 0x41F JUMP JUMPDEST PUSH2 0x21A JUMP JUMPDEST PUSH2 0xA0 PUSH1 0x3 SLOAD DUP2 JUMP JUMPDEST PUSH1 0x2 SLOAD PUSH2 0xCF SWAP1 PUSH1 0x1 PUSH1 0x1 PUSH1 0xA0 SHL SUB AND DUP2 JUMP JUMPDEST PUSH2 0xA0 PUSH2 0x251 JUMP JUMPDEST PUSH2 0x131 PUSH2 0x12C CALLDATASIZE PUSH1 0x4 PUSH2 0x438 JUMP JUMPDEST PUSH2 0x376 JUMP JUMPDEST STOP JUMPDEST PUSH2 0xCF PUSH32 0x0 DUP2 JUMP JUMPDEST PUSH1 0x0 DUP1 PUSH2 0x165 PUSH2 0x251 JUMP JUMPDEST SWAP1 POP PUSH1 0x3 SLOAD PUSH1 0xA PUSH2 0x176 SWAP2 SWAP1 PUSH2 0x56C JUMP JUMPDEST PUSH1 0x40 MLOAD PUSH4 0x70A08231 PUSH1 0xE0 SHL DUP2 MSTORE ADDRESS PUSH1 0x4 DUP3 ADD MSTORE DUP3 SWAP1 PUSH32 0x0 PUSH1 0x1 PUSH1 0x1 PUSH1 0xA0 SHL SUB AND SWAP1 PUSH4 0x70A08231 SWAP1 PUSH1 0x24 ADD PUSH1 0x20 PUSH1 0x40 MLOAD DUP1 DUP4 SUB DUP2 DUP7 GAS STATICCALL ISZERO DUP1 ISZERO PUSH2 0x1DC JUMPI RETURNDATASIZE PUSH1 0x0 DUP1 RETURNDATACOPY RETURNDATASIZE PUSH1 0x0 REVERT JUMPDEST POP POP POP POP PUSH1 0x40 MLOAD RETURNDATASIZE PUSH1 0x1F NOT PUSH1 0x1F DUP3 ADD AND DUP3 ADD DUP1 PUSH1 0x40 MSTORE POP DUP2 ADD SWAP1 PUSH2 0x200 SWAP2 SWAP1 PUSH2 0x578 JUMP JUMPDEST PUSH2 0x20A SWAP2 SWAP1 PUSH2 0x591 JUMP JUMPDEST PUSH2 0x214 SWAP2 SWAP1 PUSH2 0x5B0 JUMP JUMPDEST SWAP2 POP POP SWAP1 JUMP JUMPDEST PUSH1 0x0 DUP1 PUSH2 0x225 PUSH2 0x251 JUMP JUMPDEST SWAP1 POP PUSH1 0x3 SLOAD PUSH1 0xA PUSH2 0x236 SWAP2 SWAP1 PUSH2 0x56C JUMP JUMPDEST PUSH2 0x240 DUP3 DUP6 PUSH2 0x591 JUMP JUMPDEST PUSH2 0x24A SWAP2 SWAP1 PUSH2 0x5B0 JUMP JUMPDEST SWAP4 SWAP3 POP POP POP JUMP JUMPDEST PUSH1 0x0 DUP1 PUSH1 0x2 PUSH1 0x0 SWAP1 SLOAD SWAP1 PUSH2 0x100 EXP SWAP1 DIV PUSH1 0x1 PUSH1 0x1 PUSH1 0xA0 SHL SUB AND PUSH1 0x1 PUSH1 0x1 PUSH1 0xA0 SHL SUB AND PUSH4 0xFEAF968C PUSH1 0x40 MLOAD DUP2 PUSH4 0xFFFFFFFF AND PUSH1 0xE0 SHL DUP2 MSTORE PUSH1 0x4 ADD PUSH1 0xA0 PUSH1 0x40 MLOAD DUP1 DUP4 SUB DUP2 DUP7 GAS STATICCALL ISZERO DUP1 ISZERO PUSH2 0x2A7 JUMPI RETURNDATASIZE PUSH1 0x0 DUP1 RETURNDATACOPY RETURNDATASIZE PUSH1 0x0 REVERT JUMPDEST POP POP POP POP PUSH1 0x40 MLOAD RETURNDATASIZE PUSH1 0x1F NOT PUSH1 0x1F DUP3 ADD AND DUP3 ADD DUP1 PUSH1 0x40 MSTORE POP DUP2 ADD SWAP1 PUSH2 0x2CB SWAP2 SWAP1 PUSH2 0x5F1 JUMP JUMPDEST POP POP POP SWAP2 POP POP PUSH1 0x0 PUSH1 0x2 PUSH1 0x0 SWAP1 SLOAD SWAP1 PUSH2 0x100 EXP SWAP1 DIV PUSH1 0x1 PUSH1 0x1 PUSH1 0xA0 SHL SUB AND PUSH1 0x1 PUSH1 0x1 PUSH1 0xA0 SHL SUB AND PUSH4 0x313CE567 PUSH1 0x40 MLOAD DUP2 PUSH4 0xFFFFFFFF AND PUSH1 0xE0 SHL DUP2 MSTORE PUSH1 0x4 ADD PUSH1 0x20 PUSH1 0x40 MLOAD DUP1 DUP4 SUB DUP2 DUP7 GAS STATICCALL ISZERO DUP1 ISZERO PUSH2 0x326 JUMPI RETURNDATASIZE PUSH1 0x0 DUP1 RETURNDATACOPY RETURNDATASIZE PUSH1 0x0 REVERT JUMPDEST POP POP POP POP PUSH1 0x40 MLOAD RETURNDATASIZE PUSH1 0x1F NOT PUSH1 0x1F DUP3 ADD AND DUP3 ADD DUP1 PUSH1 0x40 MSTORE POP DUP2 ADD SWAP1 PUSH2 0x34A SWAP2 SWAP1 PUSH2 0x641 JUMP JUMPDEST PUSH1 0xFF AND SWAP1 POP PUSH2 0x35A DUP2 PUSH1 0x12 PUSH2 0x664 JUMP JUMPDEST PUSH2 0x365 SWAP1 PUSH1 0xA PUSH2 0x56C JUMP JUMPDEST PUSH2 0x36F SWAP1 DUP4 PUSH2 0x591 JUMP JUMPDEST SWAP3 POP POP POP SWAP1 JUMP JUMPDEST PUSH1 0x40 MLOAD PUSH4 0xA9059CBB PUSH1 0xE0 SHL DUP2 MSTORE PUSH1 0x1 PUSH1 0x1 PUSH1 0xA0 SHL SUB DUP4 DUP2 AND PUSH1 0x4 DUP4 ADD MSTORE PUSH1 0x24 DUP3 ADD DUP4 SWAP1 MSTORE PUSH1 0x0 SWAP2 PUSH32 0x0 SWAP1 SWAP2 AND SWAP1 PUSH4 0xA9059CBB SWAP1 PUSH1 0x44 ADD PUSH1 0x20 PUSH1 0x40 MLOAD DUP1 DUP4 SUB DUP2 PUSH1 0x0 DUP8 GAS CALL ISZERO DUP1 ISZERO PUSH2 0x3EA JUMPI RETURNDATASIZE PUSH1 0x0 DUP1 RETURNDATACOPY RETURNDATASIZE PUSH1 0x0 REVERT JUMPDEST POP POP POP POP PUSH1 0x40 MLOAD RETURNDATASIZE PUSH1 0x1F NOT PUSH1 0x1F DUP3 ADD AND DUP3 ADD DUP1 PUSH1 0x40 MSTORE POP DUP2 ADD SWAP1 PUSH2 0x40E SWAP2 SWAP1 PUSH2 0x67B JUMP JUMPDEST SWAP1 POP DUP1 PUSH2 0x41A JUMPI PUSH1 0x0 DUP1 REVERT JUMPDEST POP POP POP JUMP JUMPDEST PUSH1 0x0 PUSH1 0x20 DUP3 DUP5 SUB SLT ISZERO PUSH2 0x431 JUMPI PUSH1 0x0 DUP1 REVERT JUMPDEST POP CALLDATALOAD SWAP2 SWAP1 POP JUMP JUMPDEST PUSH1 0x0 DUP1 PUSH1 0x40 DUP4 DUP6 SUB SLT ISZERO PUSH2 0x44B JUMPI PUSH1 0x0 DUP1 REVERT JUMPDEST DUP3 CALLDATALOAD PUSH1 0x1 PUSH1 0x1 PUSH1 0xA0 SHL SUB DUP2 AND DUP2 EQ PUSH2 0x462 JUMPI PUSH1 0x0 DUP1 REVERT JUMPDEST SWAP5 PUSH1 0x20 SWAP4 SWAP1 SWAP4 ADD CALLDATALOAD SWAP4 POP POP POP JUMP JUMPDEST PUSH4 0x4E487B71 PUSH1 0xE0 SHL PUSH1 0x0 MSTORE PUSH1 0x11 PUSH1 0x4 MSTORE PUSH1 0x24 PUSH1 0x0 REVERT JUMPDEST PUSH1 0x1 DUP2 DUP2 JUMPDEST DUP1 DUP6 GT ISZERO PUSH2 0x4C1 JUMPI DUP2 PUSH1 0x0 NOT DIV DUP3 GT ISZERO PUSH2 0x4A7 JUMPI PUSH2 0x4A7 PUSH2 0x470 JUMP JUMPDEST DUP1 DUP6 AND ISZERO PUSH2 0x4B4 JUMPI SWAP2 DUP2 MUL SWAP2 JUMPDEST SWAP4 DUP5 SHR SWAP4 SWAP1 DUP1 MUL SWAP1 PUSH2 0x48B JUMP JUMPDEST POP SWAP3 POP SWAP3 SWAP1 POP JUMP JUMPDEST PUSH1 0x0 DUP3 PUSH2 0x4D8 JUMPI POP PUSH1 0x1 PUSH2 0x566 JUMP JUMPDEST DUP2 PUSH2 0x4E5 JUMPI POP PUSH1 0x0 PUSH2 0x566 JUMP JUMPDEST DUP2 PUSH1 0x1 DUP2 EQ PUSH2 0x4FB JUMPI PUSH1 0x2 DUP2 EQ PUSH2 0x505 JUMPI PUSH2 0x521 JUMP JUMPDEST PUSH1 0x1 SWAP2 POP POP PUSH2 0x566 JUMP JUMPDEST PUSH1 0xFF DUP5 GT ISZERO PUSH2 0x516 JUMPI PUSH2 0x516 PUSH2 0x470 JUMP JUMPDEST POP POP PUSH1 0x1 DUP3 SHL PUSH2 0x566 JUMP JUMPDEST POP PUSH1 0x20 DUP4 LT PUSH2 0x133 DUP4 LT AND PUSH1 0x4E DUP5 LT PUSH1 0xB DUP5 LT AND OR ISZERO PUSH2 0x544 JUMPI POP DUP2 DUP2 EXP PUSH2 0x566 JUMP JUMPDEST PUSH2 0x54E DUP4 DUP4 PUSH2 0x486 JUMP JUMPDEST DUP1 PUSH1 0x0 NOT DIV DUP3 GT ISZERO PUSH2 0x562 JUMPI PUSH2 0x562 PUSH2 0x470 JUMP JUMPDEST MUL SWAP1 POP JUMPDEST SWAP3 SWAP2 POP POP JUMP JUMPDEST PUSH1 0x0 PUSH2 0x24A DUP4 DUP4 PUSH2 0x4C9 JUMP JUMPDEST PUSH1 0x0 PUSH1 0x20 DUP3 DUP5 SUB SLT ISZERO PUSH2 0x58A JUMPI PUSH1 0x0 DUP1 REVERT JUMPDEST POP MLOAD SWAP2 SWAP1 POP JUMP JUMPDEST PUSH1 0x0 DUP2 PUSH1 0x0 NOT DIV DUP4 GT DUP3 ISZERO ISZERO AND ISZERO PUSH2 0x5AB JUMPI PUSH2 0x5AB PUSH2 0x470 JUMP JUMPDEST POP MUL SWAP1 JUMP JUMPDEST PUSH1 0x0 DUP3 PUSH2 0x5CD JUMPI PUSH4 0x4E487B71 PUSH1 0xE0 SHL PUSH1 0x0 MSTORE PUSH1 0x12 PUSH1 0x4 MSTORE PUSH1 0x24 PUSH1 0x0 REVERT JUMPDEST POP DIV SWAP1 JUMP JUMPDEST DUP1 MLOAD PUSH10 0xFFFFFFFFFFFFFFFFFFFF DUP2 AND DUP2 EQ PUSH2 0x5EC JUMPI PUSH1 0x0 DUP1 REVERT JUMPDEST SWAP2 SWAP1 POP JUMP JUMPDEST PUSH1 0x0 DUP1 PUSH1 0x0 DUP1 PUSH1 0x0 PUSH1 0xA0 DUP7 DUP9 SUB SLT ISZERO PUSH2 0x609 JUMPI PUSH1 0x0 DUP1 REVERT JUMPDEST PUSH2 0x612 DUP7 PUSH2 0x5D2 JUMP JUMPDEST SWAP5 POP PUSH1 0x20 DUP7 ADD MLOAD SWAP4 POP PUSH1 0x40 DUP7 ADD MLOAD SWAP3 POP PUSH1 0x60 DUP7 ADD MLOAD SWAP2 POP PUSH2 0x635 PUSH1 0x80 DUP8 ADD PUSH2 0x5D2 JUMP JUMPDEST SWAP1 POP SWAP3 SWAP6 POP SWAP3 SWAP6 SWAP1 SWAP4 POP JUMP JUMPDEST PUSH1 0x0 PUSH1 0x20 DUP3 DUP5 SUB SLT ISZERO PUSH2 0x653 JUMPI PUSH1 0x0 DUP1 REVERT JUMPDEST DUP2 MLOAD PUSH1 0xFF DUP2 AND DUP2 EQ PUSH2 0x24A JUMPI PUSH1 0x0 DUP1 REVERT JUMPDEST PUSH1 0x0 DUP3 DUP3 LT ISZERO PUSH2 0x676 JUMPI PUSH2 0x676 PUSH2 0x470 JUMP JUMPDEST POP SUB SWAP1 JUMP JUMPDEST PUSH1 0x0 PUSH1 0x20 DUP3 DUP5 SUB SLT ISZERO PUSH2 0x68D JUMPI PUSH1 0x0 DUP1 REVERT JUMPDEST DUP2 MLOAD DUP1 ISZERO ISZERO DUP2 EQ PUSH2 0x24A JUMPI PUSH1 0x0 DUP1 REVERT INVALID LOG2 PUSH5 0x6970667358 0x22 SLT KECCAK256 PUSH10 0xF82D285A25163927760E 0xC6 LOG0 RETURN LT 0xD7 DELEGATECALL 0xA5 0xB2 CALLDATASIZE 0xE8 0xC9 0xC4 PUSH26 0xC8F8056D93C594DA64736F6C634300080C003300000000000000 ",
  "sha1": "3762e937f2575e3c39c3188ea8c3655526f41ff2",
  "source": "//SPDX-License-Identifier: MIT\npragma solidity 0.8.12;\n\nimport \"@openzeppelin/contracts/token/ERC20/IERC20.sol\";\nimport \"@chainlink/contracts/src/v0.8/interfaces/AggregatorV3Interface.sol\";\n\ncontract TokenPool{\n//variables\nIERC20 public immutable token;\naddress public chainlinkfeed;\nuint256 public targetconcentration;\nAggregatorV3Interface public oracle;\nuint256 public decimal;\n\n//constructor\nconstructor (address _tokenAddress, address _chainlinkfeed, uint256 _targetconcentration, uint256 _decimal)  {\n    token = IERC20(_tokenAddress);\n    chainlinkfeed = _chainlinkfeed;\n    oracle = AggregatorV3Interface(_chainlinkfeed);\n    targetconcentration = _targetconcentration;\n    decimal = _decimal;\n\n}\n/** \n@dev function to get current price of the token from the oracle \nreturns the price of the token in USD with 18 decimals \n(token has 18 decimals, oracle has 8 decimals, so we multiply by 10^10 to make oracle price same decimals as token) )\n */\nfunction getPrice() public  view returns (uint256){\n    (,int256 price, , , ) = oracle.latestRoundData();\n    uint256 decimals = oracle.decimals();\n    return (uint256(price) * (10**(18-decimals)));\n}\n\n/**\n@dev function to get the current pool value in USD\nMultiplies the price of the token by number of tokens in the pool and divides by amount of token decimals \n */\nfunction getPoolValue() public view returns(uint256){\n    uint256 price = getPrice();\n    return ((token.balanceOf(address(this)) * price)/10**decimal);\n}\n\n/**\n@dev function to get the usd value of the number of tokens someone wants to deposit\n@param _amount (number of tokens to be deposited)\n */\n \nfunction getDepositValue(uint256 _amount) external view returns(uint256){\n    uint256 price = getPrice();\n    return ((_amount * price) / (10 ** decimal));\n}\n\n/**\n@dev function to send user tokens upon withdrawal\n@param receiver - who to send the tokens to\n@param amount - how much to send \n */\nfunction withdrawToken(address receiver, uint256 amount) external  {\n    bool success = token.transfer(receiver, amount);\n    require(success);\n}\n}\n\n\n\n\n\n",
  "sourcePath": "contracts/TokenPool.sol",
  "type": "contract"
}