{"abi":[{"inputs":[{"internalType":"address","name":"_registry","type":"address"}],"stateMutability":"nonpayable","type":"constructor","name":"constructor"},{"anonymous":false,"inputs":[{"indexed":true,"internalType":"address","name":"poolAddress","type":"address"},{"indexed":false,"internalType":"address","name":"tokenAddress","type":"address"}],"name":"TokenPoolDeployed","type":"event"},{"inputs":[{"internalType":"address","name":"tokenAddress","type":"address"},{"internalType":"address","name":"chainlinkfeed","type":"address"},{"internalType":"uint256","name":"targetconcentration","type":"uint256"},{"internalType":"uint256","name":"decimal","type":"uint256"}],"name":"deployTokenPool","outputs":[],"stateMutability":"nonpayable","type":"function"},{"inputs":[],"name":"owner","outputs":[{"internalType":"address","name":"","type":"address"}],"stateMutability":"view","type":"function"},{"inputs":[],"name":"registry","outputs":[{"internalType":"address","name":"","type":"address"}],"stateMutability":"view","type":"function"}],"bytecode":"608060405234801561001057600080fd5b50604051610b1e380380610b1e83398101604081905261002f91610062565b60008054336001600160a01b031991821617909155600180549091166001600160a01b0392909216919091179055610092565b60006020828403121561007457600080fd5b81516001600160a01b038116811461008b57600080fd5b9392505050565b610a7d806100a16000396000f3fe608060405234801561001057600080fd5b50600436106100415760003560e01c806372141f77146100465780637b1039991461005b5780638da5cb5b1461008a575b600080fd5b61005961005436600461023c565b61009d565b005b60015461006e906001600160a01b031681565b6040516001600160a01b03909116815260200160405180910390f35b60005461006e906001600160a01b031681565b6000546001600160a01b0316331461010a5760405162461bcd60e51b815260206004820152602660248201527f4f6e6c7920746865206f776e65722063616e206465706c6f79206120746f6b656044820152651b881c1bdbdb60d21b606482015260840160405180910390fd5b60008484848460405161011c90610213565b6001600160a01b03948516815293909216602084015260408301526060820152608001604051809103906000f08015801561015b573d6000803e3d6000fd5b50600154604051639b76533960e01b81526001600160a01b038084166004830152888116602483015260448201879052929350911690639b76533990606401600060405180830381600087803b1580156101b457600080fd5b505af11580156101c8573d6000803e3d6000fd5b50506040516001600160a01b038881168252841692507fcd65a6458d15c75df7315504ec209ae830ccac202e80ede3c45a45f03aa0cb0a915060200160405180910390a25050505050565b6107c98061027f83390190565b80356001600160a01b038116811461023757600080fd5b919050565b6000806000806080858703121561025257600080fd5b61025b85610220565b935061026960208601610220565b9396939550505050604082013591606001359056fe60a060405234801561001057600080fd5b506040516107c93803806107c983398101604081905261002f9161008a565b6001600160a01b0393841660805260008054939094166001600160a01b03199384168117909455600280549093169093179091556001556003556100cd565b80516001600160a01b038116811461008557600080fd5b919050565b600080600080608085870312156100a057600080fd5b6100a98561006e565b93506100b76020860161006e565b6040860151606090960151949790965092505050565b6080516106d36100f6600039600081816101380152818161018d015261039f01526106d36000f3fe608060405234801561001057600080fd5b50600436106100935760003560e01c806376809ce31161006657806376809ce3146100fa5780637dc0d1d01461010357806398d5fdca146101165780639e281a981461011e578063fc0c546a1461013357600080fd5b80631ba2f531146100985780631bc16b87146100b3578063202c0131146100bc5780636e8218aa146100e7575b600080fd5b6100a061015a565b6040519081526020015b60405180910390f35b6100a060015481565b6000546100cf906001600160a01b031681565b6040516001600160a01b0390911681526020016100aa565b6100a06100f536600461041f565b61021a565b6100a060035481565b6002546100cf906001600160a01b031681565b6100a0610251565b61013161012c366004610438565b610376565b005b6100cf7f000000000000000000000000000000000000000000000000000000000000000081565b600080610165610251565b9050600354600a610176919061056c565b6040516370a0823160e01b815230600482015282907f00000000000000000000000000000000000000000000000000000000000000006001600160a01b0316906370a0823190602401602060405180830381865afa1580156101dc573d6000803e3d6000fd5b505050506040513d601f19601f820116820180604052508101906102009190610578565b61020a9190610591565b61021491906105b0565b91505090565b600080610225610251565b9050600354600a610236919061056c565b6102408285610591565b61024a91906105b0565b9392505050565b600080600260009054906101000a90046001600160a01b03166001600160a01b031663feaf968c6040518163ffffffff1660e01b815260040160a060405180830381865afa1580156102a7573d6000803e3d6000fd5b505050506040513d601f19601f820116820180604052508101906102cb91906105f1565b5050509150506000600260009054906101000a90046001600160a01b03166001600160a01b031663313ce5676040518163ffffffff1660e01b8152600401602060405180830381865afa158015610326573d6000803e3d6000fd5b505050506040513d601f19601f8201168201806040525081019061034a9190610641565b60ff16905061035a816012610664565b61036590600a61056c565b61036f9083610591565b9250505090565b60405163a9059cbb60e01b81526001600160a01b038381166004830152602482018390526000917f00000000000000000000000000000000000000000000000000000000000000009091169063a9059cbb906044016020604051808303816000875af11580156103ea573d6000803e3d6000fd5b505050506040513d601f19601f8201168201806040525081019061040e919061067b565b90508061041a57600080fd5b505050565b60006020828403121561043157600080fd5b5035919050565b6000806040838503121561044b57600080fd5b82356001600160a01b038116811461046257600080fd5b946020939093013593505050565b634e487b7160e01b600052601160045260246000fd5b600181815b808511156104c15781600019048211156104a7576104a7610470565b808516156104b457918102915b93841c939080029061048b565b509250929050565b6000826104d857506001610566565b816104e557506000610566565b81600181146104fb576002811461050557610521565b6001915050610566565b60ff84111561051657610516610470565b50506001821b610566565b5060208310610133831016604e8410600b8410161715610544575081810a610566565b61054e8383610486565b806000190482111561056257610562610470565b0290505b92915050565b600061024a83836104c9565b60006020828403121561058a57600080fd5b5051919050565b60008160001904831182151516156105ab576105ab610470565b500290565b6000826105cd57634e487b7160e01b600052601260045260246000fd5b500490565b805169ffffffffffffffffffff811681146105ec57600080fd5b919050565b600080600080600060a0868803121561060957600080fd5b610612866105d2565b9450602086015193506040860151925060608601519150610635608087016105d2565b90509295509295909350565b60006020828403121561065357600080fd5b815160ff8116811461024a57600080fd5b60008282101561067657610676610470565b500390565b60006020828403121561068d57600080fd5b8151801515811461024a57600080fdfea26469706673582212206d43839cc9bc7650a5bfa042432ac1cbe0da7e567b31840070aa02a4a65bd90164736f6c634300080c0033a26469706673582212204910553652c0e51d953017c4ec9b32213d63b7b355e64e9f83f0871ee336dc8264736f6c634300080c0033","bytecodeSha1":"3cf6c08ac45c88918b9b9986c0b083cb408a70ad","compiler":{"evm_version":"istanbul","optimizer":{"enabled":true,"runs":200},"version":"0.8.12+commit.f00d7308"},"contractName":"TokenPoolFactory","language":"Solidity","natspec":{"kind":"dev","methods":{"deployTokenPool(address,address,uint256,uint256)":{"details":"Function deploys a new TokenPool, and sends the address of the new TokenPool to the Registry to be added to its list","params":{"chainlinkfeed":"(address of the Chainlink feed for the token, which gives its price in real time)","decimal":"(number of decimals of the token; usually 18 but some ERC20 tokens have a different number of decimals)","targetconcentration":"(target concentration of the token in the TokenPool)","tokenAddress":"(address of the token to be used in the TokenPool)"}}},"version":1},"opcodes":"PUSH1 0x80 PUSH1 0x40 MSTORE CALLVALUE DUP1 ISZERO PUSH2 0x10 JUMPI PUSH1 0x0 DUP1 REVERT JUMPDEST POP PUSH1 0x4 CALLDATASIZE LT PUSH2 0x41 JUMPI PUSH1 0x0 CALLDATALOAD PUSH1 0xE0 SHR DUP1 PUSH4 0x72141F77 EQ PUSH2 0x46 JUMPI DUP1 PUSH4 0x7B103999 EQ PUSH2 0x5B JUMPI DUP1 PUSH4 0x8DA5CB5B EQ PUSH2 0x8A JUMPI JUMPDEST PUSH1 0x0 DUP1 REVERT JUMPDEST PUSH2 0x59 PUSH2 0x54 CALLDATASIZE PUSH1 0x4 PUSH2 0x23C JUMP JUMPDEST PUSH2 0x9D JUMP JUMPDEST STOP JUMPDEST PUSH1 0x1 SLOAD PUSH2 0x6E SWAP1 PUSH1 0x1 PUSH1 0x1 PUSH1 0xA0 SHL SUB AND DUP2 JUMP JUMPDEST PUSH1 0x40 MLOAD PUSH1 0x1 PUSH1 0x1 PUSH1 0xA0 SHL SUB SWAP1 SWAP2 AND DUP2 MSTORE PUSH1 0x20 ADD PUSH1 0x40 MLOAD DUP1 SWAP2 SUB SWAP1 RETURN JUMPDEST PUSH1 0x0 SLOAD PUSH2 0x6E SWAP1 PUSH1 0x1 PUSH1 0x1 PUSH1 0xA0 SHL SUB AND DUP2 JUMP JUMPDEST PUSH1 0x0 SLOAD PUSH1 0x1 PUSH1 0x1 PUSH1 0xA0 SHL SUB AND CALLER EQ PUSH2 0x10A JUMPI PUSH1 0x40 MLOAD PUSH3 0x461BCD PUSH1 0xE5 SHL DUP2 MSTORE PUSH1 0x20 PUSH1 0x4 DUP3 ADD MSTORE PUSH1 0x26 PUSH1 0x24 DUP3 ADD MSTORE PUSH32 0x4F6E6C7920746865206F776E65722063616E206465706C6F79206120746F6B65 PUSH1 0x44 DUP3 ADD MSTORE PUSH6 0x1B881C1BDBDB PUSH1 0xD2 SHL PUSH1 0x64 DUP3 ADD MSTORE PUSH1 0x84 ADD PUSH1 0x40 MLOAD DUP1 SWAP2 SUB SWAP1 REVERT JUMPDEST PUSH1 0x0 DUP5 DUP5 DUP5 DUP5 PUSH1 0x40 MLOAD PUSH2 0x11C SWAP1 PUSH2 0x213 JUMP JUMPDEST PUSH1 0x1 PUSH1 0x1 PUSH1 0xA0 SHL SUB SWAP5 DUP6 AND DUP2 MSTORE SWAP4 SWAP1 SWAP3 AND PUSH1 0x20 DUP5 ADD MSTORE PUSH1 0x40 DUP4 ADD MSTORE PUSH1 0x60 DUP3 ADD MSTORE PUSH1 0x80 ADD PUSH1 0x40 MLOAD DUP1 SWAP2 SUB SWAP1 PUSH1 0x0 CREATE DUP1 ISZERO DUP1 ISZERO PUSH2 0x15B JUMPI RETURNDATASIZE PUSH1 0x0 DUP1 RETURNDATACOPY RETURNDATASIZE PUSH1 0x0 REVERT JUMPDEST POP PUSH1 0x1 SLOAD PUSH1 0x40 MLOAD PUSH4 0x9B765339 PUSH1 0xE0 SHL DUP2 MSTORE PUSH1 0x1 PUSH1 0x1 PUSH1 0xA0 SHL SUB DUP1 DUP5 AND PUSH1 0x4 DUP4 ADD MSTORE DUP9 DUP2 AND PUSH1 0x24 DUP4 ADD MSTORE PUSH1 0x44 DUP3 ADD DUP8 SWAP1 MSTORE SWAP3 SWAP4 POP SWAP2 AND SWAP1 PUSH4 0x9B765339 SWAP1 PUSH1 0x64 ADD PUSH1 0x0 PUSH1 0x40 MLOAD DUP1 DUP4 SUB DUP2 PUSH1 0x0 DUP8 DUP1 EXTCODESIZE ISZERO DUP1 ISZERO PUSH2 0x1B4 JUMPI PUSH1 0x0 DUP1 REVERT JUMPDEST POP GAS CALL ISZERO DUP1 ISZERO PUSH2 0x1C8 JUMPI RETURNDATASIZE PUSH1 0x0 DUP1 RETURNDATACOPY RETURNDATASIZE PUSH1 0x0 REVERT JUMPDEST POP POP PUSH1 0x40 MLOAD PUSH1 0x1 PUSH1 0x1 PUSH1 0xA0 SHL SUB DUP9 DUP2 AND DUP3 MSTORE DUP5 AND SWAP3 POP PUSH32 0xCD65A6458D15C75DF7315504EC209AE830CCAC202E80EDE3C45A45F03AA0CB0A SWAP2 POP PUSH1 0x20 ADD PUSH1 0x40 MLOAD DUP1 SWAP2 SUB SWAP1 LOG2 POP POP POP POP POP JUMP JUMPDEST PUSH2 0x7C9 DUP1 PUSH2 0x27F DUP4 CODECOPY ADD SWAP1 JUMP JUMPDEST DUP1 CALLDATALOAD PUSH1 0x1 PUSH1 0x1 PUSH1 0xA0 SHL SUB DUP2 AND DUP2 EQ PUSH2 0x237 JUMPI PUSH1 0x0 DUP1 REVERT JUMPDEST SWAP2 SWAP1 POP JUMP JUMPDEST PUSH1 0x0 DUP1 PUSH1 0x0 DUP1 PUSH1 0x80 DUP6 DUP8 SUB SLT ISZERO PUSH2 0x252 JUMPI PUSH1 0x0 DUP1 REVERT JUMPDEST PUSH2 0x25B DUP6 PUSH2 0x220 JUMP JUMPDEST SWAP4 POP PUSH2 0x269 PUSH1 0x20 DUP7 ADD PUSH2 0x220 JUMP JUMPDEST SWAP4 SWAP7 SWAP4 SWAP6 POP POP POP POP PUSH1 0x40 DUP3 ADD CALLDATALOAD SWAP2 PUSH1 0x60 ADD CALLDATALOAD SWAP1 JUMP INVALID PUSH1 0xA0 PUSH1 0x40 MSTORE CALLVALUE DUP1 ISZERO PUSH2 0x10 JUMPI PUSH1 0x0 DUP1 REVERT JUMPDEST POP PUSH1 0x40 MLOAD PUSH2 0x7C9 CODESIZE SUB DUP1 PUSH2 0x7C9 DUP4 CODECOPY DUP2 ADD PUSH1 0x40 DUP2 SWAP1 MSTORE PUSH2 0x2F SWAP2 PUSH2 0x8A JUMP JUMPDEST PUSH1 0x1 PUSH1 0x1 PUSH1 0xA0 SHL SUB SWAP4 DUP5 AND PUSH1 0x80 MSTORE PUSH1 0x0 DUP1 SLOAD SWAP4 SWAP1 SWAP5 AND PUSH1 0x1 PUSH1 0x1 PUSH1 0xA0 SHL SUB NOT SWAP4 DUP5 AND DUP2 OR SWAP1 SWAP5 SSTORE PUSH1 0x2 DUP1 SLOAD SWAP1 SWAP4 AND SWAP1 SWAP4 OR SWAP1 SWAP2 SSTORE PUSH1 0x1 SSTORE PUSH1 0x3 SSTORE PUSH2 0xCD JUMP JUMPDEST DUP1 MLOAD PUSH1 0x1 PUSH1 0x1 PUSH1 0xA0 SHL SUB DUP2 AND DUP2 EQ PUSH2 0x85 JUMPI PUSH1 0x0 DUP1 REVERT JUMPDEST SWAP2 SWAP1 POP JUMP JUMPDEST PUSH1 0x0 DUP1 PUSH1 0x0 DUP1 PUSH1 0x80 DUP6 DUP8 SUB SLT ISZERO PUSH2 0xA0 JUMPI PUSH1 0x0 DUP1 REVERT JUMPDEST PUSH2 0xA9 DUP6 PUSH2 0x6E JUMP JUMPDEST SWAP4 POP PUSH2 0xB7 PUSH1 0x20 DUP7 ADD PUSH2 0x6E JUMP JUMPDEST PUSH1 0x40 DUP7 ADD MLOAD PUSH1 0x60 SWAP1 SWAP7 ADD MLOAD SWAP5 SWAP8 SWAP1 SWAP7 POP SWAP3 POP POP POP JUMP JUMPDEST PUSH1 0x80 MLOAD PUSH2 0x6D3 PUSH2 0xF6 PUSH1 0x0 CODECOPY PUSH1 0x0 DUP2 DUP2 PUSH2 0x138 ADD MSTORE DUP2 DUP2 PUSH2 0x18D ADD MSTORE PUSH2 0x39F ADD MSTORE PUSH2 0x6D3 PUSH1 0x0 RETURN INVALID PUSH1 0x80 PUSH1 0x40 MSTORE CALLVALUE DUP1 ISZERO PUSH2 0x10 JUMPI PUSH1 0x0 DUP1 REVERT JUMPDEST POP PUSH1 0x4 CALLDATASIZE LT PUSH2 0x93 JUMPI PUSH1 0x0 CALLDATALOAD PUSH1 0xE0 SHR DUP1 PUSH4 0x76809CE3 GT PUSH2 0x66 JUMPI DUP1 PUSH4 0x76809CE3 EQ PUSH2 0xFA JUMPI DUP1 PUSH4 0x7DC0D1D0 EQ PUSH2 0x103 JUMPI DUP1 PUSH4 0x98D5FDCA EQ PUSH2 0x116 JUMPI DUP1 PUSH4 0x9E281A98 EQ PUSH2 0x11E JUMPI DUP1 PUSH4 0xFC0C546A EQ PUSH2 0x133 JUMPI PUSH1 0x0 DUP1 REVERT JUMPDEST DUP1 PUSH4 0x1BA2F531 EQ PUSH2 0x98 JUMPI DUP1 PUSH4 0x1BC16B87 EQ PUSH2 0xB3 JUMPI DUP1 PUSH4 0x202C0131 EQ PUSH2 0xBC JUMPI DUP1 PUSH4 0x6E8218AA EQ PUSH2 0xE7 JUMPI JUMPDEST PUSH1 0x0 DUP1 REVERT JUMPDEST PUSH2 0xA0 PUSH2 0x15A JUMP JUMPDEST PUSH1 0x40 MLOAD SWAP1 DUP2 MSTORE PUSH1 0x20 ADD JUMPDEST PUSH1 0x40 MLOAD DUP1 SWAP2 SUB SWAP1 RETURN JUMPDEST PUSH2 0xA0 PUSH1 0x1 SLOAD DUP2 JUMP JUMPDEST PUSH1 0x0 SLOAD PUSH2 0xCF SWAP1 PUSH1 0x1 PUSH1 0x1 PUSH1 0xA0 SHL SUB AND DUP2 JUMP JUMPDEST PUSH1 0x40 MLOAD PUSH1 0x1 PUSH1 0x1 PUSH1 0xA0 SHL SUB SWAP1 SWAP2 AND DUP2 MSTORE PUSH1 0x20 ADD PUSH2 0xAA JUMP JUMPDEST PUSH2 0xA0 PUSH2 0xF5 CALLDATASIZE PUSH1 0x4 PUSH2 0x41F JUMP JUMPDEST PUSH2 0x21A JUMP JUMPDEST PUSH2 0xA0 PUSH1 0x3 SLOAD DUP2 JUMP JUMPDEST PUSH1 0x2 SLOAD PUSH2 0xCF SWAP1 PUSH1 0x1 PUSH1 0x1 PUSH1 0xA0 SHL SUB AND DUP2 JUMP JUMPDEST PUSH2 0xA0 PUSH2 0x251 JUMP JUMPDEST PUSH2 0x131 PUSH2 0x12C CALLDATASIZE PUSH1 0x4 PUSH2 0x438 JUMP JUMPDEST PUSH2 0x376 JUMP JUMPDEST STOP JUMPDEST PUSH2 0xCF PUSH32 0x0 DUP2 JUMP JUMPDEST PUSH1 0x0 DUP1 PUSH2 0x165 PUSH2 0x251 JUMP JUMPDEST SWAP1 POP PUSH1 0x3 SLOAD PUSH1 0xA PUSH2 0x176 SWAP2 SWAP1 PUSH2 0x56C JUMP JUMPDEST PUSH1 0x40 MLOAD PUSH4 0x70A08231 PUSH1 0xE0 SHL DUP2 MSTORE ADDRESS PUSH1 0x4 DUP3 ADD MSTORE DUP3 SWAP1 PUSH32 0x0 PUSH1 0x1 PUSH1 0x1 PUSH1 0xA0 SHL SUB AND SWAP1 PUSH4 0x70A08231 SWAP1 PUSH1 0x24 ADD PUSH1 0x20 PUSH1 0x40 MLOAD DUP1 DUP4 SUB DUP2 DUP7 GAS STATICCALL ISZERO DUP1 ISZERO PUSH2 0x1DC JUMPI RETURNDATASIZE PUSH1 0x0 DUP1 RETURNDATACOPY RETURNDATASIZE PUSH1 0x0 REVERT JUMPDEST POP POP POP POP PUSH1 0x40 MLOAD RETURNDATASIZE PUSH1 0x1F NOT PUSH1 0x1F DUP3 ADD AND DUP3 ADD DUP1 PUSH1 0x40 MSTORE POP DUP2 ADD SWAP1 PUSH2 0x200 SWAP2 SWAP1 PUSH2 0x578 JUMP JUMPDEST PUSH2 0x20A SWAP2 SWAP1 PUSH2 0x591 JUMP JUMPDEST PUSH2 0x214 SWAP2 SWAP1 PUSH2 0x5B0 JUMP JUMPDEST SWAP2 POP POP SWAP1 JUMP JUMPDEST PUSH1 0x0 DUP1 PUSH2 0x225 PUSH2 0x251 JUMP JUMPDEST SWAP1 POP PUSH1 0x3 SLOAD PUSH1 0xA PUSH2 0x236 SWAP2 SWAP1 PUSH2 0x56C JUMP JUMPDEST PUSH2 0x240 DUP3 DUP6 PUSH2 0x591 JUMP JUMPDEST PUSH2 0x24A SWAP2 SWAP1 PUSH2 0x5B0 JUMP JUMPDEST SWAP4 SWAP3 POP POP POP JUMP JUMPDEST PUSH1 0x0 DUP1 PUSH1 0x2 PUSH1 0x0 SWAP1 SLOAD SWAP1 PUSH2 0x100 EXP SWAP1 DIV PUSH1 0x1 PUSH1 0x1 PUSH1 0xA0 SHL SUB AND PUSH1 0x1 PUSH1 0x1 PUSH1 0xA0 SHL SUB AND PUSH4 0xFEAF968C PUSH1 0x40 MLOAD DUP2 PUSH4 0xFFFFFFFF AND PUSH1 0xE0 SHL DUP2 MSTORE PUSH1 0x4 ADD PUSH1 0xA0 PUSH1 0x40 MLOAD DUP1 DUP4 SUB DUP2 DUP7 GAS STATICCALL ISZERO DUP1 ISZERO PUSH2 0x2A7 JUMPI RETURNDATASIZE PUSH1 0x0 DUP1 RETURNDATACOPY RETURNDATASIZE PUSH1 0x0 REVERT JUMPDEST POP POP POP POP PUSH1 0x40 MLOAD RETURNDATASIZE PUSH1 0x1F NOT PUSH1 0x1F DUP3 ADD AND DUP3 ADD DUP1 PUSH1 0x40 MSTORE POP DUP2 ADD SWAP1 PUSH2 0x2CB SWAP2 SWAP1 PUSH2 0x5F1 JUMP JUMPDEST POP POP POP SWAP2 POP POP PUSH1 0x0 PUSH1 0x2 PUSH1 0x0 SWAP1 SLOAD SWAP1 PUSH2 0x100 EXP SWAP1 DIV PUSH1 0x1 PUSH1 0x1 PUSH1 0xA0 SHL SUB AND PUSH1 0x1 PUSH1 0x1 PUSH1 0xA0 SHL SUB AND PUSH4 0x313CE567 PUSH1 0x40 MLOAD DUP2 PUSH4 0xFFFFFFFF AND PUSH1 0xE0 SHL DUP2 MSTORE PUSH1 0x4 ADD PUSH1 0x20 PUSH1 0x40 MLOAD DUP1 DUP4 SUB DUP2 DUP7 GAS STATICCALL ISZERO DUP1 ISZERO PUSH2 0x326 JUMPI RETURNDATASIZE PUSH1 0x0 DUP1 RETURNDATACOPY RETURNDATASIZE PUSH1 0x0 REVERT JUMPDEST POP POP POP POP PUSH1 0x40 MLOAD RETURNDATASIZE PUSH1 0x1F NOT PUSH1 0x1F DUP3 ADD AND DUP3 ADD DUP1 PUSH1 0x40 MSTORE POP DUP2 ADD SWAP1 PUSH2 0x34A SWAP2 SWAP1 PUSH2 0x641 JUMP JUMPDEST PUSH1 0xFF AND SWAP1 POP PUSH2 0x35A DUP2 PUSH1 0x12 PUSH2 0x664 JUMP JUMPDEST PUSH2 0x365 SWAP1 PUSH1 0xA PUSH2 0x56C JUMP JUMPDEST PUSH2 0x36F SWAP1 DUP4 PUSH2 0x591 JUMP JUMPDEST SWAP3 POP POP POP SWAP1 JUMP JUMPDEST PUSH1 0x40 MLOAD PUSH4 0xA9059CBB PUSH1 0xE0 SHL DUP2 MSTORE PUSH1 0x1 PUSH1 0x1 PUSH1 0xA0 SHL SUB DUP4 DUP2 AND PUSH1 0x4 DUP4 ADD MSTORE PUSH1 0x24 DUP3 ADD DUP4 SWAP1 MSTORE PUSH1 0x0 SWAP2 PUSH32 0x0 SWAP1 SWAP2 AND SWAP1 PUSH4 0xA9059CBB SWAP1 PUSH1 0x44 ADD PUSH1 0x20 PUSH1 0x40 MLOAD DUP1 DUP4 SUB DUP2 PUSH1 0x0 DUP8 GAS CALL ISZERO DUP1 ISZERO PUSH2 0x3EA JUMPI RETURNDATASIZE PUSH1 0x0 DUP1 RETURNDATACOPY RETURNDATASIZE PUSH1 0x0 REVERT JUMPDEST POP POP POP POP PUSH1 0x40 MLOAD RETURNDATASIZE PUSH1 0x1F NOT PUSH1 0x1F DUP3 ADD AND DUP3 ADD DUP1 PUSH1 0x40 MSTORE POP DUP2 ADD SWAP1 PUSH2 0x40E SWAP2 SWAP1 PUSH2 0x67B JUMP JUMPDEST SWAP1 POP DUP1 PUSH2 0x41A JUMPI PUSH1 0x0 DUP1 REVERT JUMPDEST POP POP POP JUMP JUMPDEST PUSH1 0x0 PUSH1 0x20 DUP3 DUP5 SUB SLT ISZERO PUSH2 0x431 JUMPI PUSH1 0x0 DUP1 REVERT JUMPDEST POP CALLDATALOAD SWAP2 SWAP1 POP JUMP JUMPDEST PUSH1 0x0 DUP1 PUSH1 0x40 DUP4 DUP6 SUB SLT ISZERO PUSH2 0x44B JUMPI PUSH1 0x0 DUP1 REVERT JUMPDEST DUP3 CALLDATALOAD PUSH1 0x1 PUSH1 0x1 PUSH1 0xA0 SHL SUB DUP2 AND DUP2 EQ PUSH2 0x462 JUMPI PUSH1 0x0 DUP1 REVERT JUMPDEST SWAP5 PUSH1 0x20 SWAP4 SWAP1 SWAP4 ADD CALLDATALOAD SWAP4 POP POP POP JUMP JUMPDEST PUSH4 0x4E487B71 PUSH1 0xE0 SHL PUSH1 0x0 MSTORE PUSH1 0x11 PUSH1 0x4 MSTORE PUSH1 0x24 PUSH1 0x0 REVERT JUMPDEST PUSH1 0x1 DUP2 DUP2 JUMPDEST DUP1 DUP6 GT ISZERO PUSH2 0x4C1 JUMPI DUP2 PUSH1 0x0 NOT DIV DUP3 GT ISZERO PUSH2 0x4A7 JUMPI PUSH2 0x4A7 PUSH2 0x470 JUMP JUMPDEST DUP1 DUP6 AND ISZERO PUSH2 0x4B4 JUMPI SWAP2 DUP2 MUL SWAP2 JUMPDEST SWAP4 DUP5 SHR SWAP4 SWAP1 DUP1 MUL SWAP1 PUSH2 0x48B JUMP JUMPDEST POP SWAP3 POP SWAP3 SWAP1 POP JUMP JUMPDEST PUSH1 0x0 DUP3 PUSH2 0x4D8 JUMPI POP PUSH1 0x1 PUSH2 0x566 JUMP JUMPDEST DUP2 PUSH2 0x4E5 JUMPI POP PUSH1 0x0 PUSH2 0x566 JUMP JUMPDEST DUP2 PUSH1 0x1 DUP2 EQ PUSH2 0x4FB JUMPI PUSH1 0x2 DUP2 EQ PUSH2 0x505 JUMPI PUSH2 0x521 JUMP JUMPDEST PUSH1 0x1 SWAP2 POP POP PUSH2 0x566 JUMP JUMPDEST PUSH1 0xFF DUP5 GT ISZERO PUSH2 0x516 JUMPI PUSH2 0x516 PUSH2 0x470 JUMP JUMPDEST POP POP PUSH1 0x1 DUP3 SHL PUSH2 0x566 JUMP JUMPDEST POP PUSH1 0x20 DUP4 LT PUSH2 0x133 DUP4 LT AND PUSH1 0x4E DUP5 LT PUSH1 0xB DUP5 LT AND OR ISZERO PUSH2 0x544 JUMPI POP DUP2 DUP2 EXP PUSH2 0x566 JUMP JUMPDEST PUSH2 0x54E DUP4 DUP4 PUSH2 0x486 JUMP JUMPDEST DUP1 PUSH1 0x0 NOT DIV DUP3 GT ISZERO PUSH2 0x562 JUMPI PUSH2 0x562 PUSH2 0x470 JUMP JUMPDEST MUL SWAP1 POP JUMPDEST SWAP3 SWAP2 POP POP JUMP JUMPDEST PUSH1 0x0 PUSH2 0x24A DUP4 DUP4 PUSH2 0x4C9 JUMP JUMPDEST PUSH1 0x0 PUSH1 0x20 DUP3 DUP5 SUB SLT ISZERO PUSH2 0x58A JUMPI PUSH1 0x0 DUP1 REVERT JUMPDEST POP MLOAD SWAP2 SWAP1 POP JUMP JUMPDEST PUSH1 0x0 DUP2 PUSH1 0x0 NOT DIV DUP4 GT DUP3 ISZERO ISZERO AND ISZERO PUSH2 0x5AB JUMPI PUSH2 0x5AB PUSH2 0x470 JUMP JUMPDEST POP MUL SWAP1 JUMP JUMPDEST PUSH1 0x0 DUP3 PUSH2 0x5CD JUMPI PUSH4 0x4E487B71 PUSH1 0xE0 SHL PUSH1 0x0 MSTORE PUSH1 0x12 PUSH1 0x4 MSTORE PUSH1 0x24 PUSH1 0x0 REVERT JUMPDEST POP DIV SWAP1 JUMP JUMPDEST DUP1 MLOAD PUSH10 0xFFFFFFFFFFFFFFFFFFFF DUP2 AND DUP2 EQ PUSH2 0x5EC JUMPI PUSH1 0x0 DUP1 REVERT JUMPDEST SWAP2 SWAP1 POP JUMP JUMPDEST PUSH1 0x0 DUP1 PUSH1 0x0 DUP1 PUSH1 0x0 PUSH1 0xA0 DUP7 DUP9 SUB SLT ISZERO PUSH2 0x609 JUMPI PUSH1 0x0 DUP1 REVERT JUMPDEST PUSH2 0x612 DUP7 PUSH2 0x5D2 JUMP JUMPDEST SWAP5 POP PUSH1 0x20 DUP7 ADD MLOAD SWAP4 POP PUSH1 0x40 DUP7 ADD MLOAD SWAP3 POP PUSH1 0x60 DUP7 ADD MLOAD SWAP2 POP PUSH2 0x635 PUSH1 0x80 DUP8 ADD PUSH2 0x5D2 JUMP JUMPDEST SWAP1 POP SWAP3 SWAP6 POP SWAP3 SWAP6 SWAP1 SWAP4 POP JUMP JUMPDEST PUSH1 0x0 PUSH1 0x20 DUP3 DUP5 SUB SLT ISZERO PUSH2 0x653 JUMPI PUSH1 0x0 DUP1 REVERT JUMPDEST DUP2 MLOAD PUSH1 0xFF DUP2 AND DUP2 EQ PUSH2 0x24A JUMPI PUSH1 0x0 DUP1 REVERT JUMPDEST PUSH1 0x0 DUP3 DUP3 LT ISZERO PUSH2 0x676 JUMPI PUSH2 0x676 PUSH2 0x470 JUMP JUMPDEST POP SUB SWAP1 JUMP JUMPDEST PUSH1 0x0 PUSH1 0x20 DUP3 DUP5 SUB SLT ISZERO PUSH2 0x68D JUMPI PUSH1 0x0 DUP1 REVERT JUMPDEST DUP2 MLOAD DUP1 ISZERO ISZERO DUP2 EQ PUSH2 0x24A JUMPI PUSH1 0x0 DUP1 REVERT INVALID LOG2 PUSH5 0x6970667358 0x22 SLT KECCAK256 PUSH14 0x43839CC9BC7650A5BFA042432AC1 0xCB 0xE0 0xDA PUSH31 0x567B31840070AA02A4A65BD90164736F6C634300080C0033A2646970667358 0x22 SLT KECCAK256 0x49 LT SSTORE CALLDATASIZE MSTORE 0xC0 0xE5 SAR SWAP6 ADDRESS OR 0xC4 0xEC SWAP12 ORIGIN 0x21 RETURNDATASIZE PUSH4 0xB7B355E6 0x4E SWAP16 DUP4 CREATE DUP8 0x1E 0xE3 CALLDATASIZE 0xDC DUP3 PUSH5 0x736F6C6343 STOP ADDMOD 0xC STOP CALLER ","sha1":"d39b64165502bf8e7eebe7a0102d74003dcc0143","source":"//SPDX-License-Identifier: MIT\npragma solidity 0.8.12;\nimport \"./TokenPool.sol\";\nimport \"../interfaces/IRegistry.sol\";\n\ncontract TokenPoolFactory {\n\n//Variables\naddress public owner;\naddress public registry;\n\n//Events\nevent TokenPoolDeployed(\n        address indexed poolAddress,\n        address tokenAddress\n    );\n\n//Constructor\nconstructor (address _registry) {\n    owner = msg.sender;\n    registry = _registry;\n}\n\n//Functions\n/** @dev Function deploys a new TokenPool, and sends the address of the new TokenPool to the Registry to be added to its list\n  @param tokenAddress (address of the token to be used in the TokenPool)\n  @param chainlinkfeed (address of the Chainlink feed for the token, which gives its price in real time)\n  @param targetconcentration (target concentration of the token in the TokenPool)\n  @param decimal (number of decimals of the token; usually 18 but some ERC20 tokens have a different number of decimals)\n  */\nfunction deployTokenPool(address tokenAddress, address chainlinkfeed, uint256 targetconcentration, uint256 decimal) public {\n    require(msg.sender == owner, \"Only the owner can deploy a token pool\");\n    address poolAddress = address(new TokenPool(tokenAddress, chainlinkfeed, targetconcentration, decimal));\n    IRegistry(registry).addTokenPool(poolAddress, tokenAddress, targetconcentration);\n    emit TokenPoolDeployed(poolAddress, tokenAddress);\n}\n\n}\n","sourcePath":"contracts/TokenPoolFactory.sol","type":"contract","deployment":{"address":"0x03e5E73cf39d59B6d288028bbC6B12a1CA2C8C3b","chainid":"5","blockHeight":7566720}}