{"abi":[{"inputs":[],"stateMutability":"nonpayable","type":"constructor","name":"constructor"},{"inputs":[],"name":"Error_Unauthorized","type":"error"},{"anonymous":false,"inputs":[{"indexed":true,"internalType":"address","name":"poolAddress","type":"address"},{"indexed":false,"internalType":"address","name":"tokenAddress","type":"address"}],"name":"ReservePoolDeployed","type":"event"},{"inputs":[{"internalType":"address","name":"","type":"address"}],"name":"PoolToConcentration","outputs":[{"internalType":"uint256","name":"","type":"uint256"}],"stateMutability":"view","type":"function"},{"inputs":[{"internalType":"address","name":"","type":"address"}],"name":"PoolToToken","outputs":[{"internalType":"address","name":"","type":"address"}],"stateMutability":"view","type":"function"},{"inputs":[{"internalType":"address","name":"_tokenPool","type":"address"},{"internalType":"address","name":"_token","type":"address"},{"internalType":"uint256","name":"concentration","type":"uint256"}],"name":"addTokenPool","outputs":[],"stateMutability":"nonpayable","type":"function"},{"inputs":[],"name":"checkDeposit","outputs":[{"internalType":"bool","name":"","type":"bool"}],"stateMutability":"view","type":"function"},{"inputs":[{"internalType":"uint256","name":"_amount","type":"uint256"}],"name":"checkWithdraw","outputs":[{"internalType":"address[]","name":"","type":"address[]"},{"internalType":"uint256[]","name":"","type":"uint256[]"}],"stateMutability":"view","type":"function"},{"inputs":[],"name":"factory","outputs":[{"internalType":"address","name":"","type":"address"}],"stateMutability":"view","type":"function"},{"inputs":[{"components":[{"internalType":"address","name":"pool","type":"address"},{"internalType":"uint256","name":"amt","type":"uint256"}],"internalType":"struct Registry.Rebalancing[]","name":"_rebalance","type":"tuple[]"}],"name":"findMax","outputs":[{"components":[{"internalType":"address","name":"pool","type":"address"},{"internalType":"uint256","name":"amt","type":"uint256"}],"internalType":"struct Registry.Rebalancing","name":"","type":"tuple"},{"internalType":"uint256","name":"","type":"uint256"}],"stateMutability":"pure","type":"function"},{"inputs":[{"internalType":"address","name":"pool","type":"address"}],"name":"getConcentration","outputs":[{"internalType":"uint256","name":"","type":"uint256"}],"stateMutability":"view","type":"function"},{"inputs":[{"internalType":"address","name":"pool","type":"address"},{"internalType":"uint256","name":"amount","type":"uint256"}],"name":"getNewConcentration","outputs":[{"internalType":"uint256","name":"","type":"uint256"}],"stateMutability":"view","type":"function"},{"inputs":[],"name":"getTotalAUMinUSD","outputs":[{"internalType":"uint256","name":"","type":"uint256"}],"stateMutability":"view","type":"function"},{"inputs":[{"internalType":"uint256","name":"_amount","type":"uint256"}],"name":"liquidityCheck","outputs":[{"components":[{"internalType":"address","name":"pool","type":"address"},{"internalType":"uint256","name":"amt","type":"uint256"}],"internalType":"struct Registry.Rebalancing[]","name":"","type":"tuple[]"}],"stateMutability":"view","type":"function"},{"inputs":[],"name":"owner","outputs":[{"internalType":"address","name":"","type":"address"}],"stateMutability":"view","type":"function"},{"inputs":[{"internalType":"address","name":"_factory","type":"address"}],"name":"setFactory","outputs":[],"stateMutability":"nonpayable","type":"function"},{"inputs":[{"internalType":"address","name":"_pool","type":"address"},{"internalType":"uint256","name":"_target","type":"uint256"}],"name":"setTargetConcentration","outputs":[],"stateMutability":"nonpayable","type":"function"},{"inputs":[{"internalType":"uint256","name":"","type":"uint256"}],"name":"tokenPools","outputs":[{"internalType":"address","name":"","type":"address"}],"stateMutability":"view","type":"function"},{"inputs":[{"internalType":"address","name":"","type":"address"}],"name":"tokenToPool","outputs":[{"internalType":"address","name":"","type":"address"}],"stateMutability":"view","type":"function"},{"inputs":[{"internalType":"uint256","name":"_amount","type":"uint256"}],"name":"tokensToWithdraw","outputs":[{"internalType":"address[]","name":"","type":"address[]"},{"internalType":"uint256[]","name":"","type":"uint256[]"}],"stateMutability":"view","type":"function"}],"bytecode":"608060405234801561001057600080fd5b50600080546001600160a01b0319163317905561103c806100326000396000f3fe608060405234801561001057600080fd5b506004361061010a5760003560e01c80638da5cb5b116100a2578063ac73b1bb11610071578063ac73b1bb1461028c578063bccc01ba146102b5578063c0f1cce5146102bd578063c45a0155146102d0578063d04238ee146102e357600080fd5b80638da5cb5b1461022a578063989796b51461023d5780639a9f3e35146102665780639b7653391461027957600080fd5b80633f41addd116100de5780633f41addd146101bc57806355be04ad146101dd5780635bb47808146101f5578063675c7c711461020a57600080fd5b8062c0f9161461010f57806329857fd11461013f5780632db208861461015f5780633e85d5f01461019b575b600080fd5b61012261011d366004610c2d565b6102f6565b6040516001600160a01b0390911681526020015b60405180910390f35b61015261014d366004610c2d565b610320565b6040516101369190610c46565b61017261016d366004610d32565b61051d565b6040805183516001600160a01b0316815260209384015193810193909352820152606001610136565b6101ae6101a9366004610e06565b6105bb565b604051908152602001610136565b6101cf6101ca366004610c2d565b61065c565b604051610136929190610e28565b6101e5610677565b6040519015158152602001610136565b610208610203366004610e06565b610712565b005b6101ae610218366004610e06565b60056020526000908152604090205481565b600054610122906001600160a01b031681565b61012261024b366004610e06565b6003602052600090815260409020546001600160a01b031681565b6101cf610274366004610c2d565b61075f565b610208610287366004610eac565b610989565b61012261029a366004610e06565b6004602052600090815260409020546001600160a01b031681565b6101ae610a79565b6101ae6102cb366004610ee8565b610b39565b600254610122906001600160a01b031681565b6102086102f1366004610ee8565b610be6565b6001818154811061030657600080fd5b6000918252602090912001546001600160a01b0316905081565b60015460609060008167ffffffffffffffff81111561034157610341610ca6565b60405190808252806020026020018201604052801561038657816020015b604080518082019091526000808252602082015281526020019060019003908161035f5790505b5090506000610393610a79565b905060006103a18683610f28565b905060005b84811015610512576000600182815481106103c3576103c3610f3f565b600091825260208083209091015460408051631ba2f53160e01b815290516001600160a01b0390921694508492631ba2f531926004808401938290030181865afa158015610415573d6000803e3d6000fd5b505050506040513d601f19601f820116820180604052508101906104399190610f55565b6001600160a01b038316600090815260056020526040812054919250620f42406104638388610f6e565b61046d9190610f8d565b9050808311156104c65760006104838285610f28565b90506040518060400160405280866001600160a01b03168152602001828152508987815181106104b5576104b5610f3f565b602002602001018190525050610503565b6040518060400160405280856001600160a01b0316815260200160008152508886815181106104f7576104f7610f3f565b60200260200101819052505b846001019450505050506103a6565b509195945050505050565b604080518082019091526000808252602082015281516000908180805b838110156105935786818151811061055457610554610f3f565b60200260200101516020015183101561058b5786818151811061057957610579610f3f565b60200260200101516020015192508091505b60010161053a565b508581815181106105a6576105a6610f3f565b60200260200101518194509450505050915091565b6000806105c6610a79565b90506000836001600160a01b0316631ba2f5316040518163ffffffff1660e01b8152600401602060405180830381865afa158015610608573d6000803e3d6000fd5b505050506040513d601f19601f8201168201806040525081019061062c9190610f55565b905081156106515781610642620f424083610f6e565b61064c9190610f8d565b610654565b60005b949350505050565b60608060008061066b8561075f565b90969095509350505050565b600154600090815b818110156107095760006001828154811061069c5761069c610f3f565b60009182526020822001546001600160a01b031691506106bb826105bb565b6001600160a01b038316600090815260056020526040812054919250906106e29083610faf565b90506207a1208113156106fb5760019550505050505090565b83600101935050505061067f565b50600091505090565b6000546001600160a01b0316331461073d5760405163da476dd760e01b815260040160405180910390fd5b600280546001600160a01b0319166001600160a01b0392909216919091179055565b606080600061076d84610320565b805190915060008167ffffffffffffffff81111561078d5761078d610ca6565b6040519080825280602002602001820160405280156107b6578160200160208202803683370190505b50905060008267ffffffffffffffff8111156107d4576107d4610ca6565b6040519080825280602002602001820160405280156107fd578160200160208202803683370190505b5090506000805b8481101561097b576000806108188861051d565b915091508a8410801561083957508a8260200151856108379190610fee565b115b156108c957610848848c610f28565b85848151811061085a5761085a610f3f565b602002602001018181525050816000015186848151811061087d5761087d610f3f565b60200260200101906001600160a01b031690816001600160a01b0316815250508483815181106108af576108af610f3f565b6020026020010151846108c29190610fee565b9350610971565b8a841080156108e757508a8260200151856108e49190610fee565b11155b1561097157816020015185848151811061090357610903610f3f565b602002602001018181525050816000015186848151811061092657610926610f3f565b6001600160a01b0390921660209283029190910182015282015161094a9085610fee565b9350600088828151811061096057610960610f3f565b602002602001015160200181815250505b5050600101610804565b509197909650945050505050565b6002546001600160a01b031633146109f35760405162461bcd60e51b8152602060048201526024808201527f4f6e6c792074686520666163746f72792063616e2061646420746f6b656e20706044820152636f6f6c7360e01b606482015260840160405180910390fd5b600180548082019091557fb10e2d527612073b26eecdfd717e6a320cf44b4afac2b0732d9fcbe2b7fa0cf60180546001600160a01b039485166001600160a01b0319918216811790925592909316600081815260036020908152604080832080548716881790559582526004815285822080549095169092179093556005905291902055565b6001546000908190815b81811015610b3157600060018281548110610aa057610aa0610f3f565b600091825260208083209091015460408051631ba2f53160e01b815290516001600160a01b0390921694508492631ba2f531926004808401938290030181865afa158015610af2573d6000803e3d6000fd5b505050506040513d601f19601f82011682018060405250810190610b169190610f55565b9050610b228186610fee565b94508260010192505050610a83565b509092915050565b600080610b44610a79565b9050600083856001600160a01b0316631ba2f5316040518163ffffffff1660e01b8152600401602060405180830381865afa158015610b87573d6000803e3d6000fd5b505050506040513d601f19601f82011682018060405250810190610bab9190610f55565b610bb59190610fee565b90508115610bda5781610bcb620f424083610f6e565b610bd59190610f8d565b610bdd565b60005b95945050505050565b6000546001600160a01b03163314610c115760405163da476dd760e01b815260040160405180910390fd5b6001600160a01b03909116600090815260056020526040902055565b600060208284031215610c3f57600080fd5b5035919050565b602080825282518282018190526000919060409081850190868401855b82811015610c9957610c8984835180516001600160a01b03168252602090810151910152565b9284019290850190600101610c63565b5091979650505050505050565b634e487b7160e01b600052604160045260246000fd5b6040805190810167ffffffffffffffff81118282101715610cdf57610cdf610ca6565b60405290565b604051601f8201601f1916810167ffffffffffffffff81118282101715610d0e57610d0e610ca6565b604052919050565b80356001600160a01b0381168114610d2d57600080fd5b919050565b60006020808385031215610d4557600080fd5b823567ffffffffffffffff80821115610d5d57600080fd5b818501915085601f830112610d7157600080fd5b813581811115610d8357610d83610ca6565b610d91848260051b01610ce5565b818152848101925060069190911b830184019087821115610db157600080fd5b928401925b81841015610dfb5760408489031215610dcf5760008081fd5b610dd7610cbc565b610de085610d16565b81528486013586820152835260409093019291840191610db6565b979650505050505050565b600060208284031215610e1857600080fd5b610e2182610d16565b9392505050565b604080825283519082018190526000906020906060840190828701845b82811015610e6a5781516001600160a01b031684529284019290840190600101610e45565b5050508381038285015284518082528583019183019060005b81811015610e9f57835183529284019291840191600101610e83565b5090979650505050505050565b600080600060608486031215610ec157600080fd5b610eca84610d16565b9250610ed860208501610d16565b9150604084013590509250925092565b60008060408385031215610efb57600080fd5b610f0483610d16565b946020939093013593505050565b634e487b7160e01b600052601160045260246000fd5b600082821015610f3a57610f3a610f12565b500390565b634e487b7160e01b600052603260045260246000fd5b600060208284031215610f6757600080fd5b5051919050565b6000816000190483118215151615610f8857610f88610f12565b500290565b600082610faa57634e487b7160e01b600052601260045260246000fd5b500490565b60008083128015600160ff1b850184121615610fcd57610fcd610f12565b6001600160ff1b0384018313811615610fe857610fe8610f12565b50500390565b6000821982111561100157611001610f12565b50019056fea264697066735822122074b3b39cbeb699235646617889d07b89c084d72c36532f6fcf23052e3334092964736f6c634300080c0033","bytecodeSha1":"478becb956d7f651ff11702a8a311fb9248032fe","compiler":{"evm_version":"istanbul","optimizer":{"enabled":true,"runs":200},"version":"0.8.12+commit.f00d7308"},"contractName":"Registry","language":"Solidity","natspec":{"kind":"dev","methods":{"addTokenPool(address,address,uint256)":{"details":"function to add TokenPool to tokenPool array and various mappings","params":{"_token":"- address of token","_tokenPool":"- address of tokenPool","concentration":"- value of target concentration "}},"checkDeposit()":{"details":"checks if any pool has a concentration more than 5% above/below target concentration"},"checkWithdraw(uint256)":{"details":"function that takes the rebalancing array from liquidityCheck and returns the pools to withdraw from and how much to withdraw from each pool Checks total amount to be withdraw, finds pools with greatest concentration disparity and takes from those first","params":{"_amount":"- amount to be withdrawn"}},"findMax((address,uint256)[])":{"details":"helper function that finds which pool has to have the most money withdrawn","params":{"_rebalance":"- rebalancing array "}},"getConcentration(address)":{"details":"function to get the current concentration of a specific pool","params":{"pool":"- pool to fnd concentration of "}},"getNewConcentration(address,uint256)":{"details":"function to get the concentration of certain pool when a certain amount is added to the pool","params":{"amount":"- amount to be added to pool","pool":"- pool to find concentration of"}},"getTotalAUMinUSD()":{"details":"function to get the total USD value of all assets in the protocol iterates through all the pools to get their usd value and adds all the values together"},"liquidityCheck(uint256)":{"details":"function that finds which pools need to be rebalanced through a withdraw","params":{"_amount":"- how much usd is to be withdrawn Calculates new aum and how much money has to be added/removed from pool to reach the target concentration Checks which pool have to have money removed (and how much) and adds them to the array "}},"setFactory(address)":{"details":"function to set the factory address","params":{"_factory":"(address of the factory)"}},"setTargetConcentration(address,uint256)":{"details":"function to update the target concentration of a specific pool ","params":{"_pool":"- address of tokenPool","_target":"- value of target concentration"}},"tokensToWithdraw(uint256)":{"details":"function to get the pools to withdraw from and the amount to withdraw from each pool","params":{"_amount":"- amount in usd to be withdrawn"}}},"version":1},"opcodes":"PUSH1 0x80 PUSH1 0x40 MSTORE CALLVALUE DUP1 ISZERO PUSH2 0x10 JUMPI PUSH1 0x0 DUP1 REVERT JUMPDEST POP PUSH1 0x4 CALLDATASIZE LT PUSH2 0x10A JUMPI PUSH1 0x0 CALLDATALOAD PUSH1 0xE0 SHR DUP1 PUSH4 0x8DA5CB5B GT PUSH2 0xA2 JUMPI DUP1 PUSH4 0xAC73B1BB GT PUSH2 0x71 JUMPI DUP1 PUSH4 0xAC73B1BB EQ PUSH2 0x28C JUMPI DUP1 PUSH4 0xBCCC01BA EQ PUSH2 0x2B5 JUMPI DUP1 PUSH4 0xC0F1CCE5 EQ PUSH2 0x2BD JUMPI DUP1 PUSH4 0xC45A0155 EQ PUSH2 0x2D0 JUMPI DUP1 PUSH4 0xD04238EE EQ PUSH2 0x2E3 JUMPI PUSH1 0x0 DUP1 REVERT JUMPDEST DUP1 PUSH4 0x8DA5CB5B EQ PUSH2 0x22A JUMPI DUP1 PUSH4 0x989796B5 EQ PUSH2 0x23D JUMPI DUP1 PUSH4 0x9A9F3E35 EQ PUSH2 0x266 JUMPI DUP1 PUSH4 0x9B765339 EQ PUSH2 0x279 JUMPI PUSH1 0x0 DUP1 REVERT JUMPDEST DUP1 PUSH4 0x3F41ADDD GT PUSH2 0xDE JUMPI DUP1 PUSH4 0x3F41ADDD EQ PUSH2 0x1BC JUMPI DUP1 PUSH4 0x55BE04AD EQ PUSH2 0x1DD JUMPI DUP1 PUSH4 0x5BB47808 EQ PUSH2 0x1F5 JUMPI DUP1 PUSH4 0x675C7C71 EQ PUSH2 0x20A JUMPI PUSH1 0x0 DUP1 REVERT JUMPDEST DUP1 PUSH3 0xC0F916 EQ PUSH2 0x10F JUMPI DUP1 PUSH4 0x29857FD1 EQ PUSH2 0x13F JUMPI DUP1 PUSH4 0x2DB20886 EQ PUSH2 0x15F JUMPI DUP1 PUSH4 0x3E85D5F0 EQ PUSH2 0x19B JUMPI JUMPDEST PUSH1 0x0 DUP1 REVERT JUMPDEST PUSH2 0x122 PUSH2 0x11D CALLDATASIZE PUSH1 0x4 PUSH2 0xC2D JUMP JUMPDEST PUSH2 0x2F6 JUMP JUMPDEST PUSH1 0x40 MLOAD PUSH1 0x1 PUSH1 0x1 PUSH1 0xA0 SHL SUB SWAP1 SWAP2 AND DUP2 MSTORE PUSH1 0x20 ADD JUMPDEST PUSH1 0x40 MLOAD DUP1 SWAP2 SUB SWAP1 RETURN JUMPDEST PUSH2 0x152 PUSH2 0x14D CALLDATASIZE PUSH1 0x4 PUSH2 0xC2D JUMP JUMPDEST PUSH2 0x320 JUMP JUMPDEST PUSH1 0x40 MLOAD PUSH2 0x136 SWAP2 SWAP1 PUSH2 0xC46 JUMP JUMPDEST PUSH2 0x172 PUSH2 0x16D CALLDATASIZE PUSH1 0x4 PUSH2 0xD32 JUMP JUMPDEST PUSH2 0x51D JUMP JUMPDEST PUSH1 0x40 DUP1 MLOAD DUP4 MLOAD PUSH1 0x1 PUSH1 0x1 PUSH1 0xA0 SHL SUB AND DUP2 MSTORE PUSH1 0x20 SWAP4 DUP5 ADD MLOAD SWAP4 DUP2 ADD SWAP4 SWAP1 SWAP4 MSTORE DUP3 ADD MSTORE PUSH1 0x60 ADD PUSH2 0x136 JUMP JUMPDEST PUSH2 0x1AE PUSH2 0x1A9 CALLDATASIZE PUSH1 0x4 PUSH2 0xE06 JUMP JUMPDEST PUSH2 0x5BB JUMP JUMPDEST PUSH1 0x40 MLOAD SWAP1 DUP2 MSTORE PUSH1 0x20 ADD PUSH2 0x136 JUMP JUMPDEST PUSH2 0x1CF PUSH2 0x1CA CALLDATASIZE PUSH1 0x4 PUSH2 0xC2D JUMP JUMPDEST PUSH2 0x65C JUMP JUMPDEST PUSH1 0x40 MLOAD PUSH2 0x136 SWAP3 SWAP2 SWAP1 PUSH2 0xE28 JUMP JUMPDEST PUSH2 0x1E5 PUSH2 0x677 JUMP JUMPDEST PUSH1 0x40 MLOAD SWAP1 ISZERO ISZERO DUP2 MSTORE PUSH1 0x20 ADD PUSH2 0x136 JUMP JUMPDEST PUSH2 0x208 PUSH2 0x203 CALLDATASIZE PUSH1 0x4 PUSH2 0xE06 JUMP JUMPDEST PUSH2 0x712 JUMP JUMPDEST STOP JUMPDEST PUSH2 0x1AE PUSH2 0x218 CALLDATASIZE PUSH1 0x4 PUSH2 0xE06 JUMP JUMPDEST PUSH1 0x5 PUSH1 0x20 MSTORE PUSH1 0x0 SWAP1 DUP2 MSTORE PUSH1 0x40 SWAP1 KECCAK256 SLOAD DUP2 JUMP JUMPDEST PUSH1 0x0 SLOAD PUSH2 0x122 SWAP1 PUSH1 0x1 PUSH1 0x1 PUSH1 0xA0 SHL SUB AND DUP2 JUMP JUMPDEST PUSH2 0x122 PUSH2 0x24B CALLDATASIZE PUSH1 0x4 PUSH2 0xE06 JUMP JUMPDEST PUSH1 0x3 PUSH1 0x20 MSTORE PUSH1 0x0 SWAP1 DUP2 MSTORE PUSH1 0x40 SWAP1 KECCAK256 SLOAD PUSH1 0x1 PUSH1 0x1 PUSH1 0xA0 SHL SUB AND DUP2 JUMP JUMPDEST PUSH2 0x1CF PUSH2 0x274 CALLDATASIZE PUSH1 0x4 PUSH2 0xC2D JUMP JUMPDEST PUSH2 0x75F JUMP JUMPDEST PUSH2 0x208 PUSH2 0x287 CALLDATASIZE PUSH1 0x4 PUSH2 0xEAC JUMP JUMPDEST PUSH2 0x989 JUMP JUMPDEST PUSH2 0x122 PUSH2 0x29A CALLDATASIZE PUSH1 0x4 PUSH2 0xE06 JUMP JUMPDEST PUSH1 0x4 PUSH1 0x20 MSTORE PUSH1 0x0 SWAP1 DUP2 MSTORE PUSH1 0x40 SWAP1 KECCAK256 SLOAD PUSH1 0x1 PUSH1 0x1 PUSH1 0xA0 SHL SUB AND DUP2 JUMP JUMPDEST PUSH2 0x1AE PUSH2 0xA79 JUMP JUMPDEST PUSH2 0x1AE PUSH2 0x2CB CALLDATASIZE PUSH1 0x4 PUSH2 0xEE8 JUMP JUMPDEST PUSH2 0xB39 JUMP JUMPDEST PUSH1 0x2 SLOAD PUSH2 0x122 SWAP1 PUSH1 0x1 PUSH1 0x1 PUSH1 0xA0 SHL SUB AND DUP2 JUMP JUMPDEST PUSH2 0x208 PUSH2 0x2F1 CALLDATASIZE PUSH1 0x4 PUSH2 0xEE8 JUMP JUMPDEST PUSH2 0xBE6 JUMP JUMPDEST PUSH1 0x1 DUP2 DUP2 SLOAD DUP2 LT PUSH2 0x306 JUMPI PUSH1 0x0 DUP1 REVERT JUMPDEST PUSH1 0x0 SWAP2 DUP3 MSTORE PUSH1 0x20 SWAP1 SWAP2 KECCAK256 ADD SLOAD PUSH1 0x1 PUSH1 0x1 PUSH1 0xA0 SHL SUB AND SWAP1 POP DUP2 JUMP JUMPDEST PUSH1 0x1 SLOAD PUSH1 0x60 SWAP1 PUSH1 0x0 DUP2 PUSH8 0xFFFFFFFFFFFFFFFF DUP2 GT ISZERO PUSH2 0x341 JUMPI PUSH2 0x341 PUSH2 0xCA6 JUMP JUMPDEST PUSH1 0x40 MLOAD SWAP1 DUP1 DUP3 MSTORE DUP1 PUSH1 0x20 MUL PUSH1 0x20 ADD DUP3 ADD PUSH1 0x40 MSTORE DUP1 ISZERO PUSH2 0x386 JUMPI DUP2 PUSH1 0x20 ADD JUMPDEST PUSH1 0x40 DUP1 MLOAD DUP1 DUP3 ADD SWAP1 SWAP2 MSTORE PUSH1 0x0 DUP1 DUP3 MSTORE PUSH1 0x20 DUP3 ADD MSTORE DUP2 MSTORE PUSH1 0x20 ADD SWAP1 PUSH1 0x1 SWAP1 SUB SWAP1 DUP2 PUSH2 0x35F JUMPI SWAP1 POP JUMPDEST POP SWAP1 POP PUSH1 0x0 PUSH2 0x393 PUSH2 0xA79 JUMP JUMPDEST SWAP1 POP PUSH1 0x0 PUSH2 0x3A1 DUP7 DUP4 PUSH2 0xF28 JUMP JUMPDEST SWAP1 POP PUSH1 0x0 JUMPDEST DUP5 DUP2 LT ISZERO PUSH2 0x512 JUMPI PUSH1 0x0 PUSH1 0x1 DUP3 DUP2 SLOAD DUP2 LT PUSH2 0x3C3 JUMPI PUSH2 0x3C3 PUSH2 0xF3F JUMP JUMPDEST PUSH1 0x0 SWAP2 DUP3 MSTORE PUSH1 0x20 DUP1 DUP4 KECCAK256 SWAP1 SWAP2 ADD SLOAD PUSH1 0x40 DUP1 MLOAD PUSH4 0x1BA2F531 PUSH1 0xE0 SHL DUP2 MSTORE SWAP1 MLOAD PUSH1 0x1 PUSH1 0x1 PUSH1 0xA0 SHL SUB SWAP1 SWAP3 AND SWAP5 POP DUP5 SWAP3 PUSH4 0x1BA2F531 SWAP3 PUSH1 0x4 DUP1 DUP5 ADD SWAP4 DUP3 SWAP1 SUB ADD DUP2 DUP7 GAS STATICCALL ISZERO DUP1 ISZERO PUSH2 0x415 JUMPI RETURNDATASIZE PUSH1 0x0 DUP1 RETURNDATACOPY RETURNDATASIZE PUSH1 0x0 REVERT JUMPDEST POP POP POP POP PUSH1 0x40 MLOAD RETURNDATASIZE PUSH1 0x1F NOT PUSH1 0x1F DUP3 ADD AND DUP3 ADD DUP1 PUSH1 0x40 MSTORE POP DUP2 ADD SWAP1 PUSH2 0x439 SWAP2 SWAP1 PUSH2 0xF55 JUMP JUMPDEST PUSH1 0x1 PUSH1 0x1 PUSH1 0xA0 SHL SUB DUP4 AND PUSH1 0x0 SWAP1 DUP2 MSTORE PUSH1 0x5 PUSH1 0x20 MSTORE PUSH1 0x40 DUP2 KECCAK256 SLOAD SWAP2 SWAP3 POP PUSH3 0xF4240 PUSH2 0x463 DUP4 DUP9 PUSH2 0xF6E JUMP JUMPDEST PUSH2 0x46D SWAP2 SWAP1 PUSH2 0xF8D JUMP JUMPDEST SWAP1 POP DUP1 DUP4 GT ISZERO PUSH2 0x4C6 JUMPI PUSH1 0x0 PUSH2 0x483 DUP3 DUP6 PUSH2 0xF28 JUMP JUMPDEST SWAP1 POP PUSH1 0x40 MLOAD DUP1 PUSH1 0x40 ADD PUSH1 0x40 MSTORE DUP1 DUP7 PUSH1 0x1 PUSH1 0x1 PUSH1 0xA0 SHL SUB AND DUP2 MSTORE PUSH1 0x20 ADD DUP3 DUP2 MSTORE POP DUP10 DUP8 DUP2 MLOAD DUP2 LT PUSH2 0x4B5 JUMPI PUSH2 0x4B5 PUSH2 0xF3F JUMP JUMPDEST PUSH1 0x20 MUL PUSH1 0x20 ADD ADD DUP2 SWAP1 MSTORE POP POP PUSH2 0x503 JUMP JUMPDEST PUSH1 0x40 MLOAD DUP1 PUSH1 0x40 ADD PUSH1 0x40 MSTORE DUP1 DUP6 PUSH1 0x1 PUSH1 0x1 PUSH1 0xA0 SHL SUB AND DUP2 MSTORE PUSH1 0x20 ADD PUSH1 0x0 DUP2 MSTORE POP DUP9 DUP7 DUP2 MLOAD DUP2 LT PUSH2 0x4F7 JUMPI PUSH2 0x4F7 PUSH2 0xF3F JUMP JUMPDEST PUSH1 0x20 MUL PUSH1 0x20 ADD ADD DUP2 SWAP1 MSTORE POP JUMPDEST DUP5 PUSH1 0x1 ADD SWAP5 POP POP POP POP POP PUSH2 0x3A6 JUMP JUMPDEST POP SWAP2 SWAP6 SWAP5 POP POP POP POP POP JUMP JUMPDEST PUSH1 0x40 DUP1 MLOAD DUP1 DUP3 ADD SWAP1 SWAP2 MSTORE PUSH1 0x0 DUP1 DUP3 MSTORE PUSH1 0x20 DUP3 ADD MSTORE DUP2 MLOAD PUSH1 0x0 SWAP1 DUP2 DUP1 DUP1 JUMPDEST DUP4 DUP2 LT ISZERO PUSH2 0x593 JUMPI DUP7 DUP2 DUP2 MLOAD DUP2 LT PUSH2 0x554 JUMPI PUSH2 0x554 PUSH2 0xF3F JUMP JUMPDEST PUSH1 0x20 MUL PUSH1 0x20 ADD ADD MLOAD PUSH1 0x20 ADD MLOAD DUP4 LT ISZERO PUSH2 0x58B JUMPI DUP7 DUP2 DUP2 MLOAD DUP2 LT PUSH2 0x579 JUMPI PUSH2 0x579 PUSH2 0xF3F JUMP JUMPDEST PUSH1 0x20 MUL PUSH1 0x20 ADD ADD MLOAD PUSH1 0x20 ADD MLOAD SWAP3 POP DUP1 SWAP2 POP JUMPDEST PUSH1 0x1 ADD PUSH2 0x53A JUMP JUMPDEST POP DUP6 DUP2 DUP2 MLOAD DUP2 LT PUSH2 0x5A6 JUMPI PUSH2 0x5A6 PUSH2 0xF3F JUMP JUMPDEST PUSH1 0x20 MUL PUSH1 0x20 ADD ADD MLOAD DUP2 SWAP5 POP SWAP5 POP POP POP POP SWAP2 POP SWAP2 JUMP JUMPDEST PUSH1 0x0 DUP1 PUSH2 0x5C6 PUSH2 0xA79 JUMP JUMPDEST SWAP1 POP PUSH1 0x0 DUP4 PUSH1 0x1 PUSH1 0x1 PUSH1 0xA0 SHL SUB AND PUSH4 0x1BA2F531 PUSH1 0x40 MLOAD DUP2 PUSH4 0xFFFFFFFF AND PUSH1 0xE0 SHL DUP2 MSTORE PUSH1 0x4 ADD PUSH1 0x20 PUSH1 0x40 MLOAD DUP1 DUP4 SUB DUP2 DUP7 GAS STATICCALL ISZERO DUP1 ISZERO PUSH2 0x608 JUMPI RETURNDATASIZE PUSH1 0x0 DUP1 RETURNDATACOPY RETURNDATASIZE PUSH1 0x0 REVERT JUMPDEST POP POP POP POP PUSH1 0x40 MLOAD RETURNDATASIZE PUSH1 0x1F NOT PUSH1 0x1F DUP3 ADD AND DUP3 ADD DUP1 PUSH1 0x40 MSTORE POP DUP2 ADD SWAP1 PUSH2 0x62C SWAP2 SWAP1 PUSH2 0xF55 JUMP JUMPDEST SWAP1 POP DUP2 ISZERO PUSH2 0x651 JUMPI DUP2 PUSH2 0x642 PUSH3 0xF4240 DUP4 PUSH2 0xF6E JUMP JUMPDEST PUSH2 0x64C SWAP2 SWAP1 PUSH2 0xF8D JUMP JUMPDEST PUSH2 0x654 JUMP JUMPDEST PUSH1 0x0 JUMPDEST SWAP5 SWAP4 POP POP POP POP JUMP JUMPDEST PUSH1 0x60 DUP1 PUSH1 0x0 DUP1 PUSH2 0x66B DUP6 PUSH2 0x75F JUMP JUMPDEST SWAP1 SWAP7 SWAP1 SWAP6 POP SWAP4 POP POP POP POP JUMP JUMPDEST PUSH1 0x1 SLOAD PUSH1 0x0 SWAP1 DUP2 JUMPDEST DUP2 DUP2 LT ISZERO PUSH2 0x709 JUMPI PUSH1 0x0 PUSH1 0x1 DUP3 DUP2 SLOAD DUP2 LT PUSH2 0x69C JUMPI PUSH2 0x69C PUSH2 0xF3F JUMP JUMPDEST PUSH1 0x0 SWAP2 DUP3 MSTORE PUSH1 0x20 DUP3 KECCAK256 ADD SLOAD PUSH1 0x1 PUSH1 0x1 PUSH1 0xA0 SHL SUB AND SWAP2 POP PUSH2 0x6BB DUP3 PUSH2 0x5BB JUMP JUMPDEST PUSH1 0x1 PUSH1 0x1 PUSH1 0xA0 SHL SUB DUP4 AND PUSH1 0x0 SWAP1 DUP2 MSTORE PUSH1 0x5 PUSH1 0x20 MSTORE PUSH1 0x40 DUP2 KECCAK256 SLOAD SWAP2 SWAP3 POP SWAP1 PUSH2 0x6E2 SWAP1 DUP4 PUSH2 0xFAF JUMP JUMPDEST SWAP1 POP PUSH3 0x7A120 DUP2 SGT ISZERO PUSH2 0x6FB JUMPI PUSH1 0x1 SWAP6 POP POP POP POP POP POP SWAP1 JUMP JUMPDEST DUP4 PUSH1 0x1 ADD SWAP4 POP POP POP POP PUSH2 0x67F JUMP JUMPDEST POP PUSH1 0x0 SWAP2 POP POP SWAP1 JUMP JUMPDEST PUSH1 0x0 SLOAD PUSH1 0x1 PUSH1 0x1 PUSH1 0xA0 SHL SUB AND CALLER EQ PUSH2 0x73D JUMPI PUSH1 0x40 MLOAD PUSH4 0xDA476DD7 PUSH1 0xE0 SHL DUP2 MSTORE PUSH1 0x4 ADD PUSH1 0x40 MLOAD DUP1 SWAP2 SUB SWAP1 REVERT JUMPDEST PUSH1 0x2 DUP1 SLOAD PUSH1 0x1 PUSH1 0x1 PUSH1 0xA0 SHL SUB NOT AND PUSH1 0x1 PUSH1 0x1 PUSH1 0xA0 SHL SUB SWAP3 SWAP1 SWAP3 AND SWAP2 SWAP1 SWAP2 OR SWAP1 SSTORE JUMP JUMPDEST PUSH1 0x60 DUP1 PUSH1 0x0 PUSH2 0x76D DUP5 PUSH2 0x320 JUMP JUMPDEST DUP1 MLOAD SWAP1 SWAP2 POP PUSH1 0x0 DUP2 PUSH8 0xFFFFFFFFFFFFFFFF DUP2 GT ISZERO PUSH2 0x78D JUMPI PUSH2 0x78D PUSH2 0xCA6 JUMP JUMPDEST PUSH1 0x40 MLOAD SWAP1 DUP1 DUP3 MSTORE DUP1 PUSH1 0x20 MUL PUSH1 0x20 ADD DUP3 ADD PUSH1 0x40 MSTORE DUP1 ISZERO PUSH2 0x7B6 JUMPI DUP2 PUSH1 0x20 ADD PUSH1 0x20 DUP3 MUL DUP1 CALLDATASIZE DUP4 CALLDATACOPY ADD SWAP1 POP JUMPDEST POP SWAP1 POP PUSH1 0x0 DUP3 PUSH8 0xFFFFFFFFFFFFFFFF DUP2 GT ISZERO PUSH2 0x7D4 JUMPI PUSH2 0x7D4 PUSH2 0xCA6 JUMP JUMPDEST PUSH1 0x40 MLOAD SWAP1 DUP1 DUP3 MSTORE DUP1 PUSH1 0x20 MUL PUSH1 0x20 ADD DUP3 ADD PUSH1 0x40 MSTORE DUP1 ISZERO PUSH2 0x7FD JUMPI DUP2 PUSH1 0x20 ADD PUSH1 0x20 DUP3 MUL DUP1 CALLDATASIZE DUP4 CALLDATACOPY ADD SWAP1 POP JUMPDEST POP SWAP1 POP PUSH1 0x0 DUP1 JUMPDEST DUP5 DUP2 LT ISZERO PUSH2 0x97B JUMPI PUSH1 0x0 DUP1 PUSH2 0x818 DUP9 PUSH2 0x51D JUMP JUMPDEST SWAP2 POP SWAP2 POP DUP11 DUP5 LT DUP1 ISZERO PUSH2 0x839 JUMPI POP DUP11 DUP3 PUSH1 0x20 ADD MLOAD DUP6 PUSH2 0x837 SWAP2 SWAP1 PUSH2 0xFEE JUMP JUMPDEST GT JUMPDEST ISZERO PUSH2 0x8C9 JUMPI PUSH2 0x848 DUP5 DUP13 PUSH2 0xF28 JUMP JUMPDEST DUP6 DUP5 DUP2 MLOAD DUP2 LT PUSH2 0x85A JUMPI PUSH2 0x85A PUSH2 0xF3F JUMP JUMPDEST PUSH1 0x20 MUL PUSH1 0x20 ADD ADD DUP2 DUP2 MSTORE POP POP DUP2 PUSH1 0x0 ADD MLOAD DUP7 DUP5 DUP2 MLOAD DUP2 LT PUSH2 0x87D JUMPI PUSH2 0x87D PUSH2 0xF3F JUMP JUMPDEST PUSH1 0x20 MUL PUSH1 0x20 ADD ADD SWAP1 PUSH1 0x1 PUSH1 0x1 PUSH1 0xA0 SHL SUB AND SWAP1 DUP2 PUSH1 0x1 PUSH1 0x1 PUSH1 0xA0 SHL SUB AND DUP2 MSTORE POP POP DUP5 DUP4 DUP2 MLOAD DUP2 LT PUSH2 0x8AF JUMPI PUSH2 0x8AF PUSH2 0xF3F JUMP JUMPDEST PUSH1 0x20 MUL PUSH1 0x20 ADD ADD MLOAD DUP5 PUSH2 0x8C2 SWAP2 SWAP1 PUSH2 0xFEE JUMP JUMPDEST SWAP4 POP PUSH2 0x971 JUMP JUMPDEST DUP11 DUP5 LT DUP1 ISZERO PUSH2 0x8E7 JUMPI POP DUP11 DUP3 PUSH1 0x20 ADD MLOAD DUP6 PUSH2 0x8E4 SWAP2 SWAP1 PUSH2 0xFEE JUMP JUMPDEST GT ISZERO JUMPDEST ISZERO PUSH2 0x971 JUMPI DUP2 PUSH1 0x20 ADD MLOAD DUP6 DUP5 DUP2 MLOAD DUP2 LT PUSH2 0x903 JUMPI PUSH2 0x903 PUSH2 0xF3F JUMP JUMPDEST PUSH1 0x20 MUL PUSH1 0x20 ADD ADD DUP2 DUP2 MSTORE POP POP DUP2 PUSH1 0x0 ADD MLOAD DUP7 DUP5 DUP2 MLOAD DUP2 LT PUSH2 0x926 JUMPI PUSH2 0x926 PUSH2 0xF3F JUMP JUMPDEST PUSH1 0x1 PUSH1 0x1 PUSH1 0xA0 SHL SUB SWAP1 SWAP3 AND PUSH1 0x20 SWAP3 DUP4 MUL SWAP2 SWAP1 SWAP2 ADD DUP3 ADD MSTORE DUP3 ADD MLOAD PUSH2 0x94A SWAP1 DUP6 PUSH2 0xFEE JUMP JUMPDEST SWAP4 POP PUSH1 0x0 DUP9 DUP3 DUP2 MLOAD DUP2 LT PUSH2 0x960 JUMPI PUSH2 0x960 PUSH2 0xF3F JUMP JUMPDEST PUSH1 0x20 MUL PUSH1 0x20 ADD ADD MLOAD PUSH1 0x20 ADD DUP2 DUP2 MSTORE POP POP JUMPDEST POP POP PUSH1 0x1 ADD PUSH2 0x804 JUMP JUMPDEST POP SWAP2 SWAP8 SWAP1 SWAP7 POP SWAP5 POP POP POP POP POP JUMP JUMPDEST PUSH1 0x2 SLOAD PUSH1 0x1 PUSH1 0x1 PUSH1 0xA0 SHL SUB AND CALLER EQ PUSH2 0x9F3 JUMPI PUSH1 0x40 MLOAD PUSH3 0x461BCD PUSH1 0xE5 SHL DUP2 MSTORE PUSH1 0x20 PUSH1 0x4 DUP3 ADD MSTORE PUSH1 0x24 DUP1 DUP3 ADD MSTORE PUSH32 0x4F6E6C792074686520666163746F72792063616E2061646420746F6B656E2070 PUSH1 0x44 DUP3 ADD MSTORE PUSH4 0x6F6F6C73 PUSH1 0xE0 SHL PUSH1 0x64 DUP3 ADD MSTORE PUSH1 0x84 ADD PUSH1 0x40 MLOAD DUP1 SWAP2 SUB SWAP1 REVERT JUMPDEST PUSH1 0x1 DUP1 SLOAD DUP1 DUP3 ADD SWAP1 SWAP2 SSTORE PUSH32 0xB10E2D527612073B26EECDFD717E6A320CF44B4AFAC2B0732D9FCBE2B7FA0CF6 ADD DUP1 SLOAD PUSH1 0x1 PUSH1 0x1 PUSH1 0xA0 SHL SUB SWAP5 DUP6 AND PUSH1 0x1 PUSH1 0x1 PUSH1 0xA0 SHL SUB NOT SWAP2 DUP3 AND DUP2 OR SWAP1 SWAP3 SSTORE SWAP3 SWAP1 SWAP4 AND PUSH1 0x0 DUP2 DUP2 MSTORE PUSH1 0x3 PUSH1 0x20 SWAP1 DUP2 MSTORE PUSH1 0x40 DUP1 DUP4 KECCAK256 DUP1 SLOAD DUP8 AND DUP9 OR SWAP1 SSTORE SWAP6 DUP3 MSTORE PUSH1 0x4 DUP2 MSTORE DUP6 DUP3 KECCAK256 DUP1 SLOAD SWAP1 SWAP6 AND SWAP1 SWAP3 OR SWAP1 SWAP4 SSTORE PUSH1 0x5 SWAP1 MSTORE SWAP2 SWAP1 KECCAK256 SSTORE JUMP JUMPDEST PUSH1 0x1 SLOAD PUSH1 0x0 SWAP1 DUP2 SWAP1 DUP2 JUMPDEST DUP2 DUP2 LT ISZERO PUSH2 0xB31 JUMPI PUSH1 0x0 PUSH1 0x1 DUP3 DUP2 SLOAD DUP2 LT PUSH2 0xAA0 JUMPI PUSH2 0xAA0 PUSH2 0xF3F JUMP JUMPDEST PUSH1 0x0 SWAP2 DUP3 MSTORE PUSH1 0x20 DUP1 DUP4 KECCAK256 SWAP1 SWAP2 ADD SLOAD PUSH1 0x40 DUP1 MLOAD PUSH4 0x1BA2F531 PUSH1 0xE0 SHL DUP2 MSTORE SWAP1 MLOAD PUSH1 0x1 PUSH1 0x1 PUSH1 0xA0 SHL SUB SWAP1 SWAP3 AND SWAP5 POP DUP5 SWAP3 PUSH4 0x1BA2F531 SWAP3 PUSH1 0x4 DUP1 DUP5 ADD SWAP4 DUP3 SWAP1 SUB ADD DUP2 DUP7 GAS STATICCALL ISZERO DUP1 ISZERO PUSH2 0xAF2 JUMPI RETURNDATASIZE PUSH1 0x0 DUP1 RETURNDATACOPY RETURNDATASIZE PUSH1 0x0 REVERT JUMPDEST POP POP POP POP PUSH1 0x40 MLOAD RETURNDATASIZE PUSH1 0x1F NOT PUSH1 0x1F DUP3 ADD AND DUP3 ADD DUP1 PUSH1 0x40 MSTORE POP DUP2 ADD SWAP1 PUSH2 0xB16 SWAP2 SWAP1 PUSH2 0xF55 JUMP JUMPDEST SWAP1 POP PUSH2 0xB22 DUP2 DUP7 PUSH2 0xFEE JUMP JUMPDEST SWAP5 POP DUP3 PUSH1 0x1 ADD SWAP3 POP POP POP PUSH2 0xA83 JUMP JUMPDEST POP SWAP1 SWAP3 SWAP2 POP POP JUMP JUMPDEST PUSH1 0x0 DUP1 PUSH2 0xB44 PUSH2 0xA79 JUMP JUMPDEST SWAP1 POP PUSH1 0x0 DUP4 DUP6 PUSH1 0x1 PUSH1 0x1 PUSH1 0xA0 SHL SUB AND PUSH4 0x1BA2F531 PUSH1 0x40 MLOAD DUP2 PUSH4 0xFFFFFFFF AND PUSH1 0xE0 SHL DUP2 MSTORE PUSH1 0x4 ADD PUSH1 0x20 PUSH1 0x40 MLOAD DUP1 DUP4 SUB DUP2 DUP7 GAS STATICCALL ISZERO DUP1 ISZERO PUSH2 0xB87 JUMPI RETURNDATASIZE PUSH1 0x0 DUP1 RETURNDATACOPY RETURNDATASIZE PUSH1 0x0 REVERT JUMPDEST POP POP POP POP PUSH1 0x40 MLOAD RETURNDATASIZE PUSH1 0x1F NOT PUSH1 0x1F DUP3 ADD AND DUP3 ADD DUP1 PUSH1 0x40 MSTORE POP DUP2 ADD SWAP1 PUSH2 0xBAB SWAP2 SWAP1 PUSH2 0xF55 JUMP JUMPDEST PUSH2 0xBB5 SWAP2 SWAP1 PUSH2 0xFEE JUMP JUMPDEST SWAP1 POP DUP2 ISZERO PUSH2 0xBDA JUMPI DUP2 PUSH2 0xBCB PUSH3 0xF4240 DUP4 PUSH2 0xF6E JUMP JUMPDEST PUSH2 0xBD5 SWAP2 SWAP1 PUSH2 0xF8D JUMP JUMPDEST PUSH2 0xBDD JUMP JUMPDEST PUSH1 0x0 JUMPDEST SWAP6 SWAP5 POP POP POP POP POP JUMP JUMPDEST PUSH1 0x0 SLOAD PUSH1 0x1 PUSH1 0x1 PUSH1 0xA0 SHL SUB AND CALLER EQ PUSH2 0xC11 JUMPI PUSH1 0x40 MLOAD PUSH4 0xDA476DD7 PUSH1 0xE0 SHL DUP2 MSTORE PUSH1 0x4 ADD PUSH1 0x40 MLOAD DUP1 SWAP2 SUB SWAP1 REVERT JUMPDEST PUSH1 0x1 PUSH1 0x1 PUSH1 0xA0 SHL SUB SWAP1 SWAP2 AND PUSH1 0x0 SWAP1 DUP2 MSTORE PUSH1 0x5 PUSH1 0x20 MSTORE PUSH1 0x40 SWAP1 KECCAK256 SSTORE JUMP JUMPDEST PUSH1 0x0 PUSH1 0x20 DUP3 DUP5 SUB SLT ISZERO PUSH2 0xC3F JUMPI PUSH1 0x0 DUP1 REVERT JUMPDEST POP CALLDATALOAD SWAP2 SWAP1 POP JUMP JUMPDEST PUSH1 0x20 DUP1 DUP3 MSTORE DUP3 MLOAD DUP3 DUP3 ADD DUP2 SWAP1 MSTORE PUSH1 0x0 SWAP2 SWAP1 PUSH1 0x40 SWAP1 DUP2 DUP6 ADD SWAP1 DUP7 DUP5 ADD DUP6 JUMPDEST DUP3 DUP2 LT ISZERO PUSH2 0xC99 JUMPI PUSH2 0xC89 DUP5 DUP4 MLOAD DUP1 MLOAD PUSH1 0x1 PUSH1 0x1 PUSH1 0xA0 SHL SUB AND DUP3 MSTORE PUSH1 0x20 SWAP1 DUP2 ADD MLOAD SWAP2 ADD MSTORE JUMP JUMPDEST SWAP3 DUP5 ADD SWAP3 SWAP1 DUP6 ADD SWAP1 PUSH1 0x1 ADD PUSH2 0xC63 JUMP JUMPDEST POP SWAP2 SWAP8 SWAP7 POP POP POP POP POP POP POP JUMP JUMPDEST PUSH4 0x4E487B71 PUSH1 0xE0 SHL PUSH1 0x0 MSTORE PUSH1 0x41 PUSH1 0x4 MSTORE PUSH1 0x24 PUSH1 0x0 REVERT JUMPDEST PUSH1 0x40 DUP1 MLOAD SWAP1 DUP2 ADD PUSH8 0xFFFFFFFFFFFFFFFF DUP2 GT DUP3 DUP3 LT OR ISZERO PUSH2 0xCDF JUMPI PUSH2 0xCDF PUSH2 0xCA6 JUMP JUMPDEST PUSH1 0x40 MSTORE SWAP1 JUMP JUMPDEST PUSH1 0x40 MLOAD PUSH1 0x1F DUP3 ADD PUSH1 0x1F NOT AND DUP2 ADD PUSH8 0xFFFFFFFFFFFFFFFF DUP2 GT DUP3 DUP3 LT OR ISZERO PUSH2 0xD0E JUMPI PUSH2 0xD0E PUSH2 0xCA6 JUMP JUMPDEST PUSH1 0x40 MSTORE SWAP2 SWAP1 POP JUMP JUMPDEST DUP1 CALLDATALOAD PUSH1 0x1 PUSH1 0x1 PUSH1 0xA0 SHL SUB DUP2 AND DUP2 EQ PUSH2 0xD2D JUMPI PUSH1 0x0 DUP1 REVERT JUMPDEST SWAP2 SWAP1 POP JUMP JUMPDEST PUSH1 0x0 PUSH1 0x20 DUP1 DUP4 DUP6 SUB SLT ISZERO PUSH2 0xD45 JUMPI PUSH1 0x0 DUP1 REVERT JUMPDEST DUP3 CALLDATALOAD PUSH8 0xFFFFFFFFFFFFFFFF DUP1 DUP3 GT ISZERO PUSH2 0xD5D JUMPI PUSH1 0x0 DUP1 REVERT JUMPDEST DUP2 DUP6 ADD SWAP2 POP DUP6 PUSH1 0x1F DUP4 ADD SLT PUSH2 0xD71 JUMPI PUSH1 0x0 DUP1 REVERT JUMPDEST DUP2 CALLDATALOAD DUP2 DUP2 GT ISZERO PUSH2 0xD83 JUMPI PUSH2 0xD83 PUSH2 0xCA6 JUMP JUMPDEST PUSH2 0xD91 DUP5 DUP3 PUSH1 0x5 SHL ADD PUSH2 0xCE5 JUMP JUMPDEST DUP2 DUP2 MSTORE DUP5 DUP2 ADD SWAP3 POP PUSH1 0x6 SWAP2 SWAP1 SWAP2 SHL DUP4 ADD DUP5 ADD SWAP1 DUP8 DUP3 GT ISZERO PUSH2 0xDB1 JUMPI PUSH1 0x0 DUP1 REVERT JUMPDEST SWAP3 DUP5 ADD SWAP3 JUMPDEST DUP2 DUP5 LT ISZERO PUSH2 0xDFB JUMPI PUSH1 0x40 DUP5 DUP10 SUB SLT ISZERO PUSH2 0xDCF JUMPI PUSH1 0x0 DUP1 DUP2 REVERT JUMPDEST PUSH2 0xDD7 PUSH2 0xCBC JUMP JUMPDEST PUSH2 0xDE0 DUP6 PUSH2 0xD16 JUMP JUMPDEST DUP2 MSTORE DUP5 DUP7 ADD CALLDATALOAD DUP7 DUP3 ADD MSTORE DUP4 MSTORE PUSH1 0x40 SWAP1 SWAP4 ADD SWAP3 SWAP2 DUP5 ADD SWAP2 PUSH2 0xDB6 JUMP JUMPDEST SWAP8 SWAP7 POP POP POP POP POP POP POP JUMP JUMPDEST PUSH1 0x0 PUSH1 0x20 DUP3 DUP5 SUB SLT ISZERO PUSH2 0xE18 JUMPI PUSH1 0x0 DUP1 REVERT JUMPDEST PUSH2 0xE21 DUP3 PUSH2 0xD16 JUMP JUMPDEST SWAP4 SWAP3 POP POP POP JUMP JUMPDEST PUSH1 0x40 DUP1 DUP3 MSTORE DUP4 MLOAD SWAP1 DUP3 ADD DUP2 SWAP1 MSTORE PUSH1 0x0 SWAP1 PUSH1 0x20 SWAP1 PUSH1 0x60 DUP5 ADD SWAP1 DUP3 DUP8 ADD DUP5 JUMPDEST DUP3 DUP2 LT ISZERO PUSH2 0xE6A JUMPI DUP2 MLOAD PUSH1 0x1 PUSH1 0x1 PUSH1 0xA0 SHL SUB AND DUP5 MSTORE SWAP3 DUP5 ADD SWAP3 SWAP1 DUP5 ADD SWAP1 PUSH1 0x1 ADD PUSH2 0xE45 JUMP JUMPDEST POP POP POP DUP4 DUP2 SUB DUP3 DUP6 ADD MSTORE DUP5 MLOAD DUP1 DUP3 MSTORE DUP6 DUP4 ADD SWAP2 DUP4 ADD SWAP1 PUSH1 0x0 JUMPDEST DUP2 DUP2 LT ISZERO PUSH2 0xE9F JUMPI DUP4 MLOAD DUP4 MSTORE SWAP3 DUP5 ADD SWAP3 SWAP2 DUP5 ADD SWAP2 PUSH1 0x1 ADD PUSH2 0xE83 JUMP JUMPDEST POP SWAP1 SWAP8 SWAP7 POP POP POP POP POP POP POP JUMP JUMPDEST PUSH1 0x0 DUP1 PUSH1 0x0 PUSH1 0x60 DUP5 DUP7 SUB SLT ISZERO PUSH2 0xEC1 JUMPI PUSH1 0x0 DUP1 REVERT JUMPDEST PUSH2 0xECA DUP5 PUSH2 0xD16 JUMP JUMPDEST SWAP3 POP PUSH2 0xED8 PUSH1 0x20 DUP6 ADD PUSH2 0xD16 JUMP JUMPDEST SWAP2 POP PUSH1 0x40 DUP5 ADD CALLDATALOAD SWAP1 POP SWAP3 POP SWAP3 POP SWAP3 JUMP JUMPDEST PUSH1 0x0 DUP1 PUSH1 0x40 DUP4 DUP6 SUB SLT ISZERO PUSH2 0xEFB JUMPI PUSH1 0x0 DUP1 REVERT JUMPDEST PUSH2 0xF04 DUP4 PUSH2 0xD16 JUMP JUMPDEST SWAP5 PUSH1 0x20 SWAP4 SWAP1 SWAP4 ADD CALLDATALOAD SWAP4 POP POP POP JUMP JUMPDEST PUSH4 0x4E487B71 PUSH1 0xE0 SHL PUSH1 0x0 MSTORE PUSH1 0x11 PUSH1 0x4 MSTORE PUSH1 0x24 PUSH1 0x0 REVERT JUMPDEST PUSH1 0x0 DUP3 DUP3 LT ISZERO PUSH2 0xF3A JUMPI PUSH2 0xF3A PUSH2 0xF12 JUMP JUMPDEST POP SUB SWAP1 JUMP JUMPDEST PUSH4 0x4E487B71 PUSH1 0xE0 SHL PUSH1 0x0 MSTORE PUSH1 0x32 PUSH1 0x4 MSTORE PUSH1 0x24 PUSH1 0x0 REVERT JUMPDEST PUSH1 0x0 PUSH1 0x20 DUP3 DUP5 SUB SLT ISZERO PUSH2 0xF67 JUMPI PUSH1 0x0 DUP1 REVERT JUMPDEST POP MLOAD SWAP2 SWAP1 POP JUMP JUMPDEST PUSH1 0x0 DUP2 PUSH1 0x0 NOT DIV DUP4 GT DUP3 ISZERO ISZERO AND ISZERO PUSH2 0xF88 JUMPI PUSH2 0xF88 PUSH2 0xF12 JUMP JUMPDEST POP MUL SWAP1 JUMP JUMPDEST PUSH1 0x0 DUP3 PUSH2 0xFAA JUMPI PUSH4 0x4E487B71 PUSH1 0xE0 SHL PUSH1 0x0 MSTORE PUSH1 0x12 PUSH1 0x4 MSTORE PUSH1 0x24 PUSH1 0x0 REVERT JUMPDEST POP DIV SWAP1 JUMP JUMPDEST PUSH1 0x0 DUP1 DUP4 SLT DUP1 ISZERO PUSH1 0x1 PUSH1 0xFF SHL DUP6 ADD DUP5 SLT AND ISZERO PUSH2 0xFCD JUMPI PUSH2 0xFCD PUSH2 0xF12 JUMP JUMPDEST PUSH1 0x1 PUSH1 0x1 PUSH1 0xFF SHL SUB DUP5 ADD DUP4 SGT DUP2 AND ISZERO PUSH2 0xFE8 JUMPI PUSH2 0xFE8 PUSH2 0xF12 JUMP JUMPDEST POP POP SUB SWAP1 JUMP JUMPDEST PUSH1 0x0 DUP3 NOT DUP3 GT ISZERO PUSH2 0x1001 JUMPI PUSH2 0x1001 PUSH2 0xF12 JUMP JUMPDEST POP ADD SWAP1 JUMP INVALID LOG2 PUSH5 0x6970667358 0x22 SLT KECCAK256 PUSH21 0xB3B39CBEB699235646617889D07B89C084D72C3653 0x2F PUSH16 0xCF23052E3334092964736F6C63430008 0xC STOP CALLER ","sha1":"399a2f53a45ac142c7324d2e4cfbd40414c041ef","source":"//SPDX-License-Identifier: MIT\npragma solidity 0.8.12;\n\nimport \"@openzeppelin/contracts/token/ERC20/IERC20.sol\";\nimport \"../interfaces/ITokenPool.sol\";\nimport \"./TokenPool.sol\";\n\ncontract Registry {\n//Variables\naddress public owner;\naddress[] public tokenPools;\naddress public factory; \nmapping (address => address) public tokenToPool;\nmapping (address => address) public PoolToToken;\nmapping (address => uint256) public PoolToConcentration;\nuint256 constant PRECISION = 1e6;\n\n\n//Structs\nstruct Rebalancing {\n    address pool;\n    uint256 amt;\n}\n\n//Errors\nerror Error_Unauthorized();\n\n//Events\nevent ReservePoolDeployed(\n        address indexed poolAddress,\n        address tokenAddress\n    );\n\n//Modifier\nmodifier onlyOwner() {\n        if (msg.sender != owner) {\n            revert Error_Unauthorized();\n        }\n        _;\n    }\n//Constructor\n    constructor(){\n       owner = msg.sender;\n    }\n\n/**\n@dev function to set the factory address\n@param _factory (address of the factory)\n */\n    function setFactory(address _factory) external onlyOwner {\n        factory = _factory;\n    }\n\n/**\n@dev function to add TokenPool to tokenPool array and various mappings\n@param _tokenPool - address of tokenPool\n@param _token - address of token\n@param concentration - value of target concentration \n */\n    function addTokenPool(address _tokenPool, address _token, uint256 concentration) public {\n        require(msg.sender == factory, \"Only the factory can add token pools\");\n        tokenPools.push(_tokenPool);\n        tokenToPool[_token] = _tokenPool;\n        PoolToToken[_tokenPool] = _token;\n        PoolToConcentration[_tokenPool] = concentration;\n    }\n\n/** \n@dev function to update the target concentration of a specific pool \n@param _pool - address of tokenPool\n@param _target - value of target concentration\n */\n    function setTargetConcentration(address _pool, uint256 _target)\n        external\n        onlyOwner\n    {\n        PoolToConcentration[_pool] = _target;\n    }\n\n/**\n@dev function to get the total USD value of all assets in the protocol\niterates through all the pools to get their usd value and adds all the values together\n */\n\n    function getTotalAUMinUSD() public view returns (uint256) {\n        uint256 total = 0;\n        uint256 len = tokenPools.length;\n        for (uint i = 0; i < len;) {\n            address pool = tokenPools[i];  \n            uint256 poolBalance = ITokenPool(pool).getPoolValue();\n            total += poolBalance;\n            unchecked{++i;}\n        }\n        return total;\n    }\n\n/** \n@dev function to get the pools to withdraw from and the amount to withdraw from each pool\n@param _amount - amount in usd to be withdrawn\n */\n    function tokensToWithdraw(uint256 _amount) public view returns (address[] memory, uint256[] memory){\n        (address[] memory pools, uint256[] memory tokenAmt) = checkWithdraw(_amount);\n        return (pools, tokenAmt);\n    }\n\n\n/**\n@dev function that finds which pools need to be rebalanced through a withdraw\n@param _amount - how much usd is to be withdrawn\nCalculates new aum and how much money has to be added/removed from pool to reach the target concentration\nChecks which pool have to have money removed (and how much) and adds them to the array \n */\n    function liquidityCheck(uint256 _amount) public view returns(Rebalancing[] memory)  {\n        uint len = tokenPools.length;\n        Rebalancing[] memory withdraw = new Rebalancing[](len);\n        uint aum = getTotalAUMinUSD();\n        uint newAUM = aum - _amount;\n        for (uint i = 0; i < len;) {\n            address pool = tokenPools[i];\n            uint256 poolBalance = ITokenPool(pool).getPoolValue();\n            uint256 target = PoolToConcentration[pool];\n            uint256 poolTarget = newAUM*target/PRECISION;\n            if(poolBalance > poolTarget){\n                uint256 amt = poolBalance - poolTarget;\n                withdraw[i]=(Rebalancing({pool: pool, amt: amt}));\n            }\n            else{\n                withdraw[i]=(Rebalancing({pool: pool, amt: 0}));\n            }\n            unchecked{++i;}\n        }\n        return withdraw;\n        }\n    \n/**\n@dev function that takes the rebalancing array from liquidityCheck and returns the pools to withdraw from\nand how much to withdraw from each pool\nChecks total amount to be withdraw, finds pools with greatest concentration disparity and takes from those first\n@param _amount - amount to be withdrawn\n */\n    function checkWithdraw(uint _amount)public view returns (address[] memory, uint256[] memory){\n        Rebalancing[] memory withdraw = liquidityCheck(_amount);\n        uint256 len = withdraw.length;\n        address[] memory pool = new address[](len);\n        uint[] memory tokenamt = new uint[](len);\n        uint total = 0;\n        for (uint i; i<len;){\n            (Rebalancing memory max, uint index) = findMax(withdraw);\n            if ((total<_amount)&&(total + max.amt > _amount)){\n                tokenamt[i]= (_amount - total);\n                pool[i] = (max.pool);\n                total += tokenamt[i];\n            }\n            else if ((total<_amount)&&(total + max.amt <= _amount)){\n                tokenamt[i] = (max.amt);\n                pool[i] = (max.pool);\n                total += max.amt;\n                 withdraw[index].amt = 0;\n            }\n            unchecked{++i;}\n           }\n        return (pool, tokenamt);\n    }\n/**\n@dev helper function that finds which pool has to have the most money withdrawn\n@param _rebalance - rebalancing array \n */\n        function findMax (Rebalancing[] memory _rebalance) public pure returns (Rebalancing memory, uint256){ \n        uint256 len = _rebalance.length;\n        uint max = 0;\n        uint index = 0;\n        for (uint i = 0; i<len;){\n            if (max < _rebalance[i].amt){\n                max = _rebalance[i].amt;\n                index = i;\n            }\n            unchecked{++i;}\n        }\n        return (_rebalance[index],index);\n    }\n/**\n@dev function to get the current concentration of a specific pool\n@param pool - pool to fnd concentration of \n */\n\n    function getConcentration(address pool) view public returns(uint){\n            uint256 total = getTotalAUMinUSD();\n            uint256 poolBalance = ITokenPool(pool).getPoolValue();       \n            return total == 0 ? 0 :poolBalance*PRECISION/total;\n        }\n/**\n@dev function to get the concentration of certain pool when a certain amount is added to the pool\n@param pool - pool to find concentration of\n@param amount - amount to be added to pool\n */\n    function getNewConcentration (address pool, uint amount) view public returns (uint){    \n            uint256 total = getTotalAUMinUSD();\n            uint256 poolBalance = ITokenPool(pool).getPoolValue() + amount;       \n            return total == 0 ? 0 :poolBalance*PRECISION/total;\n            \n        }\n/**\n@dev checks if any pool has a concentration more than 5% above/below target concentration\n */\n    function checkDeposit() public view returns (bool){\n        uint len = tokenPools.length;\n        for (uint i = 0; i < len;) {\n            address pool = tokenPools[i];\n            uint currentConcentration = getConcentration(pool);\n            int diff = int(currentConcentration) - int(PoolToConcentration[pool]);\n            if (diff>500000 ){\n                return (true);\n            }\n            unchecked{++i;}\n        }\n        return false;\n    }\n    \n    // function checkDeposit() public returns (Rebalancing[] memory, uint){\n    //     uint len = tokenPools.length;\n    //     Rebalancing[] memory deposit = new Rebalancing[](len);\n    //     uint aum = getTotalAUMinUSD();\n    //     uint total = 0;\n    //     bool severe; \n    //     for (uint i = 0; i < len;) {\n    //         address pool = tokenPools[i];\n    //         uint256 poolBalance = ITokenPool(pool).getPoolValue();\n    //         uint256 target = PoolToConcentration[pool];\n    //         uint256 poolTarget = aum*target/PRECISION;\n    //         if(poolBalance < poolTarget){\n    //             uint256 amt = poolBalance - poolTarget;\n    //             deposit[i]=(Rebalancing({pool: pool, amt: amt}));\n    //             total += amt;\n    //         }\n    //         else{\n    //             deposit[i]=(Rebalancing({pool: pool, amt: 0}));\n    //         }\n    //         unchecked{++i;}\n    //     }\n    //     return (deposit,total);\n        \n    // }\n\n    }\n    \n\n","sourcePath":"contracts/Registry.sol","type":"contract","deployment":{"address":"0x0a680dCf12d7a3977Dd004dCA2a89D78Bd2C93e6","chainid":"5","blockHeight":7566804}}