{"abi":[{"inputs":[{"internalType":"address","name":"_trsy","type":"address"},{"internalType":"address","name":"_registry","type":"address"}],"stateMutability":"nonpayable","type":"constructor","name":"constructor"},{"inputs":[],"name":"Error_Unauthorized","type":"error"},{"inputs":[{"internalType":"uint256","name":"available","type":"uint256"},{"internalType":"uint256","name":"required","type":"uint256"}],"name":"InsufficientBalance","type":"error"},{"anonymous":false,"inputs":[{"indexed":true,"internalType":"address","name":"depositor","type":"address"},{"indexed":false,"internalType":"address","name":"token","type":"address"},{"indexed":false,"internalType":"uint256","name":"amount","type":"uint256"},{"indexed":false,"internalType":"uint256","name":"usdValueDeposited","type":"uint256"},{"indexed":false,"internalType":"uint256","name":"sharesMinted","type":"uint256"}],"name":"TokenDeposited","type":"event"},{"inputs":[],"name":"TRSY","outputs":[{"internalType":"contract TRSYERC20","name":"","type":"address"}],"stateMutability":"view","type":"function"},{"inputs":[{"internalType":"uint256","name":"_amount","type":"uint256"},{"internalType":"address","name":"sender","type":"address"}],"name":"calculateTax","outputs":[{"internalType":"uint256","name":"","type":"uint256"}],"stateMutability":"view","type":"function"},{"inputs":[{"internalType":"uint256","name":"_amount","type":"uint256"},{"internalType":"address","name":"_token","type":"address"}],"name":"deposit","outputs":[],"stateMutability":"nonpayable","type":"function"},{"inputs":[{"internalType":"uint256","name":"_amount","type":"uint256"},{"internalType":"address","name":"_token","type":"address"}],"name":"depositIncentive","outputs":[],"stateMutability":"nonpayable","type":"function"},{"inputs":[{"internalType":"uint256","name":"_amount","type":"uint256"}],"name":"getTRSYAmount","outputs":[{"internalType":"uint256","name":"","type":"uint256"}],"stateMutability":"view","type":"function"},{"inputs":[{"internalType":"uint256","name":"usdamt","type":"uint256"},{"internalType":"address","name":"pool","type":"address"}],"name":"getTokenAmount","outputs":[{"internalType":"uint256","name":"","type":"uint256"}],"stateMutability":"nonpayable","type":"function"},{"inputs":[{"internalType":"uint256","name":"trsyamt","type":"uint256"}],"name":"getWithdrawAmount","outputs":[{"internalType":"uint256","name":"","type":"uint256"}],"stateMutability":"view","type":"function"},{"inputs":[],"name":"incentive","outputs":[{"internalType":"enum Treasury.INCENTIVE","name":"","type":"uint8"}],"stateMutability":"view","type":"function"},{"inputs":[],"name":"incentivize","outputs":[],"stateMutability":"view","type":"function"},{"inputs":[{"internalType":"address","name":"pool","type":"address"},{"internalType":"uint256","name":"amount","type":"uint256"}],"name":"makeConcentrationStruct","outputs":[{"components":[{"internalType":"uint256","name":"currentConcentration","type":"uint256"},{"internalType":"uint256","name":"targetConcentration","type":"uint256"},{"internalType":"uint256","name":"newConcentration","type":"uint256"},{"internalType":"uint256","name":"aum","type":"uint256"}],"internalType":"struct Treasury.Concentrations","name":"","type":"tuple"}],"stateMutability":"view","type":"function"},{"inputs":[],"name":"owner","outputs":[{"internalType":"address","name":"","type":"address"}],"stateMutability":"view","type":"function"},{"inputs":[],"name":"registry","outputs":[{"internalType":"address","name":"","type":"address"}],"stateMutability":"view","type":"function"},{"inputs":[{"internalType":"address","name":"","type":"address"}],"name":"timestamp","outputs":[{"internalType":"uint256","name":"","type":"uint256"}],"stateMutability":"view","type":"function"},{"inputs":[{"internalType":"address","name":"_token","type":"address"}],"name":"whitelistToken","outputs":[],"stateMutability":"nonpayable","type":"function"},{"inputs":[{"internalType":"address","name":"_user","type":"address"}],"name":"whitelistUser","outputs":[],"stateMutability":"nonpayable","type":"function"},{"inputs":[{"internalType":"address","name":"","type":"address"}],"name":"whitelistedTokens","outputs":[{"internalType":"bool","name":"","type":"bool"}],"stateMutability":"view","type":"function"},{"inputs":[{"internalType":"address","name":"","type":"address"}],"name":"whitelistedUsers","outputs":[{"internalType":"bool","name":"","type":"bool"}],"stateMutability":"view","type":"function"},{"inputs":[{"internalType":"uint256","name":"_amount","type":"uint256"}],"name":"withdraw","outputs":[],"stateMutability":"nonpayable","type":"function"}],"bytecode":"60a06040523480156200001157600080fd5b50604051620022a8380380620022a8833981016040819052620000349162000085565b60038054336001600160a01b031991821617909155600480549091166001600160a01b0392831617905516608052620000bd565b80516001600160a01b03811681146200008057600080fd5b919050565b600080604083850312156200009957600080fd5b620000a48362000068565b9150620000b46020840162000068565b90509250929050565b60805161217b6200012d600039600081816101d501528181610398015281816105370152818161069a0152818161071801528181611024015281816110d5015281816115fe0152818161167401528181611840015281816119cc01528181611ac60152611be6015261217b6000f3fe608060405234801561001057600080fd5b50600436106101165760003560e01c80636f3f6e2b116100a2578063bd0e4bdb11610071578063bd0e4bdb146102a1578063daf9c210146102b4578063e445dc43146102e7578063f621cc48146102fa578063fdf6db0f1461031d57600080fd5b80636f3f6e2b146102485780637302dacf1461025b5780637b1039991461027b5780638da5cb5b1461028e57600080fd5b80633999797c116100e95780633999797c1461018a57806345e166bd146101d05780634a4c560d1461020f5780636247f6f2146102225780636e553f651461023557600080fd5b80630e9ff97d1461011b5780631d4632ac146101415780631f39a141146101625780632e1a7d4d14610175575b600080fd5b61012e610129366004611c8a565b610325565b6040519081526020015b60405180910390f35b60045461015590600160a01b900460ff1681565b6040516101389190611cb9565b61012e610170366004611cf9565b610444565b610188610183366004611c8a565b6104ca565b005b61019d610198366004611d29565b610933565b60405161013891908151815260208083015190820152604080830151908201526060918201519181019190915260800190565b6101f77f000000000000000000000000000000000000000000000000000000000000000081565b6040516001600160a01b039091168152602001610138565b61018861021d366004611d55565b610b67565b610188610230366004611d55565b610bb9565b610188610243366004611cf9565b610c08565b610188610256366004611cf9565b61123b565b61012e610269366004611d55565b60006020819052908152604090205481565b6004546101f7906001600160a01b031681565b6003546101f7906001600160a01b031681565b61012e6102af366004611cf9565b611775565b6102d76102c2366004611d55565b60026020526000908152604090205460ff1681565b6040519015158152602001610138565b61012e6102f5366004611c8a565b61183b565b6102d7610308366004611d55565b60016020526000908152604090205460ff1681565b610188611977565b6004805460408051635e6600dd60e11b8152905160009384936001600160a01b03169263bccc01ba92818301926020928290030181865afa15801561036e573d6000803e3d6000fd5b505050506040513d601f19601f820116820180604052508101906103929190611d79565b905060007f00000000000000000000000000000000000000000000000000000000000000006001600160a01b03166318160ddd6040518163ffffffff1660e01b8152600401602060405180830381865afa1580156103f4573d6000803e3d6000fd5b505050506040513d601f19601f820116820180604052508101906104189190611d79565b9050811561043a578161042b8286611da8565b6104359190611ddd565b61043c565b835b949350505050565b600080826001600160a01b03166398d5fdca6040518163ffffffff1660e01b81526004016020604051808303816000875af1158015610487573d6000803e3d6000fd5b505050506040513d601f19601f820116820180604052508101906104ab9190611d79565b9050806104c085670de0b6b3a7640000611da8565b61043c9190611ddd565b6000811161051f5760405162461bcd60e51b815260206004820152601d60248201527f416d6f756e74206d7573742062652067726561746572207468616e203000000060448201526064015b60405180910390fd5b6040516370a0823160e01b81523360048201526000907f00000000000000000000000000000000000000000000000000000000000000006001600160a01b0316906370a0823190602401602060405180830381865afa158015610586573d6000803e3d6000fd5b505050506040513d601f19601f820116820180604052508101906105aa9190611d79565b9050818110156105d75760405163cf47918160e01b81526004810182905260248101839052604401610516565b60006105e38333611775565b905060006105f18285611df1565b905060006105fe8261183b565b60048054604051633f41addd60e01b815291820183905291925060009182916001600160a01b0390911690633f41addd906024016000604051808303816000875af1158015610651573d6000803e3d6000fd5b505050506040513d6000823e601f3d908101601f191682016040526106799190810190611ede565b604051632770a7eb60e21b8152336004820152602481018a905291935091507f00000000000000000000000000000000000000000000000000000000000000006001600160a01b031690639dc29fac90604401600060405180830381600087803b1580156106e657600080fd5b505af11580156106fa573d6000803e3d6000fd5b50506040516340c10f1960e01b8152306004820152602481018890527f00000000000000000000000000000000000000000000000000000000000000006001600160a01b031692506340c10f199150604401600060405180830381600087803b15801561076657600080fd5b505af115801561077a573d6000803e3d6000fd5b505083519150600090505b8181101561088a5760006001600160a01b03168482815181106107aa576107aa611fa3565b60200260200101516001600160a01b0316146108825760008482815181106107d4576107d4611fa3565b60200260200101519050600061081c8584815181106107f5576107f5611fa3565b602002602001015187858151811061080f5761080f611fa3565b6020026020010151610444565b6040516313c5035360e31b8152336004820152602481018290529091506001600160a01b03831690639e281a9890604401600060405180830381600087803b15801561086757600080fd5b505af115801561087b573d6000803e3d6000fd5b5050505050505b600101610785565b5060048054604080516355be04ad60e01b815290516001600160a01b03909216926355be04ad9282820192602092908290030181865afa1580156108d2573d6000803e3d6000fd5b505050506040513d601f19601f820116820180604052508101906108f69190611fb9565b1561090d576004805460ff60a01b19169055610929565b600480546001919060ff60a01b1916600160a01b835b02179055505b5050505050505050565b61095e6040518060800160405280600081526020016000815260200160008152602001600081525090565b6109896040518060800160405280600081526020016000815260200160008152602001600081525090565b600480546040516303e85d5f60e41b81526001600160a01b0387811693820193909352911690633e85d5f090602401602060405180830381865afa1580156109d5573d6000803e3d6000fd5b505050506040513d601f19601f820116820180604052508101906109f99190611d79565b81526004805460405163675c7c7160e01b81526001600160a01b038781169382019390935291169063675c7c7190602401602060405180830381865afa158015610a47573d6000803e3d6000fd5b505050506040513d601f19601f82011682018060405250810190610a6b9190611d79565b60208201526004805460405163c0f1cce560e01b81526001600160a01b03878116938201939093526024810186905291169063c0f1cce590604401602060405180830381865afa158015610ac3573d6000803e3d6000fd5b505050506040513d601f19601f82011682018060405250810190610ae79190611d79565b604080830191909152600480548251635e6600dd60e11b815292516001600160a01b039091169263bccc01ba92818101926020929091908290030181865afa158015610b37573d6000803e3d6000fd5b505050506040513d601f19601f82011682018060405250810190610b5b9190611d79565b60608201529392505050565b6003546001600160a01b03163314610b925760405163da476dd760e01b815260040160405180910390fd5b6001600160a01b03166000908152600160208190526040909120805460ff19169091179055565b6003546001600160a01b03163314610be45760405163da476dd760e01b815260040160405180910390fd5b6001600160a01b03166000908152600260205260409020805460ff19166001179055565b3360009081526001602052604090205460ff16610c675760405162461bcd60e51b815260206004820152601760248201527f55736572206973206e6f742077686974656c69737465640000000000000000006044820152606401610516565b6001600160a01b03811660009081526002602052604090205460ff16610cca5760405162461bcd60e51b8152602060048201526018602482015277151bdad95b881a5cc81b9bdd081dda1a5d195b1a5cdd195960421b6044820152606401610516565b6004805460405163989796b560e01b81526001600160a01b03848116938201939093526000929091169063989796b590602401602060405180830381865afa158015610d1a573d6000803e3d6000fd5b505050506040513d601f19601f82011682018060405250810190610d3e9190611fdb565b6040516337410c5560e11b8152600481018590529091506000906001600160a01b03831690636e8218aa90602401602060405180830381865afa158015610d89573d6000803e3d6000fd5b505050506040513d601f19601f82011682018060405250810190610dad9190611d79565b9050670de0b6b3a76400008111610e065760405162461bcd60e51b815260206004820152601e60248201527f416d6f756e74206d7573742062652067726561746572207468616e20243100006044820152606401610516565b6000610e128383610933565b905069152d02c7e14af68000008160600151118015610e345750606081015115155b15610ea957620f4240816020015162124f80610e509190611da8565b610e5a9190611ddd565b815110610ea95760405162461bcd60e51b815260206004820152601960248201527f436f6e63656e74726174696f6e20697320746f6f2068696768000000000000006044820152606401610516565b6000620f4240610ebb8461c350611da8565b610ec59190611ddd565b905081602001518260400151118015610ee357508151604083015110155b15610f6d5760008260000151836020015110610f4257620f42408084602001518560400151610f129190611df1565b610f1c9087611da8565b610f269190611ddd565b610f3390620124f8611da8565b610f3d9190611ddd565b610f5d565b620f4240610f5385620124f8611da8565b610f5d9190611ddd565b9050610f698183611ff8565b9150505b6000610f7884610325565b90506000610f8583610325565b6040516323b872dd60e01b81523360048201526001600160a01b038881166024830152604482018b90529192506000918916906323b872dd906064016020604051808303816000875af1158015610fe0573d6000803e3d6000fd5b505050506040513d601f19601f820116820180604052508101906110049190611fb9565b90508061101057600080fd5b3360008181526020819052604090204290557f00000000000000000000000000000000000000000000000000000000000000006001600160a01b0316906340c10f199061105d8587611df1565b6040516001600160e01b031960e085901b1681526001600160a01b0390921660048301526024820152604401600060405180830381600087803b1580156110a357600080fd5b505af11580156110b7573d6000803e3d6000fd5b50506040516340c10f1960e01b8152306004820152602481018590527f00000000000000000000000000000000000000000000000000000000000000006001600160a01b031692506340c10f199150604401600060405180830381600087803b15801561112357600080fd5b505af1158015611137573d6000803e3d6000fd5b503392507f71679b5d5f69dff565546f60cee51d6dec03589fa1630f5ef175703477b2113b91508a90508b8961116d8789611df1565b604080516001600160a01b039095168552602085019390935291830152606082015260800160405180910390a260048054604080516355be04ad60e01b815290516001600160a01b03909216926355be04ad9282820192602092908290030181865afa1580156111e1573d6000803e3d6000fd5b505050506040513d601f19601f820116820180604052508101906112059190611fb9565b1561121c576004805460ff60a01b19169055611230565b6004805460ff60a01b1916600160a01b1790555b505050505050505050565b6000600454600160a01b900460ff16600181111561125b5761125b611ca3565b146112785760405162461bcd60e51b815260040161051690612010565b6001600160a01b03811660009081526002602052604090205460ff166112db5760405162461bcd60e51b8152602060048201526018602482015277151bdad95b881a5cc81b9bdd081dda1a5d195b1a5cdd195960421b6044820152606401610516565b6004805460405163989796b560e01b81526001600160a01b03848116938201939093526000929091169063989796b590602401602060405180830381865afa15801561132b573d6000803e3d6000fd5b505050506040513d601f19601f8201168201806040525081019061134f9190611fdb565b6040516337410c5560e11b8152600481018590529091506000906001600160a01b03831690636e8218aa90602401602060405180830381865afa15801561139a573d6000803e3d6000fd5b505050506040513d601f19601f820116820180604052508101906113be9190611d79565b9050670de0b6b3a764000081116114175760405162461bcd60e51b815260206004820152601e60248201527f416d6f756e74206d7573742062652067726561746572207468616e20243100006044820152606401610516565b60006114238383610933565b9050806020015181600001511061148f5760405162461bcd60e51b815260206004820152602a60248201527f506f6f6c20697320616c72656164792061626f76652074617267657420636f6e60448201526931b2b73a3930ba34b7b760b11b6064820152608401610516565b620f424081602001516213d6206114a69190611da8565b6114b09190611ddd565b8160400151106115135760405162461bcd60e51b815260206004820152602860248201527f546869732077696c6c206d616b652074686520706f6f6c20746f6f20636f6e63604482015267195b9d1c985d195960c21b6064820152608401610516565b600061152e8686846040015185600001518660200151611a70565b9050600061153b84610325565b6040516323b872dd60e01b81523360048201526001600160a01b038781166024830152604482018a90529192506000918816906323b872dd906064016020604051808303816000875af1158015611596573d6000803e3d6000fd5b505050506040513d601f19601f820116820180604052508101906115ba9190611fb9565b9050806115c657600080fd5b3360008181526020819052604090819020429055516340c10f1960e01b81526004810191909152602481018390526001600160a01b037f000000000000000000000000000000000000000000000000000000000000000016906340c10f1990604401600060405180830381600087803b15801561164257600080fd5b505af1158015611656573d6000803e3d6000fd5b505060405163a9059cbb60e01b8152336004820152602481018690527f00000000000000000000000000000000000000000000000000000000000000006001600160a01b0316925063a9059cbb91506044016020604051808303816000875af11580156116c7573d6000803e3d6000fd5b505050506040513d601f19601f820116820180604052508101906116eb9190611fb9565b5060048054604080516355be04ad60e01b815290516001600160a01b03909216926355be04ad9282820192602092908290030181865afa158015611733573d6000803e3d6000fd5b505050506040513d601f19601f820116820180604052508101906117579190611fb9565b61092957600480546001919060ff60a01b1916600160a01b83610923565b600080620f42406117888561c350611da8565b6117929190611ddd565b6001600160a01b038416600090815260208190526040812054919250906117b99042611df1565b905060006117ca6201518083611ddd565b9050601e811361183157600062030d40601e6117e68483612053565b6117f091906120d8565b6117fa9190612106565b905060006118088282612106565b9050620f4240611818828a611da8565b6118229190611ddd565b61182c9086611ff8565b945050505b5090949350505050565b6000807f00000000000000000000000000000000000000000000000000000000000000006001600160a01b03166318160ddd6040518163ffffffff1660e01b8152600401602060405180830381865afa15801561189c573d6000803e3d6000fd5b505050506040513d601f19601f820116820180604052508101906118c09190611d79565b6118cd84620f4240611da8565b6118d79190611ddd565b90506000600460009054906101000a90046001600160a01b03166001600160a01b031663bccc01ba6040518163ffffffff1660e01b8152600401602060405180830381865afa15801561192e573d6000803e3d6000fd5b505050506040513d601f19601f820116820180604052508101906119529190611d79565b90506000620f42406119648484611da8565b61196e9190611ddd565b95945050505050565b6000600454600160a01b900460ff16600181111561199757611997611ca3565b146119b45760405162461bcd60e51b815260040161051690612010565b6040516370a0823160e01b81523060048201526000907f00000000000000000000000000000000000000000000000000000000000000006001600160a01b0316906370a0823190602401602060405180830381865afa158015611a1b573d6000803e3d6000fd5b505050506040513d601f19601f82011682018060405250810190611a3f9190611d79565b90506000611a4c8261183b565b9050600061c350611a60620f424084611da8565b611a6a9190611ddd565b50505050565b600080600454600160a01b900460ff166001811115611a9157611a91611ca3565b14611aae5760405162461bcd60e51b815260040161051690612010565b6040516370a0823160e01b81523060048201526000907f00000000000000000000000000000000000000000000000000000000000000006001600160a01b0316906370a0823190602401602060405180830381865afa158015611b15573d6000803e3d6000fd5b505050506040513d601f19601f82011682018060405250810190611b399190611d79565b90506000611b468261183b565b9050600061c350611b5a620f424084611da8565b611b649190611ddd565b6040516337410c5560e11b8152600481018b90529091506000906001600160a01b038a1690636e8218aa90602401602060405180830381865afa158015611baf573d6000803e3d6000fd5b505050506040513d601f19601f82011682018060405250810190611bd39190611d79565b90506000611be082610325565b905060007f00000000000000000000000000000000000000000000000000000000000000006001600160a01b03166318160ddd6040518163ffffffff1660e01b8152600401602060405180830381865afa158015611c42573d6000803e3d6000fd5b505050506040513d601f19601f82011682018060405250810190611c669190611d79565b611c708786611da8565b611c7a9190611ddd565b9c9b505050505050505050505050565b600060208284031215611c9c57600080fd5b5035919050565b634e487b7160e01b600052602160045260246000fd5b6020810160028310611cdb57634e487b7160e01b600052602160045260246000fd5b91905290565b6001600160a01b0381168114611cf657600080fd5b50565b60008060408385031215611d0c57600080fd5b823591506020830135611d1e81611ce1565b809150509250929050565b60008060408385031215611d3c57600080fd5b8235611d4781611ce1565b946020939093013593505050565b600060208284031215611d6757600080fd5b8135611d7281611ce1565b9392505050565b600060208284031215611d8b57600080fd5b5051919050565b634e487b7160e01b600052601160045260246000fd5b6000816000190483118215151615611dc257611dc2611d92565b500290565b634e487b7160e01b600052601260045260246000fd5b600082611dec57611dec611dc7565b500490565b600082821015611e0357611e03611d92565b500390565b634e487b7160e01b600052604160045260246000fd5b604051601f8201601f1916810167ffffffffffffffff81118282101715611e4757611e47611e08565b604052919050565b600067ffffffffffffffff821115611e6957611e69611e08565b5060051b60200190565b600082601f830112611e8457600080fd5b81516020611e99611e9483611e4f565b611e1e565b82815260059290921b84018101918181019086841115611eb857600080fd5b8286015b84811015611ed35780518352918301918301611ebc565b509695505050505050565b60008060408385031215611ef157600080fd5b825167ffffffffffffffff80821115611f0957600080fd5b818501915085601f830112611f1d57600080fd5b81516020611f2d611e9483611e4f565b82815260059290921b84018101918181019089841115611f4c57600080fd5b948201945b83861015611f73578551611f6481611ce1565b82529482019490820190611f51565b91880151919650909350505080821115611f8c57600080fd5b50611f9985828601611e73565b9150509250929050565b634e487b7160e01b600052603260045260246000fd5b600060208284031215611fcb57600080fd5b81518015158114611d7257600080fd5b600060208284031215611fed57600080fd5b8151611d7281611ce1565b6000821982111561200b5761200b611d92565b500190565b60208082526023908201527f5468657265206973206e6f20696e63656e7469766520617420746865206d6f6d604082015262195b9d60ea1b606082015260800190565b60006001600160ff1b038184138284138082168684048611161561207957612079611d92565b600160ff1b600087128281168783058912161561209857612098611d92565b600087129250878205871284841616156120b4576120b4611d92565b878505871281841616156120ca576120ca611d92565b505050929093029392505050565b6000826120e7576120e7611dc7565b600160ff1b82146000198414161561210157612101611d92565b500590565b60008083128015600160ff1b85018412161561212457612124611d92565b6001600160ff1b038401831381161561213f5761213f611d92565b5050039056fea26469706673582212204cad5b11f2aa7fdb79246d21368e8f53c30244edcf8907fb70cde8972e3a031d64736f6c634300080c0033","bytecodeSha1":"ca35981213fa2f0fdce495a600146842f92be943","compiler":{"evm_version":"istanbul","optimizer":{"enabled":true,"runs":200},"version":"0.8.12+commit.f00d7308"},"contractName":"Treasury","language":"Solidity","natspec":{"kind":"dev","methods":{"calculateTax(uint256,address)":{"details":"function  that calculates how much tax a user will pay on a withdrawal","params":{"_amount":"- amount of TRSY to be withdrawn","sender":"- user that is withdrawing"}},"deposit(uint256,address)":{"details":"function that allows a whitelisted user to deposit a whitelisted token into the treasury in exchange for TRSY","params":{"_amount":"- amount of token to be deposited","_token":"- token to be deposited"}},"getTRSYAmount(uint256)":{"details":"function to get how much TRSY a user will get for a certain amount of USD","params":{"_amount":"- amount of USD to be converted to TRSY"}},"getTokenAmount(uint256,address)":{"details":"calculate how many tokens a certain usd amount is worth ","params":{"pool":"- tokenPool","usdamt":"- dollar amount"}},"getWithdrawAmount(uint256)":{"details":"function to convert TRSY to usd","params":{"trsyamt":"- trsy amount "}},"makeConcentrationStruct(address,uint256)":{"details":"function that makes a concentration struct by calculating the new, current, aum and target concentration ","params":{"amount":"- new amount to be added to pool","pool":"- pool to make the struct for"}},"whitelistToken(address)":{"details":"function that adds a token to the whitelist"},"whitelistUser(address)":{"details":"function that adds a user to the whitelist"},"withdraw(uint256)":{"details":"function that allows a user to withdraw TRSY","params":{"_amount":"- amount of treasury to be withdrawn "}}},"version":1},"opcodes":"PUSH1 0x80 PUSH1 0x40 MSTORE CALLVALUE DUP1 ISZERO PUSH2 0x10 JUMPI PUSH1 0x0 DUP1 REVERT JUMPDEST POP PUSH1 0x4 CALLDATASIZE LT PUSH2 0x116 JUMPI PUSH1 0x0 CALLDATALOAD PUSH1 0xE0 SHR DUP1 PUSH4 0x6F3F6E2B GT PUSH2 0xA2 JUMPI DUP1 PUSH4 0xBD0E4BDB GT PUSH2 0x71 JUMPI DUP1 PUSH4 0xBD0E4BDB EQ PUSH2 0x2A1 JUMPI DUP1 PUSH4 0xDAF9C210 EQ PUSH2 0x2B4 JUMPI DUP1 PUSH4 0xE445DC43 EQ PUSH2 0x2E7 JUMPI DUP1 PUSH4 0xF621CC48 EQ PUSH2 0x2FA JUMPI DUP1 PUSH4 0xFDF6DB0F EQ PUSH2 0x31D JUMPI PUSH1 0x0 DUP1 REVERT JUMPDEST DUP1 PUSH4 0x6F3F6E2B EQ PUSH2 0x248 JUMPI DUP1 PUSH4 0x7302DACF EQ PUSH2 0x25B JUMPI DUP1 PUSH4 0x7B103999 EQ PUSH2 0x27B JUMPI DUP1 PUSH4 0x8DA5CB5B EQ PUSH2 0x28E JUMPI PUSH1 0x0 DUP1 REVERT JUMPDEST DUP1 PUSH4 0x3999797C GT PUSH2 0xE9 JUMPI DUP1 PUSH4 0x3999797C EQ PUSH2 0x18A JUMPI DUP1 PUSH4 0x45E166BD EQ PUSH2 0x1D0 JUMPI DUP1 PUSH4 0x4A4C560D EQ PUSH2 0x20F JUMPI DUP1 PUSH4 0x6247F6F2 EQ PUSH2 0x222 JUMPI DUP1 PUSH4 0x6E553F65 EQ PUSH2 0x235 JUMPI PUSH1 0x0 DUP1 REVERT JUMPDEST DUP1 PUSH4 0xE9FF97D EQ PUSH2 0x11B JUMPI DUP1 PUSH4 0x1D4632AC EQ PUSH2 0x141 JUMPI DUP1 PUSH4 0x1F39A141 EQ PUSH2 0x162 JUMPI DUP1 PUSH4 0x2E1A7D4D EQ PUSH2 0x175 JUMPI JUMPDEST PUSH1 0x0 DUP1 REVERT JUMPDEST PUSH2 0x12E PUSH2 0x129 CALLDATASIZE PUSH1 0x4 PUSH2 0x1C8A JUMP JUMPDEST PUSH2 0x325 JUMP JUMPDEST PUSH1 0x40 MLOAD SWAP1 DUP2 MSTORE PUSH1 0x20 ADD JUMPDEST PUSH1 0x40 MLOAD DUP1 SWAP2 SUB SWAP1 RETURN JUMPDEST PUSH1 0x4 SLOAD PUSH2 0x155 SWAP1 PUSH1 0x1 PUSH1 0xA0 SHL SWAP1 DIV PUSH1 0xFF AND DUP2 JUMP JUMPDEST PUSH1 0x40 MLOAD PUSH2 0x138 SWAP2 SWAP1 PUSH2 0x1CB9 JUMP JUMPDEST PUSH2 0x12E PUSH2 0x170 CALLDATASIZE PUSH1 0x4 PUSH2 0x1CF9 JUMP JUMPDEST PUSH2 0x444 JUMP JUMPDEST PUSH2 0x188 PUSH2 0x183 CALLDATASIZE PUSH1 0x4 PUSH2 0x1C8A JUMP JUMPDEST PUSH2 0x4CA JUMP JUMPDEST STOP JUMPDEST PUSH2 0x19D PUSH2 0x198 CALLDATASIZE PUSH1 0x4 PUSH2 0x1D29 JUMP JUMPDEST PUSH2 0x933 JUMP JUMPDEST PUSH1 0x40 MLOAD PUSH2 0x138 SWAP2 SWAP1 DUP2 MLOAD DUP2 MSTORE PUSH1 0x20 DUP1 DUP4 ADD MLOAD SWAP1 DUP3 ADD MSTORE PUSH1 0x40 DUP1 DUP4 ADD MLOAD SWAP1 DUP3 ADD MSTORE PUSH1 0x60 SWAP2 DUP3 ADD MLOAD SWAP2 DUP2 ADD SWAP2 SWAP1 SWAP2 MSTORE PUSH1 0x80 ADD SWAP1 JUMP JUMPDEST PUSH2 0x1F7 PUSH32 0x0 DUP2 JUMP JUMPDEST PUSH1 0x40 MLOAD PUSH1 0x1 PUSH1 0x1 PUSH1 0xA0 SHL SUB SWAP1 SWAP2 AND DUP2 MSTORE PUSH1 0x20 ADD PUSH2 0x138 JUMP JUMPDEST PUSH2 0x188 PUSH2 0x21D CALLDATASIZE PUSH1 0x4 PUSH2 0x1D55 JUMP JUMPDEST PUSH2 0xB67 JUMP JUMPDEST PUSH2 0x188 PUSH2 0x230 CALLDATASIZE PUSH1 0x4 PUSH2 0x1D55 JUMP JUMPDEST PUSH2 0xBB9 JUMP JUMPDEST PUSH2 0x188 PUSH2 0x243 CALLDATASIZE PUSH1 0x4 PUSH2 0x1CF9 JUMP JUMPDEST PUSH2 0xC08 JUMP JUMPDEST PUSH2 0x188 PUSH2 0x256 CALLDATASIZE PUSH1 0x4 PUSH2 0x1CF9 JUMP JUMPDEST PUSH2 0x123B JUMP JUMPDEST PUSH2 0x12E PUSH2 0x269 CALLDATASIZE PUSH1 0x4 PUSH2 0x1D55 JUMP JUMPDEST PUSH1 0x0 PUSH1 0x20 DUP2 SWAP1 MSTORE SWAP1 DUP2 MSTORE PUSH1 0x40 SWAP1 KECCAK256 SLOAD DUP2 JUMP JUMPDEST PUSH1 0x4 SLOAD PUSH2 0x1F7 SWAP1 PUSH1 0x1 PUSH1 0x1 PUSH1 0xA0 SHL SUB AND DUP2 JUMP JUMPDEST PUSH1 0x3 SLOAD PUSH2 0x1F7 SWAP1 PUSH1 0x1 PUSH1 0x1 PUSH1 0xA0 SHL SUB AND DUP2 JUMP JUMPDEST PUSH2 0x12E PUSH2 0x2AF CALLDATASIZE PUSH1 0x4 PUSH2 0x1CF9 JUMP JUMPDEST PUSH2 0x1775 JUMP JUMPDEST PUSH2 0x2D7 PUSH2 0x2C2 CALLDATASIZE PUSH1 0x4 PUSH2 0x1D55 JUMP JUMPDEST PUSH1 0x2 PUSH1 0x20 MSTORE PUSH1 0x0 SWAP1 DUP2 MSTORE PUSH1 0x40 SWAP1 KECCAK256 SLOAD PUSH1 0xFF AND DUP2 JUMP JUMPDEST PUSH1 0x40 MLOAD SWAP1 ISZERO ISZERO DUP2 MSTORE PUSH1 0x20 ADD PUSH2 0x138 JUMP JUMPDEST PUSH2 0x12E PUSH2 0x2F5 CALLDATASIZE PUSH1 0x4 PUSH2 0x1C8A JUMP JUMPDEST PUSH2 0x183B JUMP JUMPDEST PUSH2 0x2D7 PUSH2 0x308 CALLDATASIZE PUSH1 0x4 PUSH2 0x1D55 JUMP JUMPDEST PUSH1 0x1 PUSH1 0x20 MSTORE PUSH1 0x0 SWAP1 DUP2 MSTORE PUSH1 0x40 SWAP1 KECCAK256 SLOAD PUSH1 0xFF AND DUP2 JUMP JUMPDEST PUSH2 0x188 PUSH2 0x1977 JUMP JUMPDEST PUSH1 0x4 DUP1 SLOAD PUSH1 0x40 DUP1 MLOAD PUSH4 0x5E6600DD PUSH1 0xE1 SHL DUP2 MSTORE SWAP1 MLOAD PUSH1 0x0 SWAP4 DUP5 SWAP4 PUSH1 0x1 PUSH1 0x1 PUSH1 0xA0 SHL SUB AND SWAP3 PUSH4 0xBCCC01BA SWAP3 DUP2 DUP4 ADD SWAP3 PUSH1 0x20 SWAP3 DUP3 SWAP1 SUB ADD DUP2 DUP7 GAS STATICCALL ISZERO DUP1 ISZERO PUSH2 0x36E JUMPI RETURNDATASIZE PUSH1 0x0 DUP1 RETURNDATACOPY RETURNDATASIZE PUSH1 0x0 REVERT JUMPDEST POP POP POP POP PUSH1 0x40 MLOAD RETURNDATASIZE PUSH1 0x1F NOT PUSH1 0x1F DUP3 ADD AND DUP3 ADD DUP1 PUSH1 0x40 MSTORE POP DUP2 ADD SWAP1 PUSH2 0x392 SWAP2 SWAP1 PUSH2 0x1D79 JUMP JUMPDEST SWAP1 POP PUSH1 0x0 PUSH32 0x0 PUSH1 0x1 PUSH1 0x1 PUSH1 0xA0 SHL SUB AND PUSH4 0x18160DDD PUSH1 0x40 MLOAD DUP2 PUSH4 0xFFFFFFFF AND PUSH1 0xE0 SHL DUP2 MSTORE PUSH1 0x4 ADD PUSH1 0x20 PUSH1 0x40 MLOAD DUP1 DUP4 SUB DUP2 DUP7 GAS STATICCALL ISZERO DUP1 ISZERO PUSH2 0x3F4 JUMPI RETURNDATASIZE PUSH1 0x0 DUP1 RETURNDATACOPY RETURNDATASIZE PUSH1 0x0 REVERT JUMPDEST POP POP POP POP PUSH1 0x40 MLOAD RETURNDATASIZE PUSH1 0x1F NOT PUSH1 0x1F DUP3 ADD AND DUP3 ADD DUP1 PUSH1 0x40 MSTORE POP DUP2 ADD SWAP1 PUSH2 0x418 SWAP2 SWAP1 PUSH2 0x1D79 JUMP JUMPDEST SWAP1 POP DUP2 ISZERO PUSH2 0x43A JUMPI DUP2 PUSH2 0x42B DUP3 DUP7 PUSH2 0x1DA8 JUMP JUMPDEST PUSH2 0x435 SWAP2 SWAP1 PUSH2 0x1DDD JUMP JUMPDEST PUSH2 0x43C JUMP JUMPDEST DUP4 JUMPDEST SWAP5 SWAP4 POP POP POP POP JUMP JUMPDEST PUSH1 0x0 DUP1 DUP3 PUSH1 0x1 PUSH1 0x1 PUSH1 0xA0 SHL SUB AND PUSH4 0x98D5FDCA PUSH1 0x40 MLOAD DUP2 PUSH4 0xFFFFFFFF AND PUSH1 0xE0 SHL DUP2 MSTORE PUSH1 0x4 ADD PUSH1 0x20 PUSH1 0x40 MLOAD DUP1 DUP4 SUB DUP2 PUSH1 0x0 DUP8 GAS CALL ISZERO DUP1 ISZERO PUSH2 0x487 JUMPI RETURNDATASIZE PUSH1 0x0 DUP1 RETURNDATACOPY RETURNDATASIZE PUSH1 0x0 REVERT JUMPDEST POP POP POP POP PUSH1 0x40 MLOAD RETURNDATASIZE PUSH1 0x1F NOT PUSH1 0x1F DUP3 ADD AND DUP3 ADD DUP1 PUSH1 0x40 MSTORE POP DUP2 ADD SWAP1 PUSH2 0x4AB SWAP2 SWAP1 PUSH2 0x1D79 JUMP JUMPDEST SWAP1 POP DUP1 PUSH2 0x4C0 DUP6 PUSH8 0xDE0B6B3A7640000 PUSH2 0x1DA8 JUMP JUMPDEST PUSH2 0x43C SWAP2 SWAP1 PUSH2 0x1DDD JUMP JUMPDEST PUSH1 0x0 DUP2 GT PUSH2 0x51F JUMPI PUSH1 0x40 MLOAD PUSH3 0x461BCD PUSH1 0xE5 SHL DUP2 MSTORE PUSH1 0x20 PUSH1 0x4 DUP3 ADD MSTORE PUSH1 0x1D PUSH1 0x24 DUP3 ADD MSTORE PUSH32 0x416D6F756E74206D7573742062652067726561746572207468616E2030000000 PUSH1 0x44 DUP3 ADD MSTORE PUSH1 0x64 ADD JUMPDEST PUSH1 0x40 MLOAD DUP1 SWAP2 SUB SWAP1 REVERT JUMPDEST PUSH1 0x40 MLOAD PUSH4 0x70A08231 PUSH1 0xE0 SHL DUP2 MSTORE CALLER PUSH1 0x4 DUP3 ADD MSTORE PUSH1 0x0 SWAP1 PUSH32 0x0 PUSH1 0x1 PUSH1 0x1 PUSH1 0xA0 SHL SUB AND SWAP1 PUSH4 0x70A08231 SWAP1 PUSH1 0x24 ADD PUSH1 0x20 PUSH1 0x40 MLOAD DUP1 DUP4 SUB DUP2 DUP7 GAS STATICCALL ISZERO DUP1 ISZERO PUSH2 0x586 JUMPI RETURNDATASIZE PUSH1 0x0 DUP1 RETURNDATACOPY RETURNDATASIZE PUSH1 0x0 REVERT JUMPDEST POP POP POP POP PUSH1 0x40 MLOAD RETURNDATASIZE PUSH1 0x1F NOT PUSH1 0x1F DUP3 ADD AND DUP3 ADD DUP1 PUSH1 0x40 MSTORE POP DUP2 ADD SWAP1 PUSH2 0x5AA SWAP2 SWAP1 PUSH2 0x1D79 JUMP JUMPDEST SWAP1 POP DUP2 DUP2 LT ISZERO PUSH2 0x5D7 JUMPI PUSH1 0x40 MLOAD PUSH4 0xCF479181 PUSH1 0xE0 SHL DUP2 MSTORE PUSH1 0x4 DUP2 ADD DUP3 SWAP1 MSTORE PUSH1 0x24 DUP2 ADD DUP4 SWAP1 MSTORE PUSH1 0x44 ADD PUSH2 0x516 JUMP JUMPDEST PUSH1 0x0 PUSH2 0x5E3 DUP4 CALLER PUSH2 0x1775 JUMP JUMPDEST SWAP1 POP PUSH1 0x0 PUSH2 0x5F1 DUP3 DUP6 PUSH2 0x1DF1 JUMP JUMPDEST SWAP1 POP PUSH1 0x0 PUSH2 0x5FE DUP3 PUSH2 0x183B JUMP JUMPDEST PUSH1 0x4 DUP1 SLOAD PUSH1 0x40 MLOAD PUSH4 0x3F41ADDD PUSH1 0xE0 SHL DUP2 MSTORE SWAP2 DUP3 ADD DUP4 SWAP1 MSTORE SWAP2 SWAP3 POP PUSH1 0x0 SWAP2 DUP3 SWAP2 PUSH1 0x1 PUSH1 0x1 PUSH1 0xA0 SHL SUB SWAP1 SWAP2 AND SWAP1 PUSH4 0x3F41ADDD SWAP1 PUSH1 0x24 ADD PUSH1 0x0 PUSH1 0x40 MLOAD DUP1 DUP4 SUB DUP2 PUSH1 0x0 DUP8 GAS CALL ISZERO DUP1 ISZERO PUSH2 0x651 JUMPI RETURNDATASIZE PUSH1 0x0 DUP1 RETURNDATACOPY RETURNDATASIZE PUSH1 0x0 REVERT JUMPDEST POP POP POP POP PUSH1 0x40 MLOAD RETURNDATASIZE PUSH1 0x0 DUP3 RETURNDATACOPY PUSH1 0x1F RETURNDATASIZE SWAP1 DUP2 ADD PUSH1 0x1F NOT AND DUP3 ADD PUSH1 0x40 MSTORE PUSH2 0x679 SWAP2 SWAP1 DUP2 ADD SWAP1 PUSH2 0x1EDE JUMP JUMPDEST PUSH1 0x40 MLOAD PUSH4 0x2770A7EB PUSH1 0xE2 SHL DUP2 MSTORE CALLER PUSH1 0x4 DUP3 ADD MSTORE PUSH1 0x24 DUP2 ADD DUP11 SWAP1 MSTORE SWAP2 SWAP4 POP SWAP2 POP PUSH32 0x0 PUSH1 0x1 PUSH1 0x1 PUSH1 0xA0 SHL SUB AND SWAP1 PUSH4 0x9DC29FAC SWAP1 PUSH1 0x44 ADD PUSH1 0x0 PUSH1 0x40 MLOAD DUP1 DUP4 SUB DUP2 PUSH1 0x0 DUP8 DUP1 EXTCODESIZE ISZERO DUP1 ISZERO PUSH2 0x6E6 JUMPI PUSH1 0x0 DUP1 REVERT JUMPDEST POP GAS CALL ISZERO DUP1 ISZERO PUSH2 0x6FA JUMPI RETURNDATASIZE PUSH1 0x0 DUP1 RETURNDATACOPY RETURNDATASIZE PUSH1 0x0 REVERT JUMPDEST POP POP PUSH1 0x40 MLOAD PUSH4 0x40C10F19 PUSH1 0xE0 SHL DUP2 MSTORE ADDRESS PUSH1 0x4 DUP3 ADD MSTORE PUSH1 0x24 DUP2 ADD DUP9 SWAP1 MSTORE PUSH32 0x0 PUSH1 0x1 PUSH1 0x1 PUSH1 0xA0 SHL SUB AND SWAP3 POP PUSH4 0x40C10F19 SWAP2 POP PUSH1 0x44 ADD PUSH1 0x0 PUSH1 0x40 MLOAD DUP1 DUP4 SUB DUP2 PUSH1 0x0 DUP8 DUP1 EXTCODESIZE ISZERO DUP1 ISZERO PUSH2 0x766 JUMPI PUSH1 0x0 DUP1 REVERT JUMPDEST POP GAS CALL ISZERO DUP1 ISZERO PUSH2 0x77A JUMPI RETURNDATASIZE PUSH1 0x0 DUP1 RETURNDATACOPY RETURNDATASIZE PUSH1 0x0 REVERT JUMPDEST POP POP DUP4 MLOAD SWAP2 POP PUSH1 0x0 SWAP1 POP JUMPDEST DUP2 DUP2 LT ISZERO PUSH2 0x88A JUMPI PUSH1 0x0 PUSH1 0x1 PUSH1 0x1 PUSH1 0xA0 SHL SUB AND DUP5 DUP3 DUP2 MLOAD DUP2 LT PUSH2 0x7AA JUMPI PUSH2 0x7AA PUSH2 0x1FA3 JUMP JUMPDEST PUSH1 0x20 MUL PUSH1 0x20 ADD ADD MLOAD PUSH1 0x1 PUSH1 0x1 PUSH1 0xA0 SHL SUB AND EQ PUSH2 0x882 JUMPI PUSH1 0x0 DUP5 DUP3 DUP2 MLOAD DUP2 LT PUSH2 0x7D4 JUMPI PUSH2 0x7D4 PUSH2 0x1FA3 JUMP JUMPDEST PUSH1 0x20 MUL PUSH1 0x20 ADD ADD MLOAD SWAP1 POP PUSH1 0x0 PUSH2 0x81C DUP6 DUP5 DUP2 MLOAD DUP2 LT PUSH2 0x7F5 JUMPI PUSH2 0x7F5 PUSH2 0x1FA3 JUMP JUMPDEST PUSH1 0x20 MUL PUSH1 0x20 ADD ADD MLOAD DUP8 DUP6 DUP2 MLOAD DUP2 LT PUSH2 0x80F JUMPI PUSH2 0x80F PUSH2 0x1FA3 JUMP JUMPDEST PUSH1 0x20 MUL PUSH1 0x20 ADD ADD MLOAD PUSH2 0x444 JUMP JUMPDEST PUSH1 0x40 MLOAD PUSH4 0x13C50353 PUSH1 0xE3 SHL DUP2 MSTORE CALLER PUSH1 0x4 DUP3 ADD MSTORE PUSH1 0x24 DUP2 ADD DUP3 SWAP1 MSTORE SWAP1 SWAP2 POP PUSH1 0x1 PUSH1 0x1 PUSH1 0xA0 SHL SUB DUP4 AND SWAP1 PUSH4 0x9E281A98 SWAP1 PUSH1 0x44 ADD PUSH1 0x0 PUSH1 0x40 MLOAD DUP1 DUP4 SUB DUP2 PUSH1 0x0 DUP8 DUP1 EXTCODESIZE ISZERO DUP1 ISZERO PUSH2 0x867 JUMPI PUSH1 0x0 DUP1 REVERT JUMPDEST POP GAS CALL ISZERO DUP1 ISZERO PUSH2 0x87B JUMPI RETURNDATASIZE PUSH1 0x0 DUP1 RETURNDATACOPY RETURNDATASIZE PUSH1 0x0 REVERT JUMPDEST POP POP POP POP POP POP JUMPDEST PUSH1 0x1 ADD PUSH2 0x785 JUMP JUMPDEST POP PUSH1 0x4 DUP1 SLOAD PUSH1 0x40 DUP1 MLOAD PUSH4 0x55BE04AD PUSH1 0xE0 SHL DUP2 MSTORE SWAP1 MLOAD PUSH1 0x1 PUSH1 0x1 PUSH1 0xA0 SHL SUB SWAP1 SWAP3 AND SWAP3 PUSH4 0x55BE04AD SWAP3 DUP3 DUP3 ADD SWAP3 PUSH1 0x20 SWAP3 SWAP1 DUP3 SWAP1 SUB ADD DUP2 DUP7 GAS STATICCALL ISZERO DUP1 ISZERO PUSH2 0x8D2 JUMPI RETURNDATASIZE PUSH1 0x0 DUP1 RETURNDATACOPY RETURNDATASIZE PUSH1 0x0 REVERT JUMPDEST POP POP POP POP PUSH1 0x40 MLOAD RETURNDATASIZE PUSH1 0x1F NOT PUSH1 0x1F DUP3 ADD AND DUP3 ADD DUP1 PUSH1 0x40 MSTORE POP DUP2 ADD SWAP1 PUSH2 0x8F6 SWAP2 SWAP1 PUSH2 0x1FB9 JUMP JUMPDEST ISZERO PUSH2 0x90D JUMPI PUSH1 0x4 DUP1 SLOAD PUSH1 0xFF PUSH1 0xA0 SHL NOT AND SWAP1 SSTORE PUSH2 0x929 JUMP JUMPDEST PUSH1 0x4 DUP1 SLOAD PUSH1 0x1 SWAP2 SWAP1 PUSH1 0xFF PUSH1 0xA0 SHL NOT AND PUSH1 0x1 PUSH1 0xA0 SHL DUP4 JUMPDEST MUL OR SWAP1 SSTORE POP JUMPDEST POP POP POP POP POP POP POP POP JUMP JUMPDEST PUSH2 0x95E PUSH1 0x40 MLOAD DUP1 PUSH1 0x80 ADD PUSH1 0x40 MSTORE DUP1 PUSH1 0x0 DUP2 MSTORE PUSH1 0x20 ADD PUSH1 0x0 DUP2 MSTORE PUSH1 0x20 ADD PUSH1 0x0 DUP2 MSTORE PUSH1 0x20 ADD PUSH1 0x0 DUP2 MSTORE POP SWAP1 JUMP JUMPDEST PUSH2 0x989 PUSH1 0x40 MLOAD DUP1 PUSH1 0x80 ADD PUSH1 0x40 MSTORE DUP1 PUSH1 0x0 DUP2 MSTORE PUSH1 0x20 ADD PUSH1 0x0 DUP2 MSTORE PUSH1 0x20 ADD PUSH1 0x0 DUP2 MSTORE PUSH1 0x20 ADD PUSH1 0x0 DUP2 MSTORE POP SWAP1 JUMP JUMPDEST PUSH1 0x4 DUP1 SLOAD PUSH1 0x40 MLOAD PUSH4 0x3E85D5F PUSH1 0xE4 SHL DUP2 MSTORE PUSH1 0x1 PUSH1 0x1 PUSH1 0xA0 SHL SUB DUP8 DUP2 AND SWAP4 DUP3 ADD SWAP4 SWAP1 SWAP4 MSTORE SWAP2 AND SWAP1 PUSH4 0x3E85D5F0 SWAP1 PUSH1 0x24 ADD PUSH1 0x20 PUSH1 0x40 MLOAD DUP1 DUP4 SUB DUP2 DUP7 GAS STATICCALL ISZERO DUP1 ISZERO PUSH2 0x9D5 JUMPI RETURNDATASIZE PUSH1 0x0 DUP1 RETURNDATACOPY RETURNDATASIZE PUSH1 0x0 REVERT JUMPDEST POP POP POP POP PUSH1 0x40 MLOAD RETURNDATASIZE PUSH1 0x1F NOT PUSH1 0x1F DUP3 ADD AND DUP3 ADD DUP1 PUSH1 0x40 MSTORE POP DUP2 ADD SWAP1 PUSH2 0x9F9 SWAP2 SWAP1 PUSH2 0x1D79 JUMP JUMPDEST DUP2 MSTORE PUSH1 0x4 DUP1 SLOAD PUSH1 0x40 MLOAD PUSH4 0x675C7C71 PUSH1 0xE0 SHL DUP2 MSTORE PUSH1 0x1 PUSH1 0x1 PUSH1 0xA0 SHL SUB DUP8 DUP2 AND SWAP4 DUP3 ADD SWAP4 SWAP1 SWAP4 MSTORE SWAP2 AND SWAP1 PUSH4 0x675C7C71 SWAP1 PUSH1 0x24 ADD PUSH1 0x20 PUSH1 0x40 MLOAD DUP1 DUP4 SUB DUP2 DUP7 GAS STATICCALL ISZERO DUP1 ISZERO PUSH2 0xA47 JUMPI RETURNDATASIZE PUSH1 0x0 DUP1 RETURNDATACOPY RETURNDATASIZE PUSH1 0x0 REVERT JUMPDEST POP POP POP POP PUSH1 0x40 MLOAD RETURNDATASIZE PUSH1 0x1F NOT PUSH1 0x1F DUP3 ADD AND DUP3 ADD DUP1 PUSH1 0x40 MSTORE POP DUP2 ADD SWAP1 PUSH2 0xA6B SWAP2 SWAP1 PUSH2 0x1D79 JUMP JUMPDEST PUSH1 0x20 DUP3 ADD MSTORE PUSH1 0x4 DUP1 SLOAD PUSH1 0x40 MLOAD PUSH4 0xC0F1CCE5 PUSH1 0xE0 SHL DUP2 MSTORE PUSH1 0x1 PUSH1 0x1 PUSH1 0xA0 SHL SUB DUP8 DUP2 AND SWAP4 DUP3 ADD SWAP4 SWAP1 SWAP4 MSTORE PUSH1 0x24 DUP2 ADD DUP7 SWAP1 MSTORE SWAP2 AND SWAP1 PUSH4 0xC0F1CCE5 SWAP1 PUSH1 0x44 ADD PUSH1 0x20 PUSH1 0x40 MLOAD DUP1 DUP4 SUB DUP2 DUP7 GAS STATICCALL ISZERO DUP1 ISZERO PUSH2 0xAC3 JUMPI RETURNDATASIZE PUSH1 0x0 DUP1 RETURNDATACOPY RETURNDATASIZE PUSH1 0x0 REVERT JUMPDEST POP POP POP POP PUSH1 0x40 MLOAD RETURNDATASIZE PUSH1 0x1F NOT PUSH1 0x1F DUP3 ADD AND DUP3 ADD DUP1 PUSH1 0x40 MSTORE POP DUP2 ADD SWAP1 PUSH2 0xAE7 SWAP2 SWAP1 PUSH2 0x1D79 JUMP JUMPDEST PUSH1 0x40 DUP1 DUP4 ADD SWAP2 SWAP1 SWAP2 MSTORE PUSH1 0x4 DUP1 SLOAD DUP3 MLOAD PUSH4 0x5E6600DD PUSH1 0xE1 SHL DUP2 MSTORE SWAP3 MLOAD PUSH1 0x1 PUSH1 0x1 PUSH1 0xA0 SHL SUB SWAP1 SWAP2 AND SWAP3 PUSH4 0xBCCC01BA SWAP3 DUP2 DUP2 ADD SWAP3 PUSH1 0x20 SWAP3 SWAP1 SWAP2 SWAP1 DUP3 SWAP1 SUB ADD DUP2 DUP7 GAS STATICCALL ISZERO DUP1 ISZERO PUSH2 0xB37 JUMPI RETURNDATASIZE PUSH1 0x0 DUP1 RETURNDATACOPY RETURNDATASIZE PUSH1 0x0 REVERT JUMPDEST POP POP POP POP PUSH1 0x40 MLOAD RETURNDATASIZE PUSH1 0x1F NOT PUSH1 0x1F DUP3 ADD AND DUP3 ADD DUP1 PUSH1 0x40 MSTORE POP DUP2 ADD SWAP1 PUSH2 0xB5B SWAP2 SWAP1 PUSH2 0x1D79 JUMP JUMPDEST PUSH1 0x60 DUP3 ADD MSTORE SWAP4 SWAP3 POP POP POP JUMP JUMPDEST PUSH1 0x3 SLOAD PUSH1 0x1 PUSH1 0x1 PUSH1 0xA0 SHL SUB AND CALLER EQ PUSH2 0xB92 JUMPI PUSH1 0x40 MLOAD PUSH4 0xDA476DD7 PUSH1 0xE0 SHL DUP2 MSTORE PUSH1 0x4 ADD PUSH1 0x40 MLOAD DUP1 SWAP2 SUB SWAP1 REVERT JUMPDEST PUSH1 0x1 PUSH1 0x1 PUSH1 0xA0 SHL SUB AND PUSH1 0x0 SWAP1 DUP2 MSTORE PUSH1 0x1 PUSH1 0x20 DUP2 SWAP1 MSTORE PUSH1 0x40 SWAP1 SWAP2 KECCAK256 DUP1 SLOAD PUSH1 0xFF NOT AND SWAP1 SWAP2 OR SWAP1 SSTORE JUMP JUMPDEST PUSH1 0x3 SLOAD PUSH1 0x1 PUSH1 0x1 PUSH1 0xA0 SHL SUB AND CALLER EQ PUSH2 0xBE4 JUMPI PUSH1 0x40 MLOAD PUSH4 0xDA476DD7 PUSH1 0xE0 SHL DUP2 MSTORE PUSH1 0x4 ADD PUSH1 0x40 MLOAD DUP1 SWAP2 SUB SWAP1 REVERT JUMPDEST PUSH1 0x1 PUSH1 0x1 PUSH1 0xA0 SHL SUB AND PUSH1 0x0 SWAP1 DUP2 MSTORE PUSH1 0x2 PUSH1 0x20 MSTORE PUSH1 0x40 SWAP1 KECCAK256 DUP1 SLOAD PUSH1 0xFF NOT AND PUSH1 0x1 OR SWAP1 SSTORE JUMP JUMPDEST CALLER PUSH1 0x0 SWAP1 DUP2 MSTORE PUSH1 0x1 PUSH1 0x20 MSTORE PUSH1 0x40 SWAP1 KECCAK256 SLOAD PUSH1 0xFF AND PUSH2 0xC67 JUMPI PUSH1 0x40 MLOAD PUSH3 0x461BCD PUSH1 0xE5 SHL DUP2 MSTORE PUSH1 0x20 PUSH1 0x4 DUP3 ADD MSTORE PUSH1 0x17 PUSH1 0x24 DUP3 ADD MSTORE PUSH32 0x55736572206973206E6F742077686974656C6973746564000000000000000000 PUSH1 0x44 DUP3 ADD MSTORE PUSH1 0x64 ADD PUSH2 0x516 JUMP JUMPDEST PUSH1 0x1 PUSH1 0x1 PUSH1 0xA0 SHL SUB DUP2 AND PUSH1 0x0 SWAP1 DUP2 MSTORE PUSH1 0x2 PUSH1 0x20 MSTORE PUSH1 0x40 SWAP1 KECCAK256 SLOAD PUSH1 0xFF AND PUSH2 0xCCA JUMPI PUSH1 0x40 MLOAD PUSH3 0x461BCD PUSH1 0xE5 SHL DUP2 MSTORE PUSH1 0x20 PUSH1 0x4 DUP3 ADD MSTORE PUSH1 0x18 PUSH1 0x24 DUP3 ADD MSTORE PUSH24 0x151BDAD95B881A5CC81B9BDD081DDA1A5D195B1A5CDD1959 PUSH1 0x42 SHL PUSH1 0x44 DUP3 ADD MSTORE PUSH1 0x64 ADD PUSH2 0x516 JUMP JUMPDEST PUSH1 0x4 DUP1 SLOAD PUSH1 0x40 MLOAD PUSH4 0x989796B5 PUSH1 0xE0 SHL DUP2 MSTORE PUSH1 0x1 PUSH1 0x1 PUSH1 0xA0 SHL SUB DUP5 DUP2 AND SWAP4 DUP3 ADD SWAP4 SWAP1 SWAP4 MSTORE PUSH1 0x0 SWAP3 SWAP1 SWAP2 AND SWAP1 PUSH4 0x989796B5 SWAP1 PUSH1 0x24 ADD PUSH1 0x20 PUSH1 0x40 MLOAD DUP1 DUP4 SUB DUP2 DUP7 GAS STATICCALL ISZERO DUP1 ISZERO PUSH2 0xD1A JUMPI RETURNDATASIZE PUSH1 0x0 DUP1 RETURNDATACOPY RETURNDATASIZE PUSH1 0x0 REVERT JUMPDEST POP POP POP POP PUSH1 0x40 MLOAD RETURNDATASIZE PUSH1 0x1F NOT PUSH1 0x1F DUP3 ADD AND DUP3 ADD DUP1 PUSH1 0x40 MSTORE POP DUP2 ADD SWAP1 PUSH2 0xD3E SWAP2 SWAP1 PUSH2 0x1FDB JUMP JUMPDEST PUSH1 0x40 MLOAD PUSH4 0x37410C55 PUSH1 0xE1 SHL DUP2 MSTORE PUSH1 0x4 DUP2 ADD DUP6 SWAP1 MSTORE SWAP1 SWAP2 POP PUSH1 0x0 SWAP1 PUSH1 0x1 PUSH1 0x1 PUSH1 0xA0 SHL SUB DUP4 AND SWAP1 PUSH4 0x6E8218AA SWAP1 PUSH1 0x24 ADD PUSH1 0x20 PUSH1 0x40 MLOAD DUP1 DUP4 SUB DUP2 DUP7 GAS STATICCALL ISZERO DUP1 ISZERO PUSH2 0xD89 JUMPI RETURNDATASIZE PUSH1 0x0 DUP1 RETURNDATACOPY RETURNDATASIZE PUSH1 0x0 REVERT JUMPDEST POP POP POP POP PUSH1 0x40 MLOAD RETURNDATASIZE PUSH1 0x1F NOT PUSH1 0x1F DUP3 ADD AND DUP3 ADD DUP1 PUSH1 0x40 MSTORE POP DUP2 ADD SWAP1 PUSH2 0xDAD SWAP2 SWAP1 PUSH2 0x1D79 JUMP JUMPDEST SWAP1 POP PUSH8 0xDE0B6B3A7640000 DUP2 GT PUSH2 0xE06 JUMPI PUSH1 0x40 MLOAD PUSH3 0x461BCD PUSH1 0xE5 SHL DUP2 MSTORE PUSH1 0x20 PUSH1 0x4 DUP3 ADD MSTORE PUSH1 0x1E PUSH1 0x24 DUP3 ADD MSTORE PUSH32 0x416D6F756E74206D7573742062652067726561746572207468616E2024310000 PUSH1 0x44 DUP3 ADD MSTORE PUSH1 0x64 ADD PUSH2 0x516 JUMP JUMPDEST PUSH1 0x0 PUSH2 0xE12 DUP4 DUP4 PUSH2 0x933 JUMP JUMPDEST SWAP1 POP PUSH10 0x152D02C7E14AF6800000 DUP2 PUSH1 0x60 ADD MLOAD GT DUP1 ISZERO PUSH2 0xE34 JUMPI POP PUSH1 0x60 DUP2 ADD MLOAD ISZERO ISZERO JUMPDEST ISZERO PUSH2 0xEA9 JUMPI PUSH3 0xF4240 DUP2 PUSH1 0x20 ADD MLOAD PUSH3 0x124F80 PUSH2 0xE50 SWAP2 SWAP1 PUSH2 0x1DA8 JUMP JUMPDEST PUSH2 0xE5A SWAP2 SWAP1 PUSH2 0x1DDD JUMP JUMPDEST DUP2 MLOAD LT PUSH2 0xEA9 JUMPI PUSH1 0x40 MLOAD PUSH3 0x461BCD PUSH1 0xE5 SHL DUP2 MSTORE PUSH1 0x20 PUSH1 0x4 DUP3 ADD MSTORE PUSH1 0x19 PUSH1 0x24 DUP3 ADD MSTORE PUSH32 0x436F6E63656E74726174696F6E20697320746F6F206869676800000000000000 PUSH1 0x44 DUP3 ADD MSTORE PUSH1 0x64 ADD PUSH2 0x516 JUMP JUMPDEST PUSH1 0x0 PUSH3 0xF4240 PUSH2 0xEBB DUP5 PUSH2 0xC350 PUSH2 0x1DA8 JUMP JUMPDEST PUSH2 0xEC5 SWAP2 SWAP1 PUSH2 0x1DDD JUMP JUMPDEST SWAP1 POP DUP2 PUSH1 0x20 ADD MLOAD DUP3 PUSH1 0x40 ADD MLOAD GT DUP1 ISZERO PUSH2 0xEE3 JUMPI POP DUP2 MLOAD PUSH1 0x40 DUP4 ADD MLOAD LT ISZERO JUMPDEST ISZERO PUSH2 0xF6D JUMPI PUSH1 0x0 DUP3 PUSH1 0x0 ADD MLOAD DUP4 PUSH1 0x20 ADD MLOAD LT PUSH2 0xF42 JUMPI PUSH3 0xF4240 DUP1 DUP5 PUSH1 0x20 ADD MLOAD DUP6 PUSH1 0x40 ADD MLOAD PUSH2 0xF12 SWAP2 SWAP1 PUSH2 0x1DF1 JUMP JUMPDEST PUSH2 0xF1C SWAP1 DUP8 PUSH2 0x1DA8 JUMP JUMPDEST PUSH2 0xF26 SWAP2 SWAP1 PUSH2 0x1DDD JUMP JUMPDEST PUSH2 0xF33 SWAP1 PUSH3 0x124F8 PUSH2 0x1DA8 JUMP JUMPDEST PUSH2 0xF3D SWAP2 SWAP1 PUSH2 0x1DDD JUMP JUMPDEST PUSH2 0xF5D JUMP JUMPDEST PUSH3 0xF4240 PUSH2 0xF53 DUP6 PUSH3 0x124F8 PUSH2 0x1DA8 JUMP JUMPDEST PUSH2 0xF5D SWAP2 SWAP1 PUSH2 0x1DDD JUMP JUMPDEST SWAP1 POP PUSH2 0xF69 DUP2 DUP4 PUSH2 0x1FF8 JUMP JUMPDEST SWAP2 POP POP JUMPDEST PUSH1 0x0 PUSH2 0xF78 DUP5 PUSH2 0x325 JUMP JUMPDEST SWAP1 POP PUSH1 0x0 PUSH2 0xF85 DUP4 PUSH2 0x325 JUMP JUMPDEST PUSH1 0x40 MLOAD PUSH4 0x23B872DD PUSH1 0xE0 SHL DUP2 MSTORE CALLER PUSH1 0x4 DUP3 ADD MSTORE PUSH1 0x1 PUSH1 0x1 PUSH1 0xA0 SHL SUB DUP9 DUP2 AND PUSH1 0x24 DUP4 ADD MSTORE PUSH1 0x44 DUP3 ADD DUP12 SWAP1 MSTORE SWAP2 SWAP3 POP PUSH1 0x0 SWAP2 DUP10 AND SWAP1 PUSH4 0x23B872DD SWAP1 PUSH1 0x64 ADD PUSH1 0x20 PUSH1 0x40 MLOAD DUP1 DUP4 SUB DUP2 PUSH1 0x0 DUP8 GAS CALL ISZERO DUP1 ISZERO PUSH2 0xFE0 JUMPI RETURNDATASIZE PUSH1 0x0 DUP1 RETURNDATACOPY RETURNDATASIZE PUSH1 0x0 REVERT JUMPDEST POP POP POP POP PUSH1 0x40 MLOAD RETURNDATASIZE PUSH1 0x1F NOT PUSH1 0x1F DUP3 ADD AND DUP3 ADD DUP1 PUSH1 0x40 MSTORE POP DUP2 ADD SWAP1 PUSH2 0x1004 SWAP2 SWAP1 PUSH2 0x1FB9 JUMP JUMPDEST SWAP1 POP DUP1 PUSH2 0x1010 JUMPI PUSH1 0x0 DUP1 REVERT JUMPDEST CALLER PUSH1 0x0 DUP2 DUP2 MSTORE PUSH1 0x20 DUP2 SWAP1 MSTORE PUSH1 0x40 SWAP1 KECCAK256 TIMESTAMP SWAP1 SSTORE PUSH32 0x0 PUSH1 0x1 PUSH1 0x1 PUSH1 0xA0 SHL SUB AND SWAP1 PUSH4 0x40C10F19 SWAP1 PUSH2 0x105D DUP6 DUP8 PUSH2 0x1DF1 JUMP JUMPDEST PUSH1 0x40 MLOAD PUSH1 0x1 PUSH1 0x1 PUSH1 0xE0 SHL SUB NOT PUSH1 0xE0 DUP6 SWAP1 SHL AND DUP2 MSTORE PUSH1 0x1 PUSH1 0x1 PUSH1 0xA0 SHL SUB SWAP1 SWAP3 AND PUSH1 0x4 DUP4 ADD MSTORE PUSH1 0x24 DUP3 ADD MSTORE PUSH1 0x44 ADD PUSH1 0x0 PUSH1 0x40 MLOAD DUP1 DUP4 SUB DUP2 PUSH1 0x0 DUP8 DUP1 EXTCODESIZE ISZERO DUP1 ISZERO PUSH2 0x10A3 JUMPI PUSH1 0x0 DUP1 REVERT JUMPDEST POP GAS CALL ISZERO DUP1 ISZERO PUSH2 0x10B7 JUMPI RETURNDATASIZE PUSH1 0x0 DUP1 RETURNDATACOPY RETURNDATASIZE PUSH1 0x0 REVERT JUMPDEST POP POP PUSH1 0x40 MLOAD PUSH4 0x40C10F19 PUSH1 0xE0 SHL DUP2 MSTORE ADDRESS PUSH1 0x4 DUP3 ADD MSTORE PUSH1 0x24 DUP2 ADD DUP6 SWAP1 MSTORE PUSH32 0x0 PUSH1 0x1 PUSH1 0x1 PUSH1 0xA0 SHL SUB AND SWAP3 POP PUSH4 0x40C10F19 SWAP2 POP PUSH1 0x44 ADD PUSH1 0x0 PUSH1 0x40 MLOAD DUP1 DUP4 SUB DUP2 PUSH1 0x0 DUP8 DUP1 EXTCODESIZE ISZERO DUP1 ISZERO PUSH2 0x1123 JUMPI PUSH1 0x0 DUP1 REVERT JUMPDEST POP GAS CALL ISZERO DUP1 ISZERO PUSH2 0x1137 JUMPI RETURNDATASIZE PUSH1 0x0 DUP1 RETURNDATACOPY RETURNDATASIZE PUSH1 0x0 REVERT JUMPDEST POP CALLER SWAP3 POP PUSH32 0x71679B5D5F69DFF565546F60CEE51D6DEC03589FA1630F5EF175703477B2113B SWAP2 POP DUP11 SWAP1 POP DUP12 DUP10 PUSH2 0x116D DUP8 DUP10 PUSH2 0x1DF1 JUMP JUMPDEST PUSH1 0x40 DUP1 MLOAD PUSH1 0x1 PUSH1 0x1 PUSH1 0xA0 SHL SUB SWAP1 SWAP6 AND DUP6 MSTORE PUSH1 0x20 DUP6 ADD SWAP4 SWAP1 SWAP4 MSTORE SWAP2 DUP4 ADD MSTORE PUSH1 0x60 DUP3 ADD MSTORE PUSH1 0x80 ADD PUSH1 0x40 MLOAD DUP1 SWAP2 SUB SWAP1 LOG2 PUSH1 0x4 DUP1 SLOAD PUSH1 0x40 DUP1 MLOAD PUSH4 0x55BE04AD PUSH1 0xE0 SHL DUP2 MSTORE SWAP1 MLOAD PUSH1 0x1 PUSH1 0x1 PUSH1 0xA0 SHL SUB SWAP1 SWAP3 AND SWAP3 PUSH4 0x55BE04AD SWAP3 DUP3 DUP3 ADD SWAP3 PUSH1 0x20 SWAP3 SWAP1 DUP3 SWAP1 SUB ADD DUP2 DUP7 GAS STATICCALL ISZERO DUP1 ISZERO PUSH2 0x11E1 JUMPI RETURNDATASIZE PUSH1 0x0 DUP1 RETURNDATACOPY RETURNDATASIZE PUSH1 0x0 REVERT JUMPDEST POP POP POP POP PUSH1 0x40 MLOAD RETURNDATASIZE PUSH1 0x1F NOT PUSH1 0x1F DUP3 ADD AND DUP3 ADD DUP1 PUSH1 0x40 MSTORE POP DUP2 ADD SWAP1 PUSH2 0x1205 SWAP2 SWAP1 PUSH2 0x1FB9 JUMP JUMPDEST ISZERO PUSH2 0x121C JUMPI PUSH1 0x4 DUP1 SLOAD PUSH1 0xFF PUSH1 0xA0 SHL NOT AND SWAP1 SSTORE PUSH2 0x1230 JUMP JUMPDEST PUSH1 0x4 DUP1 SLOAD PUSH1 0xFF PUSH1 0xA0 SHL NOT AND PUSH1 0x1 PUSH1 0xA0 SHL OR SWAP1 SSTORE JUMPDEST POP POP POP POP POP POP POP POP POP JUMP JUMPDEST PUSH1 0x0 PUSH1 0x4 SLOAD PUSH1 0x1 PUSH1 0xA0 SHL SWAP1 DIV PUSH1 0xFF AND PUSH1 0x1 DUP2 GT ISZERO PUSH2 0x125B JUMPI PUSH2 0x125B PUSH2 0x1CA3 JUMP JUMPDEST EQ PUSH2 0x1278 JUMPI PUSH1 0x40 MLOAD PUSH3 0x461BCD PUSH1 0xE5 SHL DUP2 MSTORE PUSH1 0x4 ADD PUSH2 0x516 SWAP1 PUSH2 0x2010 JUMP JUMPDEST PUSH1 0x1 PUSH1 0x1 PUSH1 0xA0 SHL SUB DUP2 AND PUSH1 0x0 SWAP1 DUP2 MSTORE PUSH1 0x2 PUSH1 0x20 MSTORE PUSH1 0x40 SWAP1 KECCAK256 SLOAD PUSH1 0xFF AND PUSH2 0x12DB JUMPI PUSH1 0x40 MLOAD PUSH3 0x461BCD PUSH1 0xE5 SHL DUP2 MSTORE PUSH1 0x20 PUSH1 0x4 DUP3 ADD MSTORE PUSH1 0x18 PUSH1 0x24 DUP3 ADD MSTORE PUSH24 0x151BDAD95B881A5CC81B9BDD081DDA1A5D195B1A5CDD1959 PUSH1 0x42 SHL PUSH1 0x44 DUP3 ADD MSTORE PUSH1 0x64 ADD PUSH2 0x516 JUMP JUMPDEST PUSH1 0x4 DUP1 SLOAD PUSH1 0x40 MLOAD PUSH4 0x989796B5 PUSH1 0xE0 SHL DUP2 MSTORE PUSH1 0x1 PUSH1 0x1 PUSH1 0xA0 SHL SUB DUP5 DUP2 AND SWAP4 DUP3 ADD SWAP4 SWAP1 SWAP4 MSTORE PUSH1 0x0 SWAP3 SWAP1 SWAP2 AND SWAP1 PUSH4 0x989796B5 SWAP1 PUSH1 0x24 ADD PUSH1 0x20 PUSH1 0x40 MLOAD DUP1 DUP4 SUB DUP2 DUP7 GAS STATICCALL ISZERO DUP1 ISZERO PUSH2 0x132B JUMPI RETURNDATASIZE PUSH1 0x0 DUP1 RETURNDATACOPY RETURNDATASIZE PUSH1 0x0 REVERT JUMPDEST POP POP POP POP PUSH1 0x40 MLOAD RETURNDATASIZE PUSH1 0x1F NOT PUSH1 0x1F DUP3 ADD AND DUP3 ADD DUP1 PUSH1 0x40 MSTORE POP DUP2 ADD SWAP1 PUSH2 0x134F SWAP2 SWAP1 PUSH2 0x1FDB JUMP JUMPDEST PUSH1 0x40 MLOAD PUSH4 0x37410C55 PUSH1 0xE1 SHL DUP2 MSTORE PUSH1 0x4 DUP2 ADD DUP6 SWAP1 MSTORE SWAP1 SWAP2 POP PUSH1 0x0 SWAP1 PUSH1 0x1 PUSH1 0x1 PUSH1 0xA0 SHL SUB DUP4 AND SWAP1 PUSH4 0x6E8218AA SWAP1 PUSH1 0x24 ADD PUSH1 0x20 PUSH1 0x40 MLOAD DUP1 DUP4 SUB DUP2 DUP7 GAS STATICCALL ISZERO DUP1 ISZERO PUSH2 0x139A JUMPI RETURNDATASIZE PUSH1 0x0 DUP1 RETURNDATACOPY RETURNDATASIZE PUSH1 0x0 REVERT JUMPDEST POP POP POP POP PUSH1 0x40 MLOAD RETURNDATASIZE PUSH1 0x1F NOT PUSH1 0x1F DUP3 ADD AND DUP3 ADD DUP1 PUSH1 0x40 MSTORE POP DUP2 ADD SWAP1 PUSH2 0x13BE SWAP2 SWAP1 PUSH2 0x1D79 JUMP JUMPDEST SWAP1 POP PUSH8 0xDE0B6B3A7640000 DUP2 GT PUSH2 0x1417 JUMPI PUSH1 0x40 MLOAD PUSH3 0x461BCD PUSH1 0xE5 SHL DUP2 MSTORE PUSH1 0x20 PUSH1 0x4 DUP3 ADD MSTORE PUSH1 0x1E PUSH1 0x24 DUP3 ADD MSTORE PUSH32 0x416D6F756E74206D7573742062652067726561746572207468616E2024310000 PUSH1 0x44 DUP3 ADD MSTORE PUSH1 0x64 ADD PUSH2 0x516 JUMP JUMPDEST PUSH1 0x0 PUSH2 0x1423 DUP4 DUP4 PUSH2 0x933 JUMP JUMPDEST SWAP1 POP DUP1 PUSH1 0x20 ADD MLOAD DUP2 PUSH1 0x0 ADD MLOAD LT PUSH2 0x148F JUMPI PUSH1 0x40 MLOAD PUSH3 0x461BCD PUSH1 0xE5 SHL DUP2 MSTORE PUSH1 0x20 PUSH1 0x4 DUP3 ADD MSTORE PUSH1 0x2A PUSH1 0x24 DUP3 ADD MSTORE PUSH32 0x506F6F6C20697320616C72656164792061626F76652074617267657420636F6E PUSH1 0x44 DUP3 ADD MSTORE PUSH10 0x31B2B73A3930BA34B7B7 PUSH1 0xB1 SHL PUSH1 0x64 DUP3 ADD MSTORE PUSH1 0x84 ADD PUSH2 0x516 JUMP JUMPDEST PUSH3 0xF4240 DUP2 PUSH1 0x20 ADD MLOAD PUSH3 0x13D620 PUSH2 0x14A6 SWAP2 SWAP1 PUSH2 0x1DA8 JUMP JUMPDEST PUSH2 0x14B0 SWAP2 SWAP1 PUSH2 0x1DDD JUMP JUMPDEST DUP2 PUSH1 0x40 ADD MLOAD LT PUSH2 0x1513 JUMPI PUSH1 0x40 MLOAD PUSH3 0x461BCD PUSH1 0xE5 SHL DUP2 MSTORE PUSH1 0x20 PUSH1 0x4 DUP3 ADD MSTORE PUSH1 0x28 PUSH1 0x24 DUP3 ADD MSTORE PUSH32 0x546869732077696C6C206D616B652074686520706F6F6C20746F6F20636F6E63 PUSH1 0x44 DUP3 ADD MSTORE PUSH8 0x195B9D1C985D1959 PUSH1 0xC2 SHL PUSH1 0x64 DUP3 ADD MSTORE PUSH1 0x84 ADD PUSH2 0x516 JUMP JUMPDEST PUSH1 0x0 PUSH2 0x152E DUP7 DUP7 DUP5 PUSH1 0x40 ADD MLOAD DUP6 PUSH1 0x0 ADD MLOAD DUP7 PUSH1 0x20 ADD MLOAD PUSH2 0x1A70 JUMP JUMPDEST SWAP1 POP PUSH1 0x0 PUSH2 0x153B DUP5 PUSH2 0x325 JUMP JUMPDEST PUSH1 0x40 MLOAD PUSH4 0x23B872DD PUSH1 0xE0 SHL DUP2 MSTORE CALLER PUSH1 0x4 DUP3 ADD MSTORE PUSH1 0x1 PUSH1 0x1 PUSH1 0xA0 SHL SUB DUP8 DUP2 AND PUSH1 0x24 DUP4 ADD MSTORE PUSH1 0x44 DUP3 ADD DUP11 SWAP1 MSTORE SWAP2 SWAP3 POP PUSH1 0x0 SWAP2 DUP9 AND SWAP1 PUSH4 0x23B872DD SWAP1 PUSH1 0x64 ADD PUSH1 0x20 PUSH1 0x40 MLOAD DUP1 DUP4 SUB DUP2 PUSH1 0x0 DUP8 GAS CALL ISZERO DUP1 ISZERO PUSH2 0x1596 JUMPI RETURNDATASIZE PUSH1 0x0 DUP1 RETURNDATACOPY RETURNDATASIZE PUSH1 0x0 REVERT JUMPDEST POP POP POP POP PUSH1 0x40 MLOAD RETURNDATASIZE PUSH1 0x1F NOT PUSH1 0x1F DUP3 ADD AND DUP3 ADD DUP1 PUSH1 0x40 MSTORE POP DUP2 ADD SWAP1 PUSH2 0x15BA SWAP2 SWAP1 PUSH2 0x1FB9 JUMP JUMPDEST SWAP1 POP DUP1 PUSH2 0x15C6 JUMPI PUSH1 0x0 DUP1 REVERT JUMPDEST CALLER PUSH1 0x0 DUP2 DUP2 MSTORE PUSH1 0x20 DUP2 SWAP1 MSTORE PUSH1 0x40 SWAP1 DUP2 SWAP1 KECCAK256 TIMESTAMP SWAP1 SSTORE MLOAD PUSH4 0x40C10F19 PUSH1 0xE0 SHL DUP2 MSTORE PUSH1 0x4 DUP2 ADD SWAP2 SWAP1 SWAP2 MSTORE PUSH1 0x24 DUP2 ADD DUP4 SWAP1 MSTORE PUSH1 0x1 PUSH1 0x1 PUSH1 0xA0 SHL SUB PUSH32 0x0 AND SWAP1 PUSH4 0x40C10F19 SWAP1 PUSH1 0x44 ADD PUSH1 0x0 PUSH1 0x40 MLOAD DUP1 DUP4 SUB DUP2 PUSH1 0x0 DUP8 DUP1 EXTCODESIZE ISZERO DUP1 ISZERO PUSH2 0x1642 JUMPI PUSH1 0x0 DUP1 REVERT JUMPDEST POP GAS CALL ISZERO DUP1 ISZERO PUSH2 0x1656 JUMPI RETURNDATASIZE PUSH1 0x0 DUP1 RETURNDATACOPY RETURNDATASIZE PUSH1 0x0 REVERT JUMPDEST POP POP PUSH1 0x40 MLOAD PUSH4 0xA9059CBB PUSH1 0xE0 SHL DUP2 MSTORE CALLER PUSH1 0x4 DUP3 ADD MSTORE PUSH1 0x24 DUP2 ADD DUP7 SWAP1 MSTORE PUSH32 0x0 PUSH1 0x1 PUSH1 0x1 PUSH1 0xA0 SHL SUB AND SWAP3 POP PUSH4 0xA9059CBB SWAP2 POP PUSH1 0x44 ADD PUSH1 0x20 PUSH1 0x40 MLOAD DUP1 DUP4 SUB DUP2 PUSH1 0x0 DUP8 GAS CALL ISZERO DUP1 ISZERO PUSH2 0x16C7 JUMPI RETURNDATASIZE PUSH1 0x0 DUP1 RETURNDATACOPY RETURNDATASIZE PUSH1 0x0 REVERT JUMPDEST POP POP POP POP PUSH1 0x40 MLOAD RETURNDATASIZE PUSH1 0x1F NOT PUSH1 0x1F DUP3 ADD AND DUP3 ADD DUP1 PUSH1 0x40 MSTORE POP DUP2 ADD SWAP1 PUSH2 0x16EB SWAP2 SWAP1 PUSH2 0x1FB9 JUMP JUMPDEST POP PUSH1 0x4 DUP1 SLOAD PUSH1 0x40 DUP1 MLOAD PUSH4 0x55BE04AD PUSH1 0xE0 SHL DUP2 MSTORE SWAP1 MLOAD PUSH1 0x1 PUSH1 0x1 PUSH1 0xA0 SHL SUB SWAP1 SWAP3 AND SWAP3 PUSH4 0x55BE04AD SWAP3 DUP3 DUP3 ADD SWAP3 PUSH1 0x20 SWAP3 SWAP1 DUP3 SWAP1 SUB ADD DUP2 DUP7 GAS STATICCALL ISZERO DUP1 ISZERO PUSH2 0x1733 JUMPI RETURNDATASIZE PUSH1 0x0 DUP1 RETURNDATACOPY RETURNDATASIZE PUSH1 0x0 REVERT JUMPDEST POP POP POP POP PUSH1 0x40 MLOAD RETURNDATASIZE PUSH1 0x1F NOT PUSH1 0x1F DUP3 ADD AND DUP3 ADD DUP1 PUSH1 0x40 MSTORE POP DUP2 ADD SWAP1 PUSH2 0x1757 SWAP2 SWAP1 PUSH2 0x1FB9 JUMP JUMPDEST PUSH2 0x929 JUMPI PUSH1 0x4 DUP1 SLOAD PUSH1 0x1 SWAP2 SWAP1 PUSH1 0xFF PUSH1 0xA0 SHL NOT AND PUSH1 0x1 PUSH1 0xA0 SHL DUP4 PUSH2 0x923 JUMP JUMPDEST PUSH1 0x0 DUP1 PUSH3 0xF4240 PUSH2 0x1788 DUP6 PUSH2 0xC350 PUSH2 0x1DA8 JUMP JUMPDEST PUSH2 0x1792 SWAP2 SWAP1 PUSH2 0x1DDD JUMP JUMPDEST PUSH1 0x1 PUSH1 0x1 PUSH1 0xA0 SHL SUB DUP5 AND PUSH1 0x0 SWAP1 DUP2 MSTORE PUSH1 0x20 DUP2 SWAP1 MSTORE PUSH1 0x40 DUP2 KECCAK256 SLOAD SWAP2 SWAP3 POP SWAP1 PUSH2 0x17B9 SWAP1 TIMESTAMP PUSH2 0x1DF1 JUMP JUMPDEST SWAP1 POP PUSH1 0x0 PUSH2 0x17CA PUSH3 0x15180 DUP4 PUSH2 0x1DDD JUMP JUMPDEST SWAP1 POP PUSH1 0x1E DUP2 SGT PUSH2 0x1831 JUMPI PUSH1 0x0 PUSH3 0x30D40 PUSH1 0x1E PUSH2 0x17E6 DUP5 DUP4 PUSH2 0x2053 JUMP JUMPDEST PUSH2 0x17F0 SWAP2 SWAP1 PUSH2 0x20D8 JUMP JUMPDEST PUSH2 0x17FA SWAP2 SWAP1 PUSH2 0x2106 JUMP JUMPDEST SWAP1 POP PUSH1 0x0 PUSH2 0x1808 DUP3 DUP3 PUSH2 0x2106 JUMP JUMPDEST SWAP1 POP PUSH3 0xF4240 PUSH2 0x1818 DUP3 DUP11 PUSH2 0x1DA8 JUMP JUMPDEST PUSH2 0x1822 SWAP2 SWAP1 PUSH2 0x1DDD JUMP JUMPDEST PUSH2 0x182C SWAP1 DUP7 PUSH2 0x1FF8 JUMP JUMPDEST SWAP5 POP POP POP JUMPDEST POP SWAP1 SWAP5 SWAP4 POP POP POP POP JUMP JUMPDEST PUSH1 0x0 DUP1 PUSH32 0x0 PUSH1 0x1 PUSH1 0x1 PUSH1 0xA0 SHL SUB AND PUSH4 0x18160DDD PUSH1 0x40 MLOAD DUP2 PUSH4 0xFFFFFFFF AND PUSH1 0xE0 SHL DUP2 MSTORE PUSH1 0x4 ADD PUSH1 0x20 PUSH1 0x40 MLOAD DUP1 DUP4 SUB DUP2 DUP7 GAS STATICCALL ISZERO DUP1 ISZERO PUSH2 0x189C JUMPI RETURNDATASIZE PUSH1 0x0 DUP1 RETURNDATACOPY RETURNDATASIZE PUSH1 0x0 REVERT JUMPDEST POP POP POP POP PUSH1 0x40 MLOAD RETURNDATASIZE PUSH1 0x1F NOT PUSH1 0x1F DUP3 ADD AND DUP3 ADD DUP1 PUSH1 0x40 MSTORE POP DUP2 ADD SWAP1 PUSH2 0x18C0 SWAP2 SWAP1 PUSH2 0x1D79 JUMP JUMPDEST PUSH2 0x18CD DUP5 PUSH3 0xF4240 PUSH2 0x1DA8 JUMP JUMPDEST PUSH2 0x18D7 SWAP2 SWAP1 PUSH2 0x1DDD JUMP JUMPDEST SWAP1 POP PUSH1 0x0 PUSH1 0x4 PUSH1 0x0 SWAP1 SLOAD SWAP1 PUSH2 0x100 EXP SWAP1 DIV PUSH1 0x1 PUSH1 0x1 PUSH1 0xA0 SHL SUB AND PUSH1 0x1 PUSH1 0x1 PUSH1 0xA0 SHL SUB AND PUSH4 0xBCCC01BA PUSH1 0x40 MLOAD DUP2 PUSH4 0xFFFFFFFF AND PUSH1 0xE0 SHL DUP2 MSTORE PUSH1 0x4 ADD PUSH1 0x20 PUSH1 0x40 MLOAD DUP1 DUP4 SUB DUP2 DUP7 GAS STATICCALL ISZERO DUP1 ISZERO PUSH2 0x192E JUMPI RETURNDATASIZE PUSH1 0x0 DUP1 RETURNDATACOPY RETURNDATASIZE PUSH1 0x0 REVERT JUMPDEST POP POP POP POP PUSH1 0x40 MLOAD RETURNDATASIZE PUSH1 0x1F NOT PUSH1 0x1F DUP3 ADD AND DUP3 ADD DUP1 PUSH1 0x40 MSTORE POP DUP2 ADD SWAP1 PUSH2 0x1952 SWAP2 SWAP1 PUSH2 0x1D79 JUMP JUMPDEST SWAP1 POP PUSH1 0x0 PUSH3 0xF4240 PUSH2 0x1964 DUP5 DUP5 PUSH2 0x1DA8 JUMP JUMPDEST PUSH2 0x196E SWAP2 SWAP1 PUSH2 0x1DDD JUMP JUMPDEST SWAP6 SWAP5 POP POP POP POP POP JUMP JUMPDEST PUSH1 0x0 PUSH1 0x4 SLOAD PUSH1 0x1 PUSH1 0xA0 SHL SWAP1 DIV PUSH1 0xFF AND PUSH1 0x1 DUP2 GT ISZERO PUSH2 0x1997 JUMPI PUSH2 0x1997 PUSH2 0x1CA3 JUMP JUMPDEST EQ PUSH2 0x19B4 JUMPI PUSH1 0x40 MLOAD PUSH3 0x461BCD PUSH1 0xE5 SHL DUP2 MSTORE PUSH1 0x4 ADD PUSH2 0x516 SWAP1 PUSH2 0x2010 JUMP JUMPDEST PUSH1 0x40 MLOAD PUSH4 0x70A08231 PUSH1 0xE0 SHL DUP2 MSTORE ADDRESS PUSH1 0x4 DUP3 ADD MSTORE PUSH1 0x0 SWAP1 PUSH32 0x0 PUSH1 0x1 PUSH1 0x1 PUSH1 0xA0 SHL SUB AND SWAP1 PUSH4 0x70A08231 SWAP1 PUSH1 0x24 ADD PUSH1 0x20 PUSH1 0x40 MLOAD DUP1 DUP4 SUB DUP2 DUP7 GAS STATICCALL ISZERO DUP1 ISZERO PUSH2 0x1A1B JUMPI RETURNDATASIZE PUSH1 0x0 DUP1 RETURNDATACOPY RETURNDATASIZE PUSH1 0x0 REVERT JUMPDEST POP POP POP POP PUSH1 0x40 MLOAD RETURNDATASIZE PUSH1 0x1F NOT PUSH1 0x1F DUP3 ADD AND DUP3 ADD DUP1 PUSH1 0x40 MSTORE POP DUP2 ADD SWAP1 PUSH2 0x1A3F SWAP2 SWAP1 PUSH2 0x1D79 JUMP JUMPDEST SWAP1 POP PUSH1 0x0 PUSH2 0x1A4C DUP3 PUSH2 0x183B JUMP JUMPDEST SWAP1 POP PUSH1 0x0 PUSH2 0xC350 PUSH2 0x1A60 PUSH3 0xF4240 DUP5 PUSH2 0x1DA8 JUMP JUMPDEST PUSH2 0x1A6A SWAP2 SWAP1 PUSH2 0x1DDD JUMP JUMPDEST POP POP POP POP JUMP JUMPDEST PUSH1 0x0 DUP1 PUSH1 0x4 SLOAD PUSH1 0x1 PUSH1 0xA0 SHL SWAP1 DIV PUSH1 0xFF AND PUSH1 0x1 DUP2 GT ISZERO PUSH2 0x1A91 JUMPI PUSH2 0x1A91 PUSH2 0x1CA3 JUMP JUMPDEST EQ PUSH2 0x1AAE JUMPI PUSH1 0x40 MLOAD PUSH3 0x461BCD PUSH1 0xE5 SHL DUP2 MSTORE PUSH1 0x4 ADD PUSH2 0x516 SWAP1 PUSH2 0x2010 JUMP JUMPDEST PUSH1 0x40 MLOAD PUSH4 0x70A08231 PUSH1 0xE0 SHL DUP2 MSTORE ADDRESS PUSH1 0x4 DUP3 ADD MSTORE PUSH1 0x0 SWAP1 PUSH32 0x0 PUSH1 0x1 PUSH1 0x1 PUSH1 0xA0 SHL SUB AND SWAP1 PUSH4 0x70A08231 SWAP1 PUSH1 0x24 ADD PUSH1 0x20 PUSH1 0x40 MLOAD DUP1 DUP4 SUB DUP2 DUP7 GAS STATICCALL ISZERO DUP1 ISZERO PUSH2 0x1B15 JUMPI RETURNDATASIZE PUSH1 0x0 DUP1 RETURNDATACOPY RETURNDATASIZE PUSH1 0x0 REVERT JUMPDEST POP POP POP POP PUSH1 0x40 MLOAD RETURNDATASIZE PUSH1 0x1F NOT PUSH1 0x1F DUP3 ADD AND DUP3 ADD DUP1 PUSH1 0x40 MSTORE POP DUP2 ADD SWAP1 PUSH2 0x1B39 SWAP2 SWAP1 PUSH2 0x1D79 JUMP JUMPDEST SWAP1 POP PUSH1 0x0 PUSH2 0x1B46 DUP3 PUSH2 0x183B JUMP JUMPDEST SWAP1 POP PUSH1 0x0 PUSH2 0xC350 PUSH2 0x1B5A PUSH3 0xF4240 DUP5 PUSH2 0x1DA8 JUMP JUMPDEST PUSH2 0x1B64 SWAP2 SWAP1 PUSH2 0x1DDD JUMP JUMPDEST PUSH1 0x40 MLOAD PUSH4 0x37410C55 PUSH1 0xE1 SHL DUP2 MSTORE PUSH1 0x4 DUP2 ADD DUP12 SWAP1 MSTORE SWAP1 SWAP2 POP PUSH1 0x0 SWAP1 PUSH1 0x1 PUSH1 0x1 PUSH1 0xA0 SHL SUB DUP11 AND SWAP1 PUSH4 0x6E8218AA SWAP1 PUSH1 0x24 ADD PUSH1 0x20 PUSH1 0x40 MLOAD DUP1 DUP4 SUB DUP2 DUP7 GAS STATICCALL ISZERO DUP1 ISZERO PUSH2 0x1BAF JUMPI RETURNDATASIZE PUSH1 0x0 DUP1 RETURNDATACOPY RETURNDATASIZE PUSH1 0x0 REVERT JUMPDEST POP POP POP POP PUSH1 0x40 MLOAD RETURNDATASIZE PUSH1 0x1F NOT PUSH1 0x1F DUP3 ADD AND DUP3 ADD DUP1 PUSH1 0x40 MSTORE POP DUP2 ADD SWAP1 PUSH2 0x1BD3 SWAP2 SWAP1 PUSH2 0x1D79 JUMP JUMPDEST SWAP1 POP PUSH1 0x0 PUSH2 0x1BE0 DUP3 PUSH2 0x325 JUMP JUMPDEST SWAP1 POP PUSH1 0x0 PUSH32 0x0 PUSH1 0x1 PUSH1 0x1 PUSH1 0xA0 SHL SUB AND PUSH4 0x18160DDD PUSH1 0x40 MLOAD DUP2 PUSH4 0xFFFFFFFF AND PUSH1 0xE0 SHL DUP2 MSTORE PUSH1 0x4 ADD PUSH1 0x20 PUSH1 0x40 MLOAD DUP1 DUP4 SUB DUP2 DUP7 GAS STATICCALL ISZERO DUP1 ISZERO PUSH2 0x1C42 JUMPI RETURNDATASIZE PUSH1 0x0 DUP1 RETURNDATACOPY RETURNDATASIZE PUSH1 0x0 REVERT JUMPDEST POP POP POP POP PUSH1 0x40 MLOAD RETURNDATASIZE PUSH1 0x1F NOT PUSH1 0x1F DUP3 ADD AND DUP3 ADD DUP1 PUSH1 0x40 MSTORE POP DUP2 ADD SWAP1 PUSH2 0x1C66 SWAP2 SWAP1 PUSH2 0x1D79 JUMP JUMPDEST PUSH2 0x1C70 DUP8 DUP7 PUSH2 0x1DA8 JUMP JUMPDEST PUSH2 0x1C7A SWAP2 SWAP1 PUSH2 0x1DDD JUMP JUMPDEST SWAP13 SWAP12 POP POP POP POP POP POP POP POP POP POP POP POP JUMP JUMPDEST PUSH1 0x0 PUSH1 0x20 DUP3 DUP5 SUB SLT ISZERO PUSH2 0x1C9C JUMPI PUSH1 0x0 DUP1 REVERT JUMPDEST POP CALLDATALOAD SWAP2 SWAP1 POP JUMP JUMPDEST PUSH4 0x4E487B71 PUSH1 0xE0 SHL PUSH1 0x0 MSTORE PUSH1 0x21 PUSH1 0x4 MSTORE PUSH1 0x24 PUSH1 0x0 REVERT JUMPDEST PUSH1 0x20 DUP2 ADD PUSH1 0x2 DUP4 LT PUSH2 0x1CDB JUMPI PUSH4 0x4E487B71 PUSH1 0xE0 SHL PUSH1 0x0 MSTORE PUSH1 0x21 PUSH1 0x4 MSTORE PUSH1 0x24 PUSH1 0x0 REVERT JUMPDEST SWAP2 SWAP1 MSTORE SWAP1 JUMP JUMPDEST PUSH1 0x1 PUSH1 0x1 PUSH1 0xA0 SHL SUB DUP2 AND DUP2 EQ PUSH2 0x1CF6 JUMPI PUSH1 0x0 DUP1 REVERT JUMPDEST POP JUMP JUMPDEST PUSH1 0x0 DUP1 PUSH1 0x40 DUP4 DUP6 SUB SLT ISZERO PUSH2 0x1D0C JUMPI PUSH1 0x0 DUP1 REVERT JUMPDEST DUP3 CALLDATALOAD SWAP2 POP PUSH1 0x20 DUP4 ADD CALLDATALOAD PUSH2 0x1D1E DUP2 PUSH2 0x1CE1 JUMP JUMPDEST DUP1 SWAP2 POP POP SWAP3 POP SWAP3 SWAP1 POP JUMP JUMPDEST PUSH1 0x0 DUP1 PUSH1 0x40 DUP4 DUP6 SUB SLT ISZERO PUSH2 0x1D3C JUMPI PUSH1 0x0 DUP1 REVERT JUMPDEST DUP3 CALLDATALOAD PUSH2 0x1D47 DUP2 PUSH2 0x1CE1 JUMP JUMPDEST SWAP5 PUSH1 0x20 SWAP4 SWAP1 SWAP4 ADD CALLDATALOAD SWAP4 POP POP POP JUMP JUMPDEST PUSH1 0x0 PUSH1 0x20 DUP3 DUP5 SUB SLT ISZERO PUSH2 0x1D67 JUMPI PUSH1 0x0 DUP1 REVERT JUMPDEST DUP2 CALLDATALOAD PUSH2 0x1D72 DUP2 PUSH2 0x1CE1 JUMP JUMPDEST SWAP4 SWAP3 POP POP POP JUMP JUMPDEST PUSH1 0x0 PUSH1 0x20 DUP3 DUP5 SUB SLT ISZERO PUSH2 0x1D8B JUMPI PUSH1 0x0 DUP1 REVERT JUMPDEST POP MLOAD SWAP2 SWAP1 POP JUMP JUMPDEST PUSH4 0x4E487B71 PUSH1 0xE0 SHL PUSH1 0x0 MSTORE PUSH1 0x11 PUSH1 0x4 MSTORE PUSH1 0x24 PUSH1 0x0 REVERT JUMPDEST PUSH1 0x0 DUP2 PUSH1 0x0 NOT DIV DUP4 GT DUP3 ISZERO ISZERO AND ISZERO PUSH2 0x1DC2 JUMPI PUSH2 0x1DC2 PUSH2 0x1D92 JUMP JUMPDEST POP MUL SWAP1 JUMP JUMPDEST PUSH4 0x4E487B71 PUSH1 0xE0 SHL PUSH1 0x0 MSTORE PUSH1 0x12 PUSH1 0x4 MSTORE PUSH1 0x24 PUSH1 0x0 REVERT JUMPDEST PUSH1 0x0 DUP3 PUSH2 0x1DEC JUMPI PUSH2 0x1DEC PUSH2 0x1DC7 JUMP JUMPDEST POP DIV SWAP1 JUMP JUMPDEST PUSH1 0x0 DUP3 DUP3 LT ISZERO PUSH2 0x1E03 JUMPI PUSH2 0x1E03 PUSH2 0x1D92 JUMP JUMPDEST POP SUB SWAP1 JUMP JUMPDEST PUSH4 0x4E487B71 PUSH1 0xE0 SHL PUSH1 0x0 MSTORE PUSH1 0x41 PUSH1 0x4 MSTORE PUSH1 0x24 PUSH1 0x0 REVERT JUMPDEST PUSH1 0x40 MLOAD PUSH1 0x1F DUP3 ADD PUSH1 0x1F NOT AND DUP2 ADD PUSH8 0xFFFFFFFFFFFFFFFF DUP2 GT DUP3 DUP3 LT OR ISZERO PUSH2 0x1E47 JUMPI PUSH2 0x1E47 PUSH2 0x1E08 JUMP JUMPDEST PUSH1 0x40 MSTORE SWAP2 SWAP1 POP JUMP JUMPDEST PUSH1 0x0 PUSH8 0xFFFFFFFFFFFFFFFF DUP3 GT ISZERO PUSH2 0x1E69 JUMPI PUSH2 0x1E69 PUSH2 0x1E08 JUMP JUMPDEST POP PUSH1 0x5 SHL PUSH1 0x20 ADD SWAP1 JUMP JUMPDEST PUSH1 0x0 DUP3 PUSH1 0x1F DUP4 ADD SLT PUSH2 0x1E84 JUMPI PUSH1 0x0 DUP1 REVERT JUMPDEST DUP2 MLOAD PUSH1 0x20 PUSH2 0x1E99 PUSH2 0x1E94 DUP4 PUSH2 0x1E4F JUMP JUMPDEST PUSH2 0x1E1E JUMP JUMPDEST DUP3 DUP2 MSTORE PUSH1 0x5 SWAP3 SWAP1 SWAP3 SHL DUP5 ADD DUP2 ADD SWAP2 DUP2 DUP2 ADD SWAP1 DUP7 DUP5 GT ISZERO PUSH2 0x1EB8 JUMPI PUSH1 0x0 DUP1 REVERT JUMPDEST DUP3 DUP7 ADD JUMPDEST DUP5 DUP2 LT ISZERO PUSH2 0x1ED3 JUMPI DUP1 MLOAD DUP4 MSTORE SWAP2 DUP4 ADD SWAP2 DUP4 ADD PUSH2 0x1EBC JUMP JUMPDEST POP SWAP7 SWAP6 POP POP POP POP POP POP JUMP JUMPDEST PUSH1 0x0 DUP1 PUSH1 0x40 DUP4 DUP6 SUB SLT ISZERO PUSH2 0x1EF1 JUMPI PUSH1 0x0 DUP1 REVERT JUMPDEST DUP3 MLOAD PUSH8 0xFFFFFFFFFFFFFFFF DUP1 DUP3 GT ISZERO PUSH2 0x1F09 JUMPI PUSH1 0x0 DUP1 REVERT JUMPDEST DUP2 DUP6 ADD SWAP2 POP DUP6 PUSH1 0x1F DUP4 ADD SLT PUSH2 0x1F1D JUMPI PUSH1 0x0 DUP1 REVERT JUMPDEST DUP2 MLOAD PUSH1 0x20 PUSH2 0x1F2D PUSH2 0x1E94 DUP4 PUSH2 0x1E4F JUMP JUMPDEST DUP3 DUP2 MSTORE PUSH1 0x5 SWAP3 SWAP1 SWAP3 SHL DUP5 ADD DUP2 ADD SWAP2 DUP2 DUP2 ADD SWAP1 DUP10 DUP5 GT ISZERO PUSH2 0x1F4C JUMPI PUSH1 0x0 DUP1 REVERT JUMPDEST SWAP5 DUP3 ADD SWAP5 JUMPDEST DUP4 DUP7 LT ISZERO PUSH2 0x1F73 JUMPI DUP6 MLOAD PUSH2 0x1F64 DUP2 PUSH2 0x1CE1 JUMP JUMPDEST DUP3 MSTORE SWAP5 DUP3 ADD SWAP5 SWAP1 DUP3 ADD SWAP1 PUSH2 0x1F51 JUMP JUMPDEST SWAP2 DUP9 ADD MLOAD SWAP2 SWAP7 POP SWAP1 SWAP4 POP POP POP DUP1 DUP3 GT ISZERO PUSH2 0x1F8C JUMPI PUSH1 0x0 DUP1 REVERT JUMPDEST POP PUSH2 0x1F99 DUP6 DUP3 DUP7 ADD PUSH2 0x1E73 JUMP JUMPDEST SWAP2 POP POP SWAP3 POP SWAP3 SWAP1 POP JUMP JUMPDEST PUSH4 0x4E487B71 PUSH1 0xE0 SHL PUSH1 0x0 MSTORE PUSH1 0x32 PUSH1 0x4 MSTORE PUSH1 0x24 PUSH1 0x0 REVERT JUMPDEST PUSH1 0x0 PUSH1 0x20 DUP3 DUP5 SUB SLT ISZERO PUSH2 0x1FCB JUMPI PUSH1 0x0 DUP1 REVERT JUMPDEST DUP2 MLOAD DUP1 ISZERO ISZERO DUP2 EQ PUSH2 0x1D72 JUMPI PUSH1 0x0 DUP1 REVERT JUMPDEST PUSH1 0x0 PUSH1 0x20 DUP3 DUP5 SUB SLT ISZERO PUSH2 0x1FED JUMPI PUSH1 0x0 DUP1 REVERT JUMPDEST DUP2 MLOAD PUSH2 0x1D72 DUP2 PUSH2 0x1CE1 JUMP JUMPDEST PUSH1 0x0 DUP3 NOT DUP3 GT ISZERO PUSH2 0x200B JUMPI PUSH2 0x200B PUSH2 0x1D92 JUMP JUMPDEST POP ADD SWAP1 JUMP JUMPDEST PUSH1 0x20 DUP1 DUP3 MSTORE PUSH1 0x23 SWAP1 DUP3 ADD MSTORE PUSH32 0x5468657265206973206E6F20696E63656E7469766520617420746865206D6F6D PUSH1 0x40 DUP3 ADD MSTORE PUSH3 0x195B9D PUSH1 0xEA SHL PUSH1 0x60 DUP3 ADD MSTORE PUSH1 0x80 ADD SWAP1 JUMP JUMPDEST PUSH1 0x0 PUSH1 0x1 PUSH1 0x1 PUSH1 0xFF SHL SUB DUP2 DUP5 SGT DUP3 DUP5 SGT DUP1 DUP3 AND DUP7 DUP5 DIV DUP7 GT AND ISZERO PUSH2 0x2079 JUMPI PUSH2 0x2079 PUSH2 0x1D92 JUMP JUMPDEST PUSH1 0x1 PUSH1 0xFF SHL PUSH1 0x0 DUP8 SLT DUP3 DUP2 AND DUP8 DUP4 SDIV DUP10 SLT AND ISZERO PUSH2 0x2098 JUMPI PUSH2 0x2098 PUSH2 0x1D92 JUMP JUMPDEST PUSH1 0x0 DUP8 SLT SWAP3 POP DUP8 DUP3 SDIV DUP8 SLT DUP5 DUP5 AND AND ISZERO PUSH2 0x20B4 JUMPI PUSH2 0x20B4 PUSH2 0x1D92 JUMP JUMPDEST DUP8 DUP6 SDIV DUP8 SLT DUP2 DUP5 AND AND ISZERO PUSH2 0x20CA JUMPI PUSH2 0x20CA PUSH2 0x1D92 JUMP JUMPDEST POP POP POP SWAP3 SWAP1 SWAP4 MUL SWAP4 SWAP3 POP POP POP JUMP JUMPDEST PUSH1 0x0 DUP3 PUSH2 0x20E7 JUMPI PUSH2 0x20E7 PUSH2 0x1DC7 JUMP JUMPDEST PUSH1 0x1 PUSH1 0xFF SHL DUP3 EQ PUSH1 0x0 NOT DUP5 EQ AND ISZERO PUSH2 0x2101 JUMPI PUSH2 0x2101 PUSH2 0x1D92 JUMP JUMPDEST POP SDIV SWAP1 JUMP JUMPDEST PUSH1 0x0 DUP1 DUP4 SLT DUP1 ISZERO PUSH1 0x1 PUSH1 0xFF SHL DUP6 ADD DUP5 SLT AND ISZERO PUSH2 0x2124 JUMPI PUSH2 0x2124 PUSH2 0x1D92 JUMP JUMPDEST PUSH1 0x1 PUSH1 0x1 PUSH1 0xFF SHL SUB DUP5 ADD DUP4 SGT DUP2 AND ISZERO PUSH2 0x213F JUMPI PUSH2 0x213F PUSH2 0x1D92 JUMP JUMPDEST POP POP SUB SWAP1 JUMP INVALID LOG2 PUSH5 0x6970667358 0x22 SLT KECCAK256 0x4C 0xAD JUMPDEST GT CALLCODE 0xAA PUSH32 0xDB79246D21368E8F53C30244EDCF8907FB70CDE8972E3A031D64736F6C634300 ADDMOD 0xC STOP CALLER ","sha1":"50e63fca781df46cc1d3d940c1f984c6d6153736","source":"//SPDX-License-Identifier: MIT\npragma solidity 0.8.12;\n\nimport \"@openzeppelin/contracts/token/ERC20/ERC20.sol\";\nimport \"./TRSYERC20.sol\";\nimport \"./TokenPool.sol\";\nimport \"../interfaces/IRegistry.sol\";\nimport \"../interfaces/ITokenPool.sol\";\nimport \"./Registry.sol\";\nimport \"@openzeppelin/contracts/token/ERC20/IERC20.sol\";\n\n\n\ncontract Treasury {\n// State Variables\nTRSYERC20 public immutable TRSY;\nmapping (address => uint256) public timestamp;\nmapping (address => bool) public whitelistedUsers;\nmapping (address => bool) public whitelistedTokens;\naddress public owner;\naddress public registry;\nuint256 constant PRECISION = 1e6;\n\n//Errors\nerror Error_Unauthorized();\nerror InsufficientBalance(uint256 available, uint256 required);\n\n//enum\nenum INCENTIVE{\n        OPEN,\n        CLOSED\n    }\n\nINCENTIVE public incentive;\n\n//struct\nstruct Concentrations{\n        uint256 currentConcentration;\n        uint256 targetConcentration;\n        uint256 newConcentration;\n        uint256 aum;\n    }\n//modifier\nmodifier onlyOwner() {\n        if (msg.sender != owner) {\n            revert Error_Unauthorized();\n        }\n        _;\n    }\n\n//events\nevent TokenDeposited(\n        address indexed depositor,\n        address token,\n        uint256 amount,\n        uint256 usdValueDeposited,\n        uint256 sharesMinted\n    );\n\n//constructor\nconstructor(\n        address _trsy,\n        address _registry\n    ) {\n    owner = msg.sender;\n    registry = _registry;\n    TRSY = TRSYERC20(_trsy);\n    }\n/**\n@dev function that adds a user to the whitelist\n */\n    function whitelistUser(address _user) public onlyOwner {\n        whitelistedUsers[_user] =true;\n    }\n\n/**\n@dev function that adds a token to the whitelist\n */\n    function whitelistToken(address _token) public onlyOwner {\n         whitelistedTokens[_token] =true;\n    }\n/**\n@dev function that makes a concentration struct by calculating the new, current, aum and target concentration \n@param pool - pool to make the struct for\n@param amount - new amount to be added to pool\n */\n    function makeConcentrationStruct(address pool, uint amount) public view returns (Concentrations memory){\n        Concentrations memory concentration;\n        concentration.currentConcentration = Registry(registry).getConcentration(pool);\n        concentration.targetConcentration = Registry(registry).PoolToConcentration(pool);\n        concentration.newConcentration = Registry(registry).getNewConcentration(pool, amount);\n        concentration.aum = Registry(registry).getTotalAUMinUSD();\n        return concentration;\n    }\n/**\n@dev function that allows a whitelisted user to deposit a whitelisted token into the treasury in exchange for TRSY\n@param _token - token to be deposited\n@param _amount - amount of token to be deposited\n */\n    function deposit(uint256 _amount, address _token) public {\n        require(whitelistedUsers[msg.sender], \"User is not whitelisted\");\n        require(whitelistedTokens[_token], \"Token is not whitelisted\");\n        address pool = IRegistry(registry).tokenToPool(_token);\n        uint256 USDValue = ITokenPool(pool).getDepositValue(_amount);\n        require(USDValue > 1e18, \"Amount must be greater than $1\");\n        Concentrations memory c = makeConcentrationStruct(pool,USDValue);\n        if (c.aum>100000e18 && c.aum!=0){\n        require(c.currentConcentration < (c.targetConcentration*1200000)/PRECISION, \"Concentration is too high\"); }//concentration is too high to deposit into pool\n        uint taxamt = USDValue * 50000 / PRECISION; // tax user 5%\n        //if users deposit makes concentration too high, tax them an addition 7.5% per dollar that is over the target concentration\n        if ((c.newConcentration>c.targetConcentration) && (c.newConcentration >= c.currentConcentration)){\n           uint change =  c.targetConcentration < c.currentConcentration ? USDValue * 75000 / PRECISION : USDValue * (c.newConcentration - c.targetConcentration)/PRECISION * 75000 / PRECISION ;\n           taxamt += change;\n        } \n        uint256 trsyamt = getTRSYAmount(USDValue);\n        uint256 trsytaxamt = getTRSYAmount(taxamt);\n        bool success = IERC20(_token).transferFrom(msg.sender, pool, _amount);\n        require(success);\n        timestamp[msg.sender] = block.timestamp;\n        TRSY.mint(msg.sender, trsyamt-trsytaxamt);\n        TRSY.mint(address(this), trsytaxamt); //give this contract the tax \n        emit TokenDeposited(msg.sender, _token, _amount, USDValue, trsyamt-trsytaxamt);\n        if (Registry(registry).checkDeposit()){\n            incentive = INCENTIVE.OPEN;\n            //if pools too unbalanced open the incentive\n        }\n        else{\n            //if pools have been balanced, close the incentive\n            incentive = INCENTIVE.CLOSED;\n        }\n    }\n\n    /**\n    @dev function to get how much TRSY a user will get for a certain amount of USD\n    @param _amount - amount of USD to be converted to TRSY\n     */\n    function getTRSYAmount(uint256 _amount) public view returns (uint256){\n        uint256 tvl = IRegistry(registry).getTotalAUMinUSD();\n        uint256 supply = TRSY.totalSupply();\n        return tvl == 0 ? _amount : (_amount * supply) / tvl;\n    }\n\n/**\n@dev function that allows a user to withdraw TRSY\n@param _amount - amount of treasury to be withdrawn \n */\n    function withdraw(uint256 _amount) public {\n        require(_amount > 0, \"Amount must be greater than 0\");\n        uint256 trsyamt = TRSY.balanceOf(msg.sender);\n        if (trsyamt < _amount) {\n            revert InsufficientBalance({available: trsyamt, required: _amount});\n        }\n        uint tax = calculateTax(_amount, msg.sender); //withdrawal tax \n        uint postTax = _amount -tax; // actualy trsy that will be withdrawn \n        uint256 usdamt = getWithdrawAmount(postTax);\n        (address[] memory pools, uint256[] memory amt) = IRegistry(registry).tokensToWithdraw(usdamt);\n        TRSY.burn(msg.sender, _amount); //burn total amount from user\n        TRSY.mint(address(this), tax); // mint this address the tax\n        uint len = pools.length;\n        for (uint i; i<len;){\n            if( pools[i]!= address(0)){\n            address pool = pools[i];\n            uint256 amount = getTokenAmount(amt[i], pools[i]);\n            ITokenPool(pool).withdrawToken(msg.sender,amount);\n            }\n            unchecked{++i;}\n        }\n        if (Registry(registry).checkDeposit()){\n            incentive = INCENTIVE.OPEN;\n            //if pools too unbalanced open the incentive\n        }\n        else{\n            //if pools have been balanced, close the incentive\n            incentive = INCENTIVE.CLOSED;\n        }\n    }\n    /**\n    @dev function  that calculates how much tax a user will pay on a withdrawal\n    @param _amount - amount of TRSY to be withdrawn\n    @param sender - user that is withdrawing\n     */\n    function calculateTax(uint256 _amount, address sender) public view returns (uint256){\n        uint256 tax = _amount * 50000 / PRECISION; //all withdrawals taxed at 5%\n        uint time = block.timestamp - timestamp[sender];\n        int numdays = int(time / 86400);\n        if(numdays <= 30){ //if user withdraws within 30 days of depositing, it is taxed more\n             int calcTax =  ((200000 * numdays / 30) - 200000);\n             int taxamt = 0 - calcTax;\n             tax += _amount * uint(taxamt) / PRECISION;\n        }\n             return tax;\n        }\n        //(uint today, uint mean, uint std) = volatilityCheck();\n        \n    // function volatilityCheck () public view returns (uint, uint, uint){\n    //     uint today = 0;\n    //     uint mean = 0;\n    //     uint std = 0;\n    //     return (today, mean, std);\n    // }\n\n    /**\n    @dev calculate how many tokens a certain usd amount is worth \n    @param usdamt - dollar amount\n    @param pool - tokenPool\n     */\n    function getTokenAmount(uint usdamt, address pool) public returns (uint256){\n        uint price = ITokenPool(pool).getPrice();\n        return ((usdamt * 10**18)/price);\n    }\n\n/**\n@dev function to convert TRSY to usd\n@param trsyamt - trsy amount \n */\n    function getWithdrawAmount(uint256 trsyamt) public view returns(uint256) {\n        uint256 trsy = (PRECISION * trsyamt) / TRSY.totalSupply();\n        uint256 tvl = IRegistry(registry).getTotalAUMinUSD();\n        uint256 usdAmount = (tvl * trsy) / PRECISION;\n        return usdAmount;\n    }\n\n    function incentivize() public view{\n        require(incentive==INCENTIVE.OPEN, \"There is no incentive at the moment\");\n        uint256 trsyamt = TRSY.balanceOf(address(this));\n        uint usdTrsy = getWithdrawAmount(trsyamt);\n        uint max = usdTrsy * PRECISION/50000;\n        \n        \n        // (Registry.Rebalancing [] memory rebalancing, uint total) = Registry(registry).checkDeposit();\n        // uint len = rebalancing.length;\n        // if ((total * 500000 / PRECISION) >= getWithdrawAmount(trsyamt)){\n\n        // }\n        // for (uint i; i<len;){\n            \n        //     unchecked{++i;}\n        // }\n    }\n\n    function depositIncentive(uint256 _amount, address _token) public {\n        require(incentive == INCENTIVE.OPEN,\"There is no incentive at the moment\");\n        require(whitelistedTokens[_token], \"Token is not whitelisted\");\n        address pool = IRegistry(registry).tokenToPool(_token);\n        uint256 USDValue = ITokenPool(pool).getDepositValue(_amount);\n        require(USDValue > 1e18, \"Amount must be greater than $1\");\n        Concentrations memory c = makeConcentrationStruct(pool,USDValue);\n        require(c.currentConcentration<c.targetConcentration, \"Pool is already above target concentration\");\n        require(c.newConcentration < (c.targetConcentration * 1300000 / PRECISION), \"This will make the pool too concentrated\");\n        uint reward = calculateReward(_amount, _token, c.newConcentration, c.currentConcentration, c.targetConcentration);\n        uint256 trsyamt = getTRSYAmount(USDValue);\n        bool success = IERC20(_token).transferFrom(msg.sender, pool, _amount);\n        require(success);\n        timestamp[msg.sender] = block.timestamp;\n        TRSY.mint(msg.sender, trsyamt);\n        TRSY.transfer(msg.sender, reward);\n        if (!Registry(registry).checkDeposit()){\n            incentive = INCENTIVE.CLOSED;\n        }\n    }\n\n    function calculateReward(uint256 _amount, address _token, uint256 newC, uint256 current, uint256 target) internal view returns (uint256){\n        require(incentive == INCENTIVE.OPEN, \"There is no incentive at the moment\");\n        uint256 trsyamt = TRSY.balanceOf(address(this));\n        uint usdTrsy = getWithdrawAmount(trsyamt);\n        uint max = usdTrsy * PRECISION/50000;\n        uint256 USDValue = ITokenPool(_token).getDepositValue(_amount);\n        uint256 trsyUSD = getTRSYAmount(USDValue);\n        uint256 reward = (max * trsyamt) / TRSY.totalSupply();\n        return reward;\n    }\n\n}","sourcePath":"contracts/Treasury.sol","type":"contract","deployment":{"address":"0x2Ddfb9E48C3B69f776d14342310dED41fbB4EBc3","chainid":"5","blockHeight":7566808}}